S013000054657374536368656D61312E73726563EF
S21408000010AE0720393D0800353D0800353D08008C
S214080010353D0800353D0800353D08000000000065
S2140800200000000000000000000000003921080061
S214080030353D080000000000B5210800F121080041
S214080040353D0800353D0800353D0800353D0800BB
S214080050353D0800353D0800353D0800353D0800AB
S214080060353D0800353D080000000000A53B0800A7
S214080070B93B0800CD3B0800E13B08000000000043
S21408008000000000353D0800353D0800353D0800F5
S214080090353D0800353D0800353D0800353D08006B
S2140800A0353D080000000000353D0800353D0800D5
S2140800B0353D0800353D0800353D0800353D08004B
S2140800C0353D0800353D0800353D0800353D08003B
S2140800D0353D0800353D0800353D0800353D08002B
S2140800E0353D0800353D0800353D0800353D08001B
S2140800F0353D080010B5054C237833B9044B13B1C9
S2140801000448AFF300800123237010BDF0090720D0
S214080110000000005485080008B5064B1BB10648C9
S2140801200649AFF300800648036813B1054B03B1D0
S214080130984708BD0000000054850800F409072009
S214080140548508000000000070B50D480D4B984710
S2140801500D4C2023237078236370A3700B4D022068
S21408016021462A460A4EB047032021462A46B0476B
S214080170042021462A46B047AA78064B1A7070BD56
S214080180A07F0800F94F08002C0A07200C0A072051
S214080190D10908003801072010B582B000242423AE
S2140801A08DF8043078238DF805308DF8063001A8D0
S2140801B00221094B9847ADF800408DF80240684682
S2140801C00221064B98479DF8014005482146054BF5
S2140801D09847204602B010BD390908008109080072
S2140801E0B47F0800F94F08002DE9F84F0546314F4F
S2140801F0314C522039462246304EB0476278A378B2
S21408020043EA02232E480380DFF8C4B0E278237955
S21408021043EA0223ABF80030532039462246B0475B
S214080220DFF8B0A06278A37843EA0223AAF8003081
S214080230DFF8A490E278237943EA0223A9F800308D
S214080240542039462246B047DFF890806278A37873
S21408025043EA0223A8F80030E278237943EA022327
S214080260184A1380552039462246B047164A617800
S214080270A37843EA01231380144BE078217941EAF6
S214080280002119800E4801882980BBF80010698073
S214080290BAF80010A980B9F80010E980B8F800107C
S2140802A029810848018869811288AA811B88EB8100
S2140802B0BDE8F88F100A0720200A07201D0A080044
S2140802C01E0A0720180A0720140A0720300A0720E3
S2140802D0280A07201A0A07201C0A0720160A0720D9
S2140802E010B584B0124B98470023009301930293ED
S2140802F0039368460F4B98470F48BDF90010BDF9A1
S21408030002200E4CA0470E48BDF90410BDF9062081
S214080310A0470C48BDF90810BDF90A20A0470A48AE
S214080320BDF90C10BDF90E20A04704B010BD00BFE3
S214080330ED080800E9010800CC7F0800F94F08001E
S214080340E87F080004800800248008002DE9F047AC
S2140803500546174E5023337030460321DFF85C807D
S214080360C047144C20460321134FB84794F801A001
S214080370A37843EA0A2A94F80390237943EA0929DA
S2140803805123337030460321C04720460321B8471F
S2140803906278A37843EA0222E178237943EA0123C4
S2140803A0A5F800A0A5F80290AA80EB80BDE8F08723
S2140803B0100A0720200A07208109080039090800C2
S2140803C008B5054B22221A70587078229A7018467B
S2140803D00249034B984708BD2C0A07200C0A072039
S2140803E0A50A080008B5054B21221A70587078220D
S2140803F09A7018460249034B984708BD2C0A0720EE
S2140804000C0A0720A50A0800014B1878704700BF99
S2140804103801072010B582B0002423238DF8043055
S21408042078238DF805308DF8063001A80221094B8F
S2140804309847ADF800408DF8024068460221064B02
S21408044098479DF8014005482146054B98472046A1
S21408045002B010BD3909080081090800408008006C
S214080460F94F080008B5054B24221A7058707822F0
S2140804709A7018460249034B984708BD2C0A07206D
S2140804800C0A0720A50A08000C4B1B8803800C4B97
S2140804901B8843800B4B1B8883800B4B1B88C380B1
S2140804A00A4B1B8803810A4B1B884381094B1B8810
S2140804B08381094B1B88C381704700BF1E0A07202B
S2140804C0280A07201A0A07201C0A0720160A0720E7
S2140804D0180A0720140A0720300A07202DE9F041D9
S2140804E00C46904660B9002A0EDD8F18094E0A4D54
S2140804F0306821462B6898470134BC42F8D106E09C
S2140805004FF0FF30BDE8F0810020BDE8F08140469E
S214080510BDE8F081A08D0720188D0720F0B48CB0B8
S21408052007460E4601AC124D0FCD0FC40FCD0FC4B3
S21408053095E8070084E807006A46002352F8044F47
S214080540B6FBF4F4B4FBF7F4B4F5807F03D90133B3
S2140805500B2BF3D104E00A2B05D844EA032004E069
S2140805604FF6FF7001E04FF6FF700CB0F0BC704716
S2140805705880080070B506460C46086840B1896879
S2140805800B4B984705464FF6FF73984201D10EE08D
S2140805900025606840B1A168054B98474FF6FF7381
S2140805A0984204D045EA00453560002070BD70BD0D
S2140805B01D05080070B40B688C8A4A6802F00F02A2
S2140805C014430D892C438A7A44EA42248A7D44EAF5
S2140805D00244CA7D44EA42440A7E44EA824400EB66
S2140805E04312C2F80042CC68C2F804420C69C2F84A
S2140805F00C428A7D3AB18C8B4A8B42EA044400EB63
S2140806004312C2F81842856C4FF001129A40D24342
S2140806101540CE7F9E408C7F9C4044EA06442C437F
S2140806208464446C224091F821509D4091F8204003
S2140806309C4044EA05442243426401229A4091F8C9
S21408064022401CB1046A1443046203E0046A24EAE4
S2140806500204046291F82440012C846E0CBF1443F3
S2140806609443846691F82540012C846E0CBF44EAB6
S214080670024224EA02428266032B0CD8C46EDB00D0
S214080680FF229A4024EA020291F8231001FA03F3A3
S2140806901343C3660CE0043B046FDB00FF229A405A
S2140806A024EA020291F8231001FA03F313430367BE
S2140806B0002070BC704700BF10B40C680B699342EA
S2140806C006D3CA6000EB4410C0F80822002001E0F8
S2140806D04FF6FF705DF8044B704700BF012303FA1E
S2140806E001F14160704700BF012303FA01F1816000
S2140806F0704700BF0F4B994219D84900B2FBF1F278
S214080700043AFF2A07D9002301335208FF2A03D9DF
S214080710072BF9D100E00023110289B21B0403F469
S214080720E0230B43D2B21A4302610020704701202F
S214080730704700BF801A060038B504460D464FF0CD
S214080740FF338362036A80230360036B0823036016
S214080750202303600423036049682A68054B9847EA
S214080760012814BF002001206B7A012B04BF402308
S214080770236038BDF50608002DE9F0030446CB686B
S2140807808E68002B49D0002242604868000200F4B8
S214080790407040F480500D7C2D0405F4FE05284377
S2140807A06060E2604A685AB10878012AC4BF4D788A
S2140807B045EA0020022A04DD8A7842EA002000E0A2
S2140807C00020E060012B04D1032222604FF0010CC8
S2140807D02BE0012222604FF0000C26E0216A11F47B
S2140807E0807F1CD1551EE2B12A46012B05D1BCF1EB
S2140807F0000F02D1C4F80090C44611F0020F04D0CE
S214080800226B3270013B01363A46002BE6D1236A4A
S21408081013F0010FFBD0236A14E0012012E0052034
S21408082010E009200EE005200CE0216A11F4807023
S214080830F9D143F697224FF002094FF0010843F624
S2140808409827D2E7BDE8F003704700BF70B40346A8
S214080850CA688868002A3FD000245C600E7C36048C
S21408086006F4FE064D682D0205F4407535435D60B6
S214080870DC604C685CB10D78012CC4BF4E7846EA43
S2140808800525022C04DD897841EA052500E00025C7
S214080890DD600BE0196A11F4807F1FD111F0040F98
S2140808A0F8D010F8011B5963013A07D0196A11F4F9
S2140808B0807F15D111F0040FF3D1EBE71A6A12F412
S2140808C080700FD112F0040FF8D002221A601A6A4C
S2140808D012F0010FFBD006E0012004E0052002E03C
S2140808E0052000E0052070BC704700BF00B585B045
S2140808F00A4B02930A4B019300238DF80D301620FD
S214080900084B9847084801A9084B984710B9084863
S214080910084B984705B05DF804FB00BFA0860100A9
S21408092000BD0105DD3C080000C008403907080086
S21408093084800800F94F080070B504460D460B4839
S21408094021786278A3780A4EB047022D14BF012199
S2140809500321084B00221A705A705A601D749C6056
S214080960D96005481946054B984770BD9C80080015
S214080970F94F08001C8D072000C008404D080800E5
S214080980F8B50746022914BF052003200B4B0022A2
S2140809901A705A705A6019749F60D860084E1D46BF
S2140809A0084C30462946A0470028FAD10648397828
S2140809B07A78BB78054CA047F8BD00BF308D072075
S2140809C000C0084079070800B4800800F94F0800FE
S2140809D038B50446154620230B7048700846022191
S2140809E0094B984728460221084B9847042C09D1FA
S2140809F0AB78012B03D10648064B984738BD064806
S214080A00044B984738BD00BF39090800810908001B
S214080A10CC800800F94F08001881080010B5144665
S214080A20087008460321034B984720460321024BCB
S214080A30984710BD390908008109080008B522231F
S214080A4003700221014B984708BD00BF390908000A
S214080A5008B5212303700221014B984708BD00BF43
S214080A603909080010B50C46242303700221034BED
S214080A70984720460221024B984710BD39090800BE
S214080A808109080010B50C46232303700221034B86
S214080A90984720460221024B984710BD390908009E
S214080AA08109080008B50378213B042B12D8DFE833
S214080AB003F00306090C0F00074B984708BD074BC1
S214080AC0984708BD064B984708BD064B984708BD8B
S214080AD0054B984708BD00BF510A08003D0A0800A4
S214080AE0850A0800650A080049010800F0B583B0C1
S214080AF004460D46002301931F4B984207D11F4614
S214080B001E4E38462946B0470028FAD119E01C4B35
S214080B10984209D11F461B4E384601A9B0470028FF
S214080B20FAD1019B2B7019E0174B984209D11E4643
S214080B30144C304601A9A0470028FAD1019B2B7017
S214080B4018E0124B9C4209D11E460E4C304601A9AD
S214080B50A0470028FAD1019B2B700BE00C4B9C4257
S214080B6008D11E46074C304601A9A0470028FAD1EE
S214080B70019B2B7003B0F0BD00080E400D15080051
S214080B80008009405914080000C0094000000A40C7
S214080B9000400A4070B50C46214B984207D11E46C5
S214080BA0204D30462146A8470028FAD12BE01E4B98
S214080BB0984207D11E461D4D30462146A8470028B4
S214080BC0FAD122E01A4B984207D11E46174D3046F6
S214080BD02146A8470028FAD119E0164B984207D1B3
S214080BE01E46124D30462146A8470028FAD110E086
S214080BF0114B98420FD11E460C4D30462146A84749
S214080C000028FAD109E0012070BD012070BD01203E
S214080C1070BD012070BD002070BD012070BD00BFF2
S214080C2000080E40FD14080000800940451408001E
S214080C3000C0094000000A4000400A4030B585B0B0
S214080C400820124DA847124C124B1C60124A134B30
S214080C501A60134A134B1A60134B01934FF4E1338F
S214080C6002934FF4006303930820A847204601A97F
S214080C700E4B98470E4D2B68986800210D4CA047E0
S214080C802B6858680021A04705B030BDDD3C080039
S214080C9000080E40A08D0720950B08009C8D0720A5
S214080CA0ED0A0800188D072000BD0105C5140800C8
S214080CB0B0050720A15108002DE9F84F06460F4653
S214080CC014461D46DFF854A0DDE90A0132463B46C5
S214080CD0D04780468946DDE90C0122462B46D04798
S214080CE004460D46DFF838A0DFF838B040464946D7
S214080CF042464B46D04706460F46204629462246D9
S214080D002B46D04702460B4630463946D847024B54
S214080D109847BDE8F88F00BFE94308007146080009
S214080D20D9490800754608002DE9F04104460D46E5
S214080D3016461F46DFF8F481DDE9060122462B46F3
S214080D40C04704460D46DDE9080132463B46C04723
S214080D5006460F462046294600220023DFF8A8C18B
S214080D60E047A8B13046394600220023664CA04723
S214080D70002840F0AA803046394600220023634CFB
S214080D80A047002800F0A58000200021BDE8F081DB
S214080D903046394600220023DFF86CC1E04760B1D0
S214080DA02046294600220023584CA047002800F079
S214080DB0948000205649BDE8F08120462946002246
S214080DC00023DFF848C1E047B0B130463946002274
S214080DD00023DFF838C1E047B0B12046294632463E
S214080DE03B464C4CA0474C4B984743A3D3E90023BB
S214080DF04A4CA047BDE8F081204629460022002339
S214080E00DFF808C1E047D0B1304639460022002353
S214080E10DFF81CC1E04790B12046294632463B46DB
S214080E203C4CA0473C4B984733A3D3E900233B4CA4
S214080E30A04700223A4B3B4CA047BDE8F08120462D
S214080E40294600220023DFF8E8C0E047D0B1304644
S214080E50394600220023DFF8D8C0E047D0B1204644
S214080E60294632463B462B4CA0472B4B984722A395
S214080E70D3E90023294CA0470022294B294CA04738
S214080E80BDE8F0812046294600220023DFF8A0C0EE
S214080E90E04738B33046394600220023DFF86CC0F6
S214080EA0E04718B32046294632463B46194CA04729
S214080EB0194B984710A3D3E90023184CA0470022E3
S214080EC0194B184CA047BDE8F08100200021BDE86A
S214080ED0F08100201249BDE8F08109A1D1E900019E
S214080EE0BDE8F08100200021BDE8F0810020002147
S214080EF0BDE8F081AFF30080F8C1631ADCA54C406A
S214080F000000000000E07040A94E0800F94E0800F6
S214080F10008056402D4C080091400800D94908002A
S214080F2000806640754608000080764071460800D6
S214080F30BD4E0800AFF300802DE9F04784B0DDE928
S214080F400C45DDE90E89CDE90045CDE90289DFF8D3
S214080F508CA0D04706460F46DDE91023CDE90023CE
S214080F60DDE91223CDE902232046294642464B46B0
S214080F70D04732463B46124CA04704460D46002250
S214080F80104B114EB04738B12046294600220F4B69
S214080F900B4CA04704460D462046294600220C4B1B
S214080FA00C4EB04738B1204629460022074B0A4C5B
S214080FB0A04704460D462046294604B0BDE8F087FB
S214080FC07146080000806640F94E080000807640AA
S214080FD0008066C0BD4E080075460800290D08004A
S214080FE038B555204FF080510B4B98470B4B0424CF
S214080FF01C600B225A6000229A721A8141F64C51E4
S2140810001961DA60064D28461946064B9847284661
S2140810102146054B984738BD9D3908006C8D07203A
S21408102000400940B5050800DD06080038B556201A
S2140810304FF080510B4B98470B4B05241C600B2236
S2140810405A6000229A721A8141F64C511961DA6088
S214081050064D28461946064B984728462146054B0E
S214081060984738BD9D390800448D07200040094040
S214081070B5050800DD06080030B585B024200D4B00
S21408108098470D4C204604210C4DA84720460521BC
S214081090A8470B4B0193002302930A4B0393204661
S2140810A001A9094B9847094B9847094B984705B03B
S2140810B030BD00BFDD3C080000400940E9060800D6
S2140810C040420F0000BD010575050800E10F080045
S2140810D02D10080008B5B0F5487F05D340F69802ED
S2140810E0904238BF024601E04FF44872024803496E
S2140810F0034B984708BD00BF004009406C8D072089
S214081100B906080008B5B0F5487F05D340F698023A
S214081110904238BF024601E04FF44872024803493D
S214081120034B984708BD00BF00400940448D072080
S214081130B906080008B506484FF020514FF480520B
S214081140044B984718B1044B1A8801321A8008BD18
S21408115000120E40A9380800948D072008B50648E6
S2140811604FF020514FF48042044B984718B1044B77
S2140811701A8801321A8008BD00100E40A9380800E7
S214081180968D072070B582B00C201A4CA0470D200B
S214081190A047194D28464FF480510122174EB047F4
S2140811A0174C20464FF480410122B047154B009358
S2140811B028460D214FF480527023134EB047134B28
S2140811C0009320460C214FF480427023B0472846EF
S2140811D04FF480510E4DA84720464FF48041A8474B
S2140811E00C4B4FF400521A604FF480521A6002B04B
S2140811F070BD00BFDD3C080000120E400139080033
S21408120000100E4035110800693B08005D11080003
S2140812108D39080000E100E00023024A1380024AE4
S21408122013807047968D0720948D0720F0B583B0FD
S214081230634B9847ADF80600624C634E634D2378BF
S214081240012B0DD01BB1022B00F08880AFE0604860
S214081250A84705205F4B984701225F4B1A70A6E007
S2140812603046A8475D4B98475D4B1870831E042B85
S21408127000F29D80DFE803F04F1E369B03005948B6
S214081280A847594B1B782BB90122574B1A700A22CC
S214081290564B1A60564B1B78002B00F088800027A8
S2140812A0514B1F70524B1F700720524B98474A4BA2
S2140812B01F707CE05048A8474B4B1B782BB90A2276
S2140812C04E4B1A600122484B1A70494B1B78002B6C
S2140812D06DD00027444B1F700720464B98473E4B5F
S2140812E01F7064E04648A8473F4B1B7833B96FF039
S2140812F00902424B1A6001223B4B1A703C4B1B7882
S214081300002B54D00027384B1F700720394B9847BE
S214081310314B1F704BE03B48A8473B4B1A78013AC5
S2140813201A703A4B9847012802D1374B1B7813B1ED
S214081330364B984728B93648A8470222264B1A70D3
S21408134035E03448A8473448A8470122334B1A707A
S2140813500020214B1870324B984728E03148A847A0
S214081360314B1B784BB90520304B984701222E4B42
S2140813701A700222184B1A7019E02D4B98472D4BFD
S2140813801870022810D12C48A84701232B4A13703E
S214081390224A13700020274B1870234B18700E4BE8
S2140813A018701F4B984702E002220B4B1A700A4B24
S2140813B01B7823700DF10600C821214B98473EE79D
S2140813C0B12C0800380A072074810800F94F080075
S2140813D064810800C1030800988D07209901080059
S2140813E0900A072084810800610A07203C0A072023
S2140813F0810A07206504080098810800340A072037
S214081400AC810800C08108003901072009040800DB
S214081410D0810800F481080024820800800A07208A
S214081420B130080048820800390A0720E50308009A
S21408143015040800510A072058820800A00A072049
S214081440052F0800436913F0020F1DBFC1F30801FA
S214081450C161002001207047436913F0010F05D0D1
S2140814608369C3F308030B600020704701207047A8
S2140814702DE9F0410E461546013802280FD892B1DC
S2140814800024DFF83C800D4FD8F80000315D3B683B
S214081490984700280ADB0134A542F5D10AE04FF048
S2140814A0FF30BDE8F0810020BDE8F0814FF0FF3046
S2140814B0BDE8F0812046BDE8F08100BF9C8D07207E
S2140814C0A08D072010B4AC2303600A684B68B2FBF3
S2140814D0F3F31B095C1E4FF6FE7294420AD80362A9
S2140814E08B68436040F20223C0F820315023036023
S2140814F0002000E001205DF8044B7047436913F0B4
S214081500020F1ABFC161002001207047436913F01B
S214081510010F1DBF83690B7000200120704700BFB4
S2140815202DE9F04182B0144B9847ADF80600DFF875
S2140815306880124D124F002402A840F8084D6846ED
S214081540C047BDF800102980BDF802306B803846C9
S21408155009B20C4EB0470C48B5F90210B0470B4B11
S2140815601C7020460A4B98470DF106004FF49671FA
S214081570084B9847DFE700BFB12C0800A88D072066
S21408158074820800F94F080080820800B00A072015
S214081590B1300800052F08004D03080000000000C1
S2140815A02DE9F04F89B0864B1B68002BB4BF4FF06F
S2140815B0FF320122834B1A60834B1D88834B1E889B
S2140815C005EB06084FEA6808814C4046A047CDE977
S2140815D00001804BC3E900017F4B1A6801321A608C
S2140815E0701BA04702460B467C49C1E900237C498C
S2140815F0D1E90045204629467A4EB04706460F46AA
S214081600794BC3E900672046294600220023774C19
S214081610A047E0B13046394600220023744CA04764
S214081620A8B1002200236E49C1E900236E49C1E92A
S214081630002300206F4908606F49C1E900231FFA9C
S21408164088F8614BA3F80080604BA3F80080644BD1
S214081650D3E9000100220023654CA047E8B1624B9D
S214081660D3E9000100220023604CA047A8B100225D
S21408167000235B49C1E900235B49C1E90023002038
S2140816805C4908605C49C1E900234F4908884F4B0C
S2140816901A88024452080A801A80DFF85C91D9E951
S2140816A00067CDE90267534D494C2868A047DFF824
S2140816B08481DDE90223C047504B98472860504B89
S2140816C0D3E90067CDE90467A04704460D464D4EAA
S2140816D0DDE904014C4BD3E90023B04702460B462C
S2140816E04A4F20462946B847CDE90601484BC3E984
S2140816F000013D4BD3E900AB464BD3E90001DDE9D9
S2140817000423B04704460D4650465946DDE90223F1
S214081710DFF8D0C0E04702460B4620462946B847C1
S21408172004460D463C4BC3E90045DDE90601524632
S2140817305B46C04702460B4620462946C047374BFD
S214081740D3E90023B84704460D46354BC3E90045A0
S214081750C9E900ABDDE90001324BD3E90023B04705
S21408176006460F4612A3D3E90023DFF8CCC0E047AD
S21408177038B93046394610A3D3E900232A4EB04775
S21408178018B18222294B1A8002E0C822274B1A80F9
S214081790204629460022264B144EB04700284DD036
S2140817A00022234B1E49C1E9002353E0AFF3008013
S2140817B0CDCCCCCCCCCCEC3F9A9999999999A93FA9
S2140817C0340A072050010720968D0720948D07209D
S2140817D00D490800880A0720B40A0720580A072077
S2140817E0980A072071460800700A0720F94E080074
S2140817F0BD4E0800A40A0720780A07200D4F0800E7
S214081800580107202D4C080048010720D949080030
S214081810A80A072040010720680A07206801072051
S214081820480A0720F88D0720D14E080060010720D7
S2140818300080514075460800E54E080020462946B7
S2140818400022254B254CA04720B10022224B2449D4
S214081850C1E90023DFF8A4B0224EBBF80000B04769
S214081860DFF87CA0204FDAE90023B84704460D4687
S214081870DFF88C90D9F80000B04702460B46DFF830
S214081880848020462946C04711A3D3E90023B847D9
S214081890164CA047164B9847BBF80000B047DAE945
S2140818A00023144DA84782468B46D9F80000B04757
S2140818B002460B4650465946C04705A3D3E90023BF
S2140818C0B847A0470C4B984709B0BDE8F08F00BF53
S2140818D00000000000709740008051C0BD4E080010
S2140818E0480A07200D490800754608005D4F08009D
S2140818F00511080071460800D51008006001072089
S21408190050010720D949080030B585B00025009554
S2140819100195029503956846174B9847174C2580FE
S2140819206580A5804FF69C73E380154DBDF90000D1
S214081930A847C4E90401BDF90200A847C4E906019E
S214081940BDF90400A847C4E90801BDF90600A84780
S214081950C4E90A01BDF90800A847C4E90C01BDF9A5
S2140819600A00A847C4E90E0100220023C4E9102390
S214081970C4E9122305B030BD89040800A88D0720E5
S2140819800D490800024B1A889A805A88DA807047F0
S214081990A88D07202DE9F04F89B02A48DFF8C880BF
S2140819A0C047294F294EB7F90400B04704460D46EC
S2140819B0B7F90600B04782468B46B7F90000B0472D
S2140819C0CDE90001B7F90200B047CDE90201B7F941
S2140819D00800B047CDE90401B7F90A00B047CDE9D9
S2140819E006012046294652465B46194CA047DFF8B2
S2140819F07C90C8470146174B18601748C047B7F988
S214081A000000B04704460D46B7F90200B0478246C4
S214081A108B46B7F90800B047CDE90001B7F90A00C8
S214081A20B047CDE902012046294652465B460B4C94
S214081A30A047C84701460A4B18600A48C04709B07D
S214081A40BDE8F08F8C820800A88D07200D49080095
S214081A50390F08003C0A072094820800B90C0800D1
S214081A60340A0720A0820800F94F08000D4F080026
S214081A7038B5824B984701286AD1814B1B78012BD1
S214081A800FD18048804B9847804C814DD4E904019B
S214081A90A8472081D4E90601A84760817D4B98476E
S214081AA04DE0022B14D17C48774B98477B4B9847E0
S214081AB0764C0023A380E380754DD4E90801A84737
S214081AC02081D4E90A01A8476081724B984736E01E
S214081AD0032B19D172486C4B9847704B98476B4C40
S214081AE06B4DD4E90401A847A080D4E90601A847AD
S214081AF0E080D4E90C01A8472081D4E90E01A84764
S214081B006081644B98471AE0042B18D165485E4BF1
S214081B109847624B98475D4C5D4DD4E90801A84745
S214081B20A080D4E90A01A847E080D4E91001A847B4
S214081B302081D4E91201A8476081564B9847504C3B
S214081B4059482178504B984723780133237038BD7D
S214081B504B4B1B78012B0CD14C4C4D4DD4E9040152
S214081B60A8472081D4E90601A8476081494B9847D1
S214081B707BE0022B16D1494B9847444C444DD4E998
S214081B800401A8472080D4E90601A8476080D4E964
S214081B901001A8472081D4E91201A84760813D4B6F
S214081BA0984762E0032B16D13C4B9847374C384D84
S214081BB0D4E91001A8472080D4E91201A84760801C
S214081BC0D4E90801A8472081D4E90A01A84760811A
S214081BD0304B984749E0042B16D1304B98472B4C8E
S214081BE02B4DD4E90801A8472080D4E90A01A84764
S214081BF06080D4E91001A8472081D4E91201A847DB
S214081C006081244B984730E0052B16D1234B984724
S214081C101E4C1F4DD4E91001A8472080D4E91201B4
S214081C20A8476080D4E90C01A8472081D4E90E01B2
S214081C30A8476081174B984717E0062B15D1174B16
S214081C409847124C124DD4E90C01A8472080D4E9D5
S214081C500E01A8476080D4E91001A8472081D4E97E
S214081C601201A84760810B4B9847054C0F4821780E
S214081C70054B984723780133237038BD09040800BC
S214081C803A010720B0820800F94F0800A88D0720FF
S214081C900D4F080095190800C48208008519080029
S214081CA0D8820800EC820800008308001083080029
S214081CB02DE9F04F83B08E4B9847ADF80600002408
S214081CC0002589A7D7E900674FF0000A4FF0804B38
S214081CD00DF10600C821874B9847874B1B78072BC2
S214081CE000F29D81DFE813F00800A700CF00470048
S214081CF07A01220076019101804B984701280AD183
S214081D007F4B98477F4B1B78052B8CBF06220122FA
S214081D107D4B1A7083E17A4B98477A4B1B78072BD2
S214081D208CBF06220122784B1A7078E1774B1B7815
S214081D3033B1774B1868774B98470722724B1A705F
S214081D40754B1B784BB1754B1B784BB90022724B01
S214081D501A700122714B1A7061E1704B1B7833B10F
S214081D606F48704B98470422674B1A7057E1032256
S214081D70654B1A7053E16C486A4B98476B4B1B6867
S214081D806B4A106800FB03F06A4B984732463B469E
S214081D90DFF8F8C1E04780468946674BC3E9008903
S214081DA0664BD3E9000152465B46DFF8E4C1E047DC
S214081DB002460B4640464946DFF8D8C1E0470028A9
S214081DC033D040F2DC505E4B984740F2DC505D4B17
S214081DD098475D4BC3E900455C4BC3E90045574B44
S214081DE0C3E900455A4BC3E900450023594A136026
S214081DF0594A1360C821594A11804C4A1360584AF8
S214081E001360584B98470123434A1370564A137079
S214081E10564B1B7813B10122554B1A7001223B4BC7
S214081E201A700522384B1A70F9E0524B984703226D
S214081E30354B1A70F3E050483A4B984701224F4BFF
S214081E401A60444B1B68002B03DA4FF0FF314B4AED
S214081E5011604A4A126802FB03F303EBD370401082
S214081E60344B9847344BC3E9000140F2DC50344BFE
S214081E70984740F2DC50334B98473A4B9847022233
S214081E80214B1A70CBE03E48264B98473D4B1888A6
S214081E903D4B1B8818440130264B9847264BD3E900
S214081EA00023DFF8F4C0E047002877D040F2DC5083
S214081EB0234B984740F2DC50224B9847294B9847CB
S214081EC00022244B1A601C4BC3E900451B4BC3E990
S214081ED00045264B1B7813B10122254B1A700322A6
S214081EE0094B1A709BE000BF333333333333F73F65
S214081EF0B12C0800052F0800500A0720090408001E
S214081F00711A08003A010720008E0720B00A072039
S214081F10D88C0720AD2B0800620A0720600A072025
S214081F202C830800F94F080044830800340A072069
S214081F30500107200D490800F88D0720880A072059
S214081F4005110800D5100800480A0720580A072077
S214081F50700A07203C0A0720A40A07206001072009
S214081F60B40A072019120800800A0720610A072009
S214081F70810A0720A11508004C830800048E072054
S214081F805C830800968D0720948D07202D4C08004A
S214081F9075460800D14E0800E54E0800DFF8B890F0
S214081FA0DFF8B880D9F80030D8F8002002FB03F034
S214081FB000F2DC501C4B9847D9F80030D8F80020BF
S214081FC040F2DC5002FB1300184B98470222184BCD
S214081FD01A7024E01748184B9847FEE7174B1B78EB
S214081FE07BB11748DFF85080C0471648C047002323
S214081FF0154A1370154A1370104A13700C4A13705A
S2140820000DE004220A4B1A7009E0114B1B781BB925
S2140820100022074B1A7002E00722054B1A70044B81
S2140820201A780C4B1A7053E6D510080005110800EC
S214082030008E072064830800F94F0800800A0720EE
S2140820406C83080088830800600A0720400A072077
S214082050B00A0720500A072054010720048E0720DC
S21408206000F1080343604FF6FF720281C360036104
S21408207000230360704700BF00230361704700BF5A
S21408208043685A684A6042688A605A68916059602C
S21408209041600861036801330360704710B40C8818
S2140820A04FF6FF739C4201D103690CE000F1080368
S2140820B0C268128892B2944205D35B685A6812883E
S2140820C092B29442F9D25A684A6091608B6059601D
S2140820D008610368013303605DF8044B704700BF6E
S2140820E0436882689A60836842685A6003695A68D7
S2140820F0824204BF82685A60002202611A68013A66
S2140821001A601868704700BF03480068006880F3C4
S214082110088862B600DF00BF08ED00E04FF0807365
S21408212040F8043C40F8081C002340F80C3C40F8F3
S214082130202C4038704700BF064B19680868B0E87E
S214082140F00F80F309884FF0000080F311884EF0F6
S2140821500D0E7047E08B07204FF08052014B1A6037
S214082160704700BF04ED00E0EFF311804FF0A001C8
S21408217081F311887047002008B5034B9847034B36
S2140821801A6801321A6008BD692108007001072024
S21408219080F31188704700BF08B5044A1368013BEE
S2140821A0136013B90020024B984708BD700107203A
S2140821B091210800EFF309800C4B1A6820E9F00F0C
S2140821C010602DE908404FF0A00080F3118800F059
S2140821D027FF4FF0000080F31188BDE80840196813
S2140821E00868B0E8F00F80F309887047E08B07208E
S2140821F008B54FF08052054B1A60054B9847054BBB
S21408220098470020044B984708BD00BF04ED00E03F
S21408221069210800D12C080091210800034A044BC4
S2140822201A600722043B1A60704700BF1F48010067
S21408223014E000E010B5094B1A6842F470021A6000
S2140822401A6842F070421A60054B98470024054BFE
S2140822501C60054B9847204610BD00BF20ED00E0E7
S2140822601D220800700107200921080030B4134A0F
S2140822701368834201D21A46FAE7114654681519BC
S214082280854203D16868044454601046426884183E
S214082290A3420CD10A4C24689C4206D05B681A44B8
S2140822A042600B681B68036002E0036000E003609E
S2140822B0814218BF086030BC704700BFBC8A072040
S2140822C0B88A072038B50446284B9847284B1B6819
S2140822D09BB9284A284B13600021516047F6F072D4
S2140822E09818234D286047F6F475595199505A6046
S2140822F01860224B1A68103A1A60002C2DD004F188
S214082300100212F0070F1CBF22F007020832511EF7
S21408231047F6FE73994222D816490C6863689A42B3
S21408232004D9236813B121461C46F7E7104B1B68EF
S2140823309C4216D00D68103523680B6063689B1A9C
S214082340202B04D9A018436062600D4B98470B4BAE
S2140823501A686168521A1A6004E0002502E000252F
S21408236000E00025074B9847284638BDA12C0800F2
S214082370B88A0720BC8A0720B80A072074010720F5
S2140823806D220800FD2D080010B5044668B1074BFD
S2140823909847074B196854F80C2C0A441A60A4F19D
S2140823A01000044B9847044B984710BDA12C080012
S2140823B0740107206D220800FD2D080010B504469C
S2140823C0036C3BB903681BBB4068134B9847002354
S2140823D063601DE06AB980681A46104B9847A26881
S2140823E0236C1344A3606268934211D32368A360E6
S2140823F00EE0C0681A46094B9847226C5242E368BA
S2140824001344E36021688B4202D263681A44E26090
S214082410A36B0133A36310BDD9330800215008000D
S21408242038B5034605685DB1026CC4681444C460D8
S2140824304068844228BFDD600846D968014B984743
S21408244038BD00BF21500800F8B504461D4B984714
S214082450A36C002B12DD636A83B104F124061A4DBF
S2140824601A4F01E0636A4BB13046A84700B1B84737
S214082470A36C013BA364A36C002BF3DC4FF0FF3383
S214082480A364134B98470F4B9847636C002B12DDD9
S214082490236983B104F110060B4D0C4F01E0236944
S2140824A04BB13046A84700B1B847636C013B63643C
S2140824B0636C002BF3DC4FF0FF336364044B9847E0
S2140824C0F8BD00BF79210800ED3108002533080063
S2140824D09921080038B50D46044618B9164B984792
S2140824E000BFFDE7154B98472368226CE06B00FB9E
S2140824F002F0191861600021A163A360821A1344D0
S214082500E3604FF0FF336364A36455B923697BB176
S21408251004F110000A4B9847012809D1094B98473F
S21408252006E004F11000084DA84704F12400A84767
S214082530064B9847012038BD692108007921080014
S214082540ED3108005921080061200800992108008B
S214082550F8B50D461746064688B150200E4B9847E4
S214082560044660B105FB06F001300B4B9847206027
S21408257040B92046094B984701E000BFFDE7084BE5
S2140825809847FAE7E663256420460121054B9847F5
S21408259084F84D702046F8BDC52208008923080037
S2140825A069210800D52408002DE9F04F85B08A4631
S2140825B09B46ADF80620044618B9384B984700BF26
S2140825C0FDE709B9036C1BB90027354E354D03E006
S2140825D0324B984700BFFDE7B047A26BE36B9A42C1
S2140825E012D2204651465A462F4B9847636A3BB14B
S2140825F004F124002D4B9847012801D12C4B98470D
S214082600284B9847012046E0BDF806301BB9254BF5
S214082610984700203FE01FB902A8264B9847012795
S214082620A847254B9847B047636CB3F1FF3F04BFF4
S21408263000236364A36CB3F1FF3F04BF0023A364C5
S214082640A84702A80DF106011C4B9847E8B9B04701
S214082650D4F83890D4F83C80A847C1450FD104F187
S2140826601000BDF80610164B98472046154B98479D
S214082670154B98470028AFD10D4B9847ACE7204636
S214082680104B9847104B9847A6E720460D4B98479F
S2140826900D4B9847002005B0BDE8F08F692108006B
S2140826A07921080099210800BD230800ED310800AB
S2140826B05921080071320800A12C08009932080038
S2140826C04131080049240800FD2D08002DE9F04195
S2140826D00E4615469846044618B91C4B984700BF40
S2140826E0FDE729B9036C1BB1184B984700BFFDE7F7
S2140826F0164B98470746A26BE36B9A4218D22046B9
S21408270031464246124B9847A36CB3F1FF3F0AD1B5
S214082710636A7BB104F124000E4B984760B16DB133
S21408272001242C600BE0A36C0133A364012406E0AB
S214082730002404E0012402E0012400E001243846D5
S214082740054B98472046BDE8F08100BF6921080080
S214082750BD230800ED310800912108002DE9F04F4F
S21408276085B089469A46ADF80620044618B9464B01
S214082770984700BFFDE709B9036C2BB90027434EFD
S214082780DFF838B1424D03E03F4B984700BFFDE7FE
S214082790B047A36B002B28D0E568204649463D4B3A
S2140827A09847BAF1000F12D1A36B013BA3632368C5
S2140827B013B9394B98476060236993B104F1100048
S2140827C0364B984701280CD1354B984709E0E56009
S2140827D0636A33B104F12400304B984708B1304B94
S2140827E098472B4B984701204BE0BDF806301BB99D
S2140827F0274B9847002044E017B902A8D847012776
S214082800A847284B9847B047636CB3F1FF3F04BF0F
S21408281000236364A36CB3F1FF3F04BF0023A364E3
S214082820A84702A80DF106011F4B984718BBB047EA
S214082830D4F83880A847B8F1000F16D1236823B912
S214082840B0476068194B9847A84704F12400BDF8BC
S2140828500610174B98472046164B9847164B98472E
S214082860002895D10E4B984792E72046114B98477B
S214082870114B98478CE720460E4B98470E4B9847C7
S214082880002005B0BDE8F08F69210800792108000E
S214082890992108002124080031330800ED3108008A
S2140828A059210800A12C0800993208005D33080059
S2140828B04131080049240800FD2D0800713208003F
S2140828C038B504460D460D4B9847636CB3F1FF3F89
S2140828D004BF00236364A36CB3F1FF3F04BF002367
S2140828E0A364074B9847A36B23B904F12400294631
S2140828F0044B98472046044B984738BD7921080072
S21408290099210800A53108004924080010B5044696
S2140829100F4B1B6898800F4B1B889BB2984207D2B8
S2140829200D4B18680A4B196804310C4B984710BDB4
S2140829300B4B1868064B19680431084B9847094B27
S2140829401B889BB29C423CBF064B1C8010BD00BF38
S214082950E08B0720FC8B0720008C07209D200800B2
S214082960DC8A0720780107202DE9F84F0E4617461F
S2140829709A460A9DDDF83080814618B9624B98471A
S21408298000BFFDE7092D03D95F4B984700BFFDE759
S21408299050205E4B98470446002800F0B180B8F1F6
S2140829A0000F40F0A980B800584B9847206318B924
S2140829B02046574B9847A3E0A521BA00554B9847A1
S2140829C007F18047013F236B03EB870323F0070BD0
S2140829D004F13400314610224F4B9847002384F800
S2140829E04330092D34BF2E460926E662E664271DC5
S2140829F03846DFF87081C04704F11800C0472461E4
S214082A00C6F10A0626836462584649465246434B30
S214082A109847206010F0070F03D03B4B984700BF3D
S214082A20FDE70B9B03B11C603D4B98473D4B1A686E
S214082A3001321A603C4B1B682BBB3B4B1C60394B66
S214082A401B68012B29D1394E06F1C809DFF8E0804A
S214082A503046C04714364E45FAD1DFF80C91484642
S214082A60334EB047DFF804814046B0473148B04798
S214082A703148B0473148B047314BC3F80090314B26
S214082A80C3F8008009E0304B1B6833B9264B1B6837
S214082A90DB6A9D4224BF244B1C60E36A2B4A1268FB
S214082AA0934284BF294A1360294A11686164013138
S214082AB01160284A1268934284BF264A136003EBC3
S214082AC083031A4800EB83003946234B9847234B69
S214082AD098471D4B1B684BB1134B1B68DB6A9D421E
S214082AE007D91F4B98470120BDE8F88F0120BDE89D
S214082AF0F88F0120BDE8F88FC0F8308040465BE7C5
S214082B004FF0FF30BDE8F88F69210800C52208009D
S214082B10892308000D510800115308001D210800DC
S214082B2079210800208C0720E08B0720148B0720CB
S214082B3061200800E48B0720E88A0720C88A072057
S214082B40DC8A0720008C0720E08A0720248C0720D0
S214082B50048C0720108B0720812008009921080084
S214082B605921080079200800088C0720FC8A0720CD
S214082B7008B518B90A4B984700BFFDE742690949E6
S214082B808A4208D1806A084B984206D0D0F10100E4
S214082B9038BF002008BD002008BD002008BD00BFC3
S214082BA069210800C88A0720E48B072038B5044640
S214082BB018B9164B984700BFFDE7154B1B68984297
S214082BC023D0144B98472046134B984701281AD110
S214082BD0251D2846114B9847E36A114A1268934206
S214082BE084BF0F4A136003EB83030E4800EB830091
S214082BF029460D4B9847064B1B68E26ADB6A9A42E1
S214082C0001D30A4B98470A4B984738BD69210800F4
S214082C10E08B072079210800712B0800E1200800C6
S214082C20108B0720148B07208120080059210800E4
S214082C309921080010B584B00023009301930293ED
S214082C4003930F480F494FF480720F4CA047012892
S214082C500ED10E4B984701280AD10D4B98470122F2
S214082C600C4B1A6000220C4B1A800C4B984704E059
S214082C7018B9074B984700BFFDE704B010BD00BF62
S214082C809D2F0800B483080069290800D534080079
S214082C9069210800E08A0720FC8B072035220800F7
S214082CA0024B1A6801321A60704700BFDC8B072097
S214082CB010B5044B9847044B1C88A4B2034B98479E
S214082CC0204610BD79210800FC8B072099210800B2
S214082CD02DE9F0413D4B1B68002B71D13C4B1A88FF
S214082CE0013292B21A801B889BB203BB394B1B6811
S214082CF01B681BB1384B984700BFFDE7354B196872
S214082D00364A106818601160354A1168013111603A
S214082D101B681B6823B94FF6FF72324B1A8006E011
S214082D202C4B1B68DB68DB689A882E4B1A80284B6E
S214082D301A8892B22B4B1B889BB29A4244D3254BD7
S214082D401B681B6853B1234B1B68DB68DC68A388C9
S214082D501F4A128892B2934214D90FE04FF6FF72B8
S214082D60204B1A80BDE8F0811A4B1B68DB68DC68CC
S214082D70A388174A128892B2934207D9194A138031
S214082D80BDE8F081184E194FDFF86C80251D2846DF
S214082D90B047A36A13B104F11800B047E36A3A686B
S214082DA0934288BF3B6003EB830008EB800029460C
S214082DB00F4B9847074B1B681B68002BD4D1CDE7F1
S214082DC00C4B1A6801321A60BDE8F081DC8B0720CC
S214082DD0FC8B0720DC8A072069210800008C072066
S214082DE0F88B072078010720E1200800108B0720C1
S214082DF081200800C48A0720148B07202DE9F84391
S214082E00314B1B681BB9314B984700BFFDE7304B69
S214082E1098472D4B1A68013A1A601B68002B48D150
S214082E202C4B1B68002B46D00025DFF8D4802A4F91
S214082E302A4E1DE0D8F80C30DC6804F11800B847B4
S214082E4004F104094846B847E36A3268934288BFE3
S214082E50336003EB8303224800EB83004946214B8B
S214082E609847214B1B68E26ADB6A9A4228BF01250D
S214082E70D8F80030002BDDD11C4B1B6863B11B4B08
S214082E801B687BB11A4D194CA8472368013B236081
S214082E902368002BF8D105E0012D03D0154B1B68DD
S214082EA0012B0AD10022134B1A60134B98470124B2
S214082EB004E0002402E0002400E000240F4B9847BA
S214082EC02046BDE8F88300BFDC8B07206921080090
S214082ED079210800208C0720E1200800108B0720A5
S214082EE0148B072081200800E08B0720C48A07205F
S214082EF0D12C08001C8C07205921080099210800AD
S214082F00E48B072038B50C46054618B91B4B98477E
S214082F1000BFFDE719B9194B984700BFFDE7184BE6
S214082F2098472B881C44A4B2164A128892B2934239
S214082F3008D9A3421ED9134B1B889BB22C809C42EF
S214082F4010D907E0A34213D80E4B1B889BB29C42AD
S214082F500ED80FE00C4B186804300C4B98472046E8
S214082F600B4B98470B4B984730B90B4B984738BDD7
S214082F702C80EFE72C80F5E738BD00BF69210800F4
S214082F80A12C0800FC8B0720E08B0720E120080016
S214082F900D290800FD2D08005921080080B5154D9B
S214082FA0154EDFF878801CE0144B9847144B1C68C5
S214082FB0144B9847ACB1144B9847114BDB68DC6848
S214082FC0201D124B9847124B1A68013A1A602B6854
S214082FD0013B2B600F4B9847206B0F4FB847204696
S214082FE0B8472B68002BDFD13368012BF9D9C047C7
S214082FF0F7E700BFE48A0720148B0720A12C0800F7
S214083000E88A0720FD2D080079210800E12008003D
S214083010208C0720992108008923080059210800D8
S21408302008B51D4B1B685BB91C4B1B6803EB830379
S2140830309B001B4AD358CBB9184B1B6853B905E0FD
S2140830400122184B1A6008BD1A682AB9164B984709
S21408305000BFFDE7114B12491A68013A1A601A6850
S21408306002EB820251F82220002AEDD00B4B1B6897
S21408307003EB83030A4A02EB83035A6852685A60D2
S21408308003F108018A4204BF52685A605B68DA682E
S214083090064B1A6008BD00BFDC8B0720108B072084
S2140830A0148B07201C8C072069210800E08B07205A
S2140830B070B50446184B9847184B1B689C4203D0BB
S2140830C026462CB9264600E00026144B1C68FFE767
S2140830D0251D2846124B9847A36A1BB104F1180011
S2140830E00F4B98470F4829460F4B98470F4B984762
S2140830F08EB90F4B1B6813B10E4B984770BD094B22
S2140831001A680D4B1B689A4203D10022034B1A60BB
S21408311070BD0A4B984770BD79210800E08B0720E0
S214083120E1200800C88A07208120080099210800A5
S214083130E08A072059210800208C07202130080043
S21408314038B50C4618B90F4B984700BFFDE70E4D2B
S214083150296818310D4B9847286804300C4B984757
S2140831604FF6FF739C4205D129680A4804310A4B7A
S214083170984738BD094B1888204480B2084B9847B2
S21408318038BD00BF69210800E08B07209D20080095
S214083190E1200800C88A072081200800FC8B072049
S2140831A00D29080038B50D4618B90A4B984700BFD0
S2140831B0FDE7094C21681831084B98472068043009
S2140831C0074B9847074B1888284480B2064B984701
S2140831D038BD00BF69210800E08B07208120080061
S2140831E0E1200800FC8B07200D29080038B5C368C5
S2140831F0DC681CB9164B984700BFFDE704F11805B4
S2140832002846144B9847144B1B689BB9251D28461F
S214083210104B9847E36A114A1268934284BF0F4AD4
S214083220136003EB83030E4800EB830029460D4B1F
S214083230984703E00C4829460A4B98470B4B1B68EF
S214083240E06ADB6A984234BF0020012038BD00BF20
S21408325069210800E1200800DC8B0720108B072076
S214083260148B072081200800E48B0720E08B0720BA
S21408327008B518B9054B984700BFFDE7044A126819
S2140832800260044A1288828008BD00BF69210800CF
S214083290F88B0720FC8B072038B50D46044618B96E
S2140832A01A4B984700BFFDE719B9184B984700BF57
S2140832B0FDE7174B98472B884FF6FF7293421CD0B2
S2140832C0144A116822688A4205D0134A128892B2B4
S2140832D0A188914213D9104A1188A288891A89B2FE
S2140832E08B420ED90C49098889B2521A13442B808E
S2140832F020460A4B9847002404E0002402E00124F4
S21408330000E00124064B9847204638BD692108008E
S21408331079210800F88B0720FC8B072071320800FB
S214083320992108000122014B1A6070471C8C07205F
S214083330014B1868704700BFE08B0720054B1B68D9
S21408334033B1054B1B68002B14BF022001207047C1
S21408335000207047E08A0720DC8B072038B5044633
S21408336000282ED0C36A174A1268D26A934228D217
S214083370144A1268D26AC2F10A02028303EB830374
S214083380114A02EB830342699A4216D1051D284664
S2140833900E4B98470B4B1B68DB6AE3620C4A1268B5
S2140833A0934284BF0A4A136003EB8303064800EB84
S2140833B083002946074B984738BD024B1B68DB6AD3
S2140833C0C36238BDE08B0720148B0720E120080075
S2140833D0108B07208120080038B50446D0B1C26A91
S2140833E0C36C9A4216D0051D28460B4B9847E36CCB
S2140833F0E362C3F10A022283084A1268934284BF32
S214083400064A136003EB8303054800EB830029464E
S214083410044B984738BD00BFE1200800108B0720F2
S214083420148B07208120080010B50446818020618F
S21408343091420BD8D31A018B9BB2994211D90B4BE8
S2140834401868211D0A4B9847002010BD9A4201D2E1
S214083450994208D2074B1868211D054B984700204B
S21408346010BD012010BD012010BD00BF5C8C0720D8
S2140834709D200800288C072070B50D4B98470D4BEB
S2140834801B688BB90C4D28460C4EB0470C4C204692
S214083490B0470C4B1D600C4B1C6005200C2100220D
S2140834A00A4B9847034B1860094B984770BD00BFF6
S2140834B079210800588C07202C8C072061200800EA
S2140834C0408C0720288C07205C8C07205125080094
S2140834D09921080010B584B00B4B98470B4B1B6816
S2140834E063B10923009300230193029303930848CA
S2140834F008494FF40072084CA04718B9074B98477C
S21408350000BFFDE704B010BD79340800588C0720CA
S21408351035360800BC8308006929080069210800B8
S21408352010B584B0104C2468D4B10191ADF80820C9
S214083530039073B90D4B984701280B4B186801A9DF
S21408354007BFBDF81820002300221346084CA047E2
S21408355007E0204601A91A460023064CA04700E0CB
S214083560002004B010BD00BF588C07203D3308006B
S214083570A9250800CD2608002DE9F04782B0814627
S214083580244B98478046244B1B88834237D9234EC2
S214083590234F27E0DA68B2F800A01FFA8AFADB6839
S2140835A0DC68251D2846B847636A20469847E369BD
S2140835B0012B17D1238B53449BB2534506D9A380BE
S2140835C0246130682946174B98470BE00023009380
S2140835D0204619465246144CA04718B9134B98472C
S2140835E000BFFDE733681A68002AD3D1104A11686D
S2140835F00A48016013600123C9F8003002E000237E
S214083600C9F80030044BA3F80080404602B0BDE875
S214083610F08700BFB12C0800548C0720288C0720A0
S214083620E12008009D2008002135080069210800CF
S2140836305C8C07202DE9F04387B0514DDFF8708188
S214083640504B1B681A68002A00F09080DB681E88BA
S214083650B6B24D4B984703A84C4B98470746039B72
S214083660002B32D1864225D8494B9847454B1B68D4
S214083670DB68DC68201DC047E369012B15D1218B68
S2140836803144204689B23A463346424FB847012865
S2140836900BD1002300932046194632463E4EB047CB
S2140836A018B93E4B984700BFFDE7636A204698471F
S2140836B00DE00026F11B286889B2394B9847344B31
S2140836C0984720B9374B984701E0314B984702A8EE
S2140836D02E4B98470746344EDFF8B8903EE0059CD8
S2140836E01CB1616909B1201DC0470399022923D07E
S2140836F0032930D0002931D1BDF81030218B194468
S214083700204689B23A46C847012827D1636A204628
S2140837109847E369012B21D1228BBDF810301A4453
S214083720002300932046194692B21B4CA047A8B91E
S2140837301A4B984700BFFDE7BDF8103023831BB926
S214083740164B984700BFFDE7F918204689B23A4657
S2140837503B46C84702E02046144B9847286803A90A
S21408376000221346B0470028B9D169E7064B9847A8
S21408377003A8064B98470746039B002B99D0A4E757
S214083780588C0720288C0720A12C080079350800BB
S214083790FD2D080029340800213508006921080095
S2140837A0C1280800592108005D2708008923080059
S2140837B0E120080010B50E480E4B984700203E2121
S2140837C00D4B98470D4CA0470028FCD00C4B98474B
S2140837D00C4A0D4B9A620D4CA0470028FCD01020CE
S2140837E00B4B98470B4B98470148024B984710BD20
S2140837F000BD0105B1000720593C0800AD3C080093
S214083800BD3C0800013F0D2000060E40CD3C0800D8
S214083810F53B0800E93D080010B54FF400421B4B85
S2140838205A600B201A4CA0470C20A0470D20A04732
S2140838300E20A0473B204FF06051164CA04755205D
S2140838404FF06051A04756204FF06051A0476820BF
S2140838501149A0475C201149A04711484FF4407110
S2140838604FF000620F4B984711204FF00061A047B9
S21408387012204FF00061A0472B204FF00061A047B0
S2140838802A204FF00061A04710BD00BF501A0E4016
S214083890DD3C08009D390800790000280100002852
S2140838A0000E0E40713A080021F00061B1F1405F49
S2140838B00CBF836BC36B13420CBF002001207047FC
S2140838C04264B1F1805F16D004D8C1B1B1F1006F7F
S2140838D00AD013E0B1F1405F11D0B1F1605F0ED0AD
S2140838E0B1F1205F0AD17047036F016F0B4023EADE
S2140838F00203036702E0036F1343036742607047DF
S214083900416412F0010F14BF4166016612F00A0FF7
S21408391014BF0162416212F0020F02D0C0F8801094
S21408392004E012F0080F18BFC0F884104161016067
S214083930704700BF10B44164019C0CB1416600E0BA
S21408394001660BB1016500E041650AB1016300E05C
S2140839504163016101605DF8044B704712F0100F77
S21408396010D0C0F8B01012F0200F14BFC0F8D41052
S214083970C0F8D01012F0400F14BFC0F8C010C0F83E
S214083980C4107047C0F8B410704700BFC36C016419
S214083990704700BFC06C7047806C704770B582B0C7
S2140839A00D46440904F5001404F20774660201F093
S2140839B0F044B4F1205F30D006D8B4F1006F0AD0D6
S2140839C0B4F1805F18D049E0B4F1405F30D0B4F16C
S2140839D0605F2DD042E000F01F000124844030468E
S2140839E04FF0006122461F4B984715F0010F14BF91
S2140839F074663466012032E000F01F00012484401B
S214083A0030464FF080512246164B984715F0010F66
S214083A1014BF74663466012021E000F01F010124FB
S214083A20304604FA01F12A460F4B9847204616E01E
S214083A3000F01F01012405F0605205EA0403009314
S214083A40304604FA01F1B2F1605F14BF0022012289
S214083A50C5F38003054DA847204600E0002002B0C5
S214083A6070BD00BFC13808000139080035390800A4
S214083A70F0B583B007460E46154602F0F044B4F19A
S214083A80205F26D006D8B4F1006F0AD0B4F1805F64
S214083A9013D034E0B4F1405F1FD0B4F1605F1CD09F
S214083AA02DE04FF000613246164B984715F0010F8F
S214083AB014BF7E663E66012022E04FF080513246F3
S214083AC0104B984715F0010F14BF7E663E6601201E
S214083AD016E00D4B9847012012E005F0605205F0FD
S214083AE00103009338463146B2F1605F14BF0022E6
S214083AF00122C5F38003054CA047012000E0002002
S214083B0003B0F0BDC138080001390800353908008F
S214083B102DE9F04104460E46104B984705462046C8
S214083B200F4B9847054017D00E4F07F10C046C371B
S214083B3054F80C3CB3420AD154F8081C294206D063
S214083B4023683046984754F8083C25EA0305BC42E3
S214083B5002D01034002DEBD1BDE8F081953908006D
S214083B6099390800648C0720F8B50B4C2468062C95
S214083B7010D80A4F2601BD19B9516A60AB6006997C
S214083B80E960013404490C6011461A46044B98470C
S214083B900020F8BD0120F8BD608C0720648C072043
S214083BA05D39080008B502480B21024B984708BD46
S214083BB0000E0E40113B080008B502480C21024BC7
S214083BC0984708BD00100E40113B080008B502488B
S214083BD00D21024B984708BD00120E40113B080005
S214083BE008B502480E21024B984708BD00140E403F
S214083BF0113B0800174B1A6B22F07002104318632B
S214083C009B6E13F0080F09D14FF40063114901E0C9
S214083C10013B19D08A6E12F0080FF9D00D4B1A6BBB
S214083C2022F0030242F002021A63986E10F00800AF
S214083C300CD14FF40063074901E0013B08D08A6EB7
S214083C4012F0080FF9D0704701207047002070471F
S214083C500120704700060E4038B111490B6A114A18
S214083C601A40114B13430B6270470D4A136A23F42C
S214083C705C1323F0030343F45C1343F001030902C7
S214083C8089B20B431362936E13F0010FFBD0044AFC
S214083C90136A43F09B7343F480331362704700BF84
S214083CA000060E40FCFFC8FE02003701024B986E65
S214083CB000F48030704700BF00060E404FF00052F8
S214083CC0014B9A62704700BF00060E40024B986E82
S214083CD000F00200704700BF00060E402C2820D8CF
S214083CE01F280DD8124B9A69012383401A40934225
S214083CF019D0012303FA00F00D4B18610020704715
S214083D000B4BD3F808212038012383401A409342EE
S214083D100BD0012303FA00F0054BC3F8000100207E
S214083D20704701207047002070470020704700BF8A
S214083D3000060E40FEE700BF10B51E4B1E4A9A420C
S214083D4003D01E4B1B4A9A4204D31D4B1D4A9A4267
S214083D500FD31AE01C4B1D4CE41A24F00304043459
S214083D600023144814495A581A500433A342FAD167
S214083D70EBE7174B1749C91A21F003011A1D11441E
S214083D80002243F8042F8B42FBD1134A22F06043EB
S214083D9023F07F0311498B6002F16042B2F5801F61
S214083DA003D28A6842F000528A600D4B98470D4B42
S214083DB09847FEE70000072054850800EC0907200E
S214083DC00C8E0720F009072004000720EF090720BB
S214083DD0EC090720078E07200000080000ED00E029
S214083DE0A94F0800553F08003E4B1B6B03F0030322
S214083DF0032B5FD8DFE803F0020E2B2B3A4B5B69E8
S214083E0013F0800F14BF4FF400424FF4FA42374BBA
S214083E101A604FE0334B1B6A13F0807F03D0344A96
S214083E20324B1A6046E0334A304B1A602D4B1B6AF9
S214083E3003F07003102B02D0202B04D03AE02E4A51
S214083E402A4B1A6036E02A4A284B1A6032E0254B7D
S214083E501B6A13F0807F03D0254A244B1A6012E0B1
S214083E60244A224B1A601F4B1B6A03F07003102B60
S214083E7002D0202B04D006E01F4A1C4B1A6002E032
S214083E801B4A1A4B1A60174B1B6B03F00303022BD3
S214083E900DD1144B986A996A144BC0F30A401A68F5
S214083EA000FB0222C9B2B2FBF1F21A6002E0134A22
S214083EB00E4B1A600B4B1B6B03F07003702B07D16D
S214083EC00A4B1A680E49A1FB020252081A6070478C
S214083ED0044B196B054BC1F302111A68CA401A60E5
S214083EE0704700BF00060E40101A0E407C010720DF
S214083EF0001BB70000093D0000127A00001C4E0E99
S214083F00ABAAAAAA094B1B6813B9094A074B1A6039
S214083F10064B1B681A180749914204DB1046034AE9
S214083F201060184670474FF0FF307047D48C072053
S214083F3010AE0720FC7F08204FF0FF30704700BF08
S214083F404FF400534B600020704700BF01207047B5
S214083F500020704730B585B02E4B98472E4B9847B3
S214083F602E4D28462E4CA0472E4B98472E4B98474A
S214083F702E4B98472846A0472D4B98472D4B9847D9
S214083F802D482E492E4CA0472E482F492F4AA04789
S214083F90062300932E4B01930023029303932D4888
S214083FA02D494FF480722D4CA047012802D02C488A
S214083FB0234B9847042300932A4B0193002302932C
S214083FC00393294829494FF48072244CA0470128B6
S214083FD002D027481A4B984703230093254B019392
S214083FE0002302930393244824494FF480721B4C01
S214083FF0A047012802D02248114B98471D4B186845
S214084000204CA047174B1868A0471F4B984700201E
S21408401005B030BDB53708001938080080C3C90197
S214084020010007203D0C08008511080079100800DB
S214084030E102080009190800C4830800CC830800B8
S214084040F94F0800DC830800F483080000840800A1
S214084050E08C0720B11C08000C84080069290800B9
S21408406014840800D88C072021150800348408001A
S2140840703C840800DC8C07202D12080060840800A9
S21408408064840800B1300800352C080000000000E1
S2140840902DE9F04FB64B21F000469E4283B0044609
S2140840A00D4689460FDDB3498E4200F3B38000F013
S2140840B0AE80B9F1000F40F3EF8091A1D1E900017D
S2140840C003B0BDE8F08FAC4B9E4200F3BD80A3F171
S2140840D0DE739E4240F3A7804FF0FF3C22462B46F5
S2140840E020462946CDF804C000F076FC02460B466A
S2140840F082468B4600F070FC83A3D3E9002306466D
S2140841000F4600F069FC82A3D3E9002300F0B2FA58
S21408411032463B4600F060FC7FA3D3E9002300F05C
S214084120A9FA32463B4600F057FC7DA3D3E90023A4
S21408413000F0A0FA32463B4600F04EFC7AA3D3E9DC
S214084140002300F097FA32463B4600F045FC78A379
S214084150D3E9002300F08EFA52465B4600F03CFC9A
S21408416075A3D3E9002382468B463046394600F0CD
S21408417033FC73A3D3E9002300F07AFA32463B46B1
S21408418000F02AFC70A3D3E9002300F071FA324647
S2140841903B4600F021FC6EA3D3E9002300F068FA42
S2140841A032463B4600F018FC6BA3D3E9002300F028
S2140841B05FFA32463B4600F00FFCDDF804C00246C4
S2140841C0BCF1FF3F0B466BD0504659464FEACC062B
S2140841D000F050FA22462B4600F0FEFB674F684B6D
S2140841E037441E44D6E9002300F042FA22462B46FE
S2140841F000F03EFA02460B46D7E9000100F038FA0E
S214084200B9F1000F0CDA01F10045294608E000284C
S2140842103FF44FAF2046294622462B4600F02AFA9E
S21408422003B0BDE8F08F4EA3D3E9002300F022FACE
S2140842300022544B00F060FE00283FF44DAF2046A5
S214084240294603B0BDE8F08F00F0CAF84E4B044686
S2140842509E420D4633DCA3F550239E4200F3A5800C
S21408426002460B4600F006FA0022464B00F000FA1B
S214084270002206460F46204629464FF0804300F0A7
S214084280F9F902460B463046394600F0CFFC4FF0A7
S214084290000C04460D4621E733A1D1E90001BFE72B
S2140842A05046594600F0E6F922462B4600F094FBA5
S2140842B002460B462046294600F0DAF9B0E7334BAB
S2140842C09E4267DC0022324B00F0D2F900220646F6
S2140842D00F46204629462E4B00F07EFB0022294B2F
S2140842E000F0C8F902460B463046394600F09EFCF8
S2140842F04FF0020C04460D46F0E600BFAFF3008010
S214084300182D4454FB21F93F11DA22E33AAD903FC9
S214084310EB0D76244B7BA93F513DD0A0660DB13FEF
S2140843206E204CC5CD45B73FFF8300922449C23F57
S2140843300D5555555555D53F2F6C6A2C44B4A2BF1C
S2140843409AFDDE522DDEAD3F6D9A74AFF2B0B33FE4
S214084350711623FEC671BC3FC4EB98999999C93F5C
S2140843609C7500883CE4377E182D4454FB21F9BF21
S214084370FFFF0F440000F07FFFFFDB3FA884080024
S214084380888408000000F03FFFFFF23FFF7F0340ED
S2140843900000F83F02460B4600200F4900F046FC96
S2140843A04FF0030C04460D4698E600220B4B00F02F
S2140843B05FF9002206460F4620462946074B00F0BE
S2140843C059F902460B463046394600F02FFC4FF0A6
S2140843D0010C04460D4681E60000F0BF0000F03FE1
S2140843E021F00041704700BF2DE9F0478AB0044627
S2140843F00D4600F04FF8DFF898A006469AF9003008
S2140844000F4601330FD02046294600F003F950B175
S2140844104FF000084FF0000942464B462046294612
S21408442000F04CFD20B9304639460AB0BDE8F087A2
S21408443016499AF8006001220023CDE90445CDE923
S214084440024501910092089366B9CDE90689684647
S21408445000F008F980B1089B9BB9DDE906010AB0AF
S214084460BDE8F0874046494642464B4600F0DEFB2C
S214084470022ECDE90601EAD100F090FD2123036063
S214084480E9E700F08BFD089B0360E6E7C8840800B0
S2140844908001072021F0004C2DE9F8434FEA1C5C08
S2140844A0DFF86C814FEA0C5CC44506460F460B469F
S2140844B0024600F08F8000296FDD0F1578D0A7F22E
S2140844C0FF37C3F31303F90743F4801360D4D10FFF
S2140844D04FF0000C01EB43037F1052006546162090
S2140844E04FF400116C189C424FEAD2764FEA42020B
S2140844F002DC1B1B65188C44013806EB43034FEAA5
S2140845005101EFD1804620264FF0004109E023D024
S214084510D40F013E4FEA510104EB43034FEA42022F
S2140845201ED0AB4201EB0804F1DD04F00049B9F1F6
S214084530004F04EB010809D0A9465B1B944288BFCC
S21408454003F1FF33121B08444D46E1E7B8F1000FAC
S214084550F2DB05F10109F0E79442E6D91D46D7E7F4
S2140845601A4304D0431C41D000F0010318444608FF
S2140845704FEA6C031CF0010F03F17F5303F5001399
S21408458018BF46F0004603EB07513046BDE8F883EF
S214084590D10F01EB4303520099E721F00043034390
S2140845A022D051BB0F46D30A153F5205002BFAD02E
S2140845B013F480111DD15B00D80201F10101FAD570
S2140845C0C1F10100C1F1200422FA04F407448A402C
S2140845D0234374E702460B4600F0FEF932463B4694
S2140845E000F048F8BDE8F883BDE8F8830CF1010C44
S2140845F0BEE7202401200021E6E702460B4600F02D
S21408460037F802460B4600F011FBBDE8F88300BFFA
S2140846100000F07F31F0004310B408D00F4AA3F52D
S214084620801494420AD804205DF8044B704700288A
S2140846300CBF022003205DF8044B7047B3F5801FBB
S21408464001D20320F7E7064A934201D00020F2E79A
S214084650D0F1010038BF0020EDE700BFFFFFDF7F85
S2140846600000F07F0020704781F0004102E000BFA4
S21408467083F0004330B54FEA41044FEA430594EA15
S214084680050F08BF90EA020F1FBF54EA000C55EA50
S214084690020C7FEA645C7FEA655C00F0E2804FEA21
S2140846A05454D4EB5555B8BF6D420CDD2C4480EA03
S2140846B0020281EA030382EA000083EA010180EA33
S2140846C0020281EA0303362D88BF30BD11F0004F81
S2140846D04FEA01314FF4801C4CEA113102D04042B7
S2140846E061EB410113F0004F4FEA03334CEA1333F2
S2140846F002D0524263EB430394EA050F00F0A7800A
S214084700A4F10104D5F1200E0DDB02FA0EFC22FA04
S21408471005F2801841F1000103FA0EF2801843FAF8
S21408472005F359410EE0A5F120050EF1200E012AE9
S21408473003FA0EFC28BF4CF0020C43FA05F3C01827
S21408474051EBE37101F0004507D54FF0000EDCF1A0
S214084750000C7EEB00006EEB0101B1F5801F1BD349
S214084760B1F5001F0CD349085FEA30004FEA3C0C4D
S21408477004F101044FEA445212F5800F80F09A8043
S214084780BCF1004F08BF5FEA500C50F1000041EB47
S214084790045141EA050130BD5FEA4C0C404141EB4B
S2140847A0010111F4801FA4F10104E9D191F0000F72
S2140847B004BF01460020B1FA81F308BF2033A3F1F5
S2140847C00B03B3F120020CDA0C3208DD02F1140CEC
S2140847D0C2F10C0201FA0CF021FA02F10CE002F127
S2140847E01402D8BFC2F1200C01FA02F120FA0CFC20
S2140847F0DCBF41EA0C019040E41AA2BF01EB045169
S214084800294330BD6FEA04041F3C1CDA0C340EDC66
S21408481004F11404C4F1200220FA04F001FA02F3A9
S21408482040EA030021FA04F345EA030130BDC4F167
S2140848300C04C4F1200220FA02F001FA04F340EA5C
S2140848400300294630BD21FA04F0294630BD94F00D
S214084850000F83F4801306BF81F480110134013DF4
S2140848604EE77FEA645C18BF7FEA655C29D094EA65
S214084870050F08BF90EA020F05D054EA000C04BFE3
S2140848801946104630BD91EA030F1EBF00210020CE
S21408489030BD5FEA545C05D14000494128BF41F06D
S2140848A0004130BD14F580043CBF01F5801130BDD1
S2140848B001F0004545F0FE4141F470014FF000005C
S2140848C030BD7FEA645C1ABF194610467FEA655C0D
S2140848D01CBF0B46024650EA013406BF52EA0335AF
S2140848E091EA030F41F4002130BD00BF90F0000F9D
S2140848F004BF0021704730B54FF4806404F13204D9
S2140849004FF000054FF0000150E700BF90F0000F91
S21408491004BF0021704730B54FF4806404F13204B8
S21408492010F0004548BF40424FF000013EE700BF88
S21408493042004FEAE2014FEA31014FEA02701FBF18
S21408494012F07F4393F07F4F81F06051704792F0EA
S214084950000F14BF93F07F4F704730B54FF4607464
S21408496001F0004521F0004120E700BF50EA0102AF
S21408497008BF704730B54FF000050AE050EA01025C
S21408498008BF704730B511F0004502D5404261EBCC
S21408499041014FF4806404F132045FEA915C3FF40D
S2140849A0DCAE4FF003025FEADC0C18BF03325FEAA6
S2140849B0DC0C18BF033202EBDC02C2F1200300FA5B
S2140849C003FC20FA02F001FA03FE40EA0E0021FA80
S2140849D002F11444C1E600BF70B54FF0FF0C4CF46A
S2140849E0E06C1CEA11541DBF1CEA135594EA0C0F20
S2140849F095EA0C0F00F0DEF82C4481EA030621EA5B
S214084A004C5123EA4C5350EA013518BF52EA033595
S214084A1041F4801143F4801338D0A0FB02CE4FF047
S214084A200005E1FB02E506F00042E0FB03E54FF077
S214084A300006E1FB03569CF0000F18BF4EF0010E6F
S214084A40A4F1FF04B6F5007F64F5407404D25FEA6B
S214084A504E0E6D4146EB060642EAC62141EA55511E
S214084A604FEAC52040EA5E504FEACE2EB4F1FD0C60
S214084A7088BFBCF5E06F1ED8BEF1004F08BF5FEADE
S214084A80500E50F1000041EB045170BD06F0004690
S214084A9046EA010140EA020081EA0301B4EB5C043D
S214084AA0C2BFD4EB0C0541EA045170BD41F4801135
S214084AB04FF0000E013C00F3AB8014F1360FDEBF5A
S214084AC0002001F0004170BDC4F10004203C35DA36
S214084AD00C341BDC04F11404C4F1200500FA05F3B9
S214084AE020FA04F001FA05F240EA020001F000425A
S214084AF021F0004110EBD37021FA04F642EB0601D0
S214084B005EEA430E08BF20EAD37070BDC4F10C04F9
S214084B10C4F1200500FA04F320FA05F001FA04F2BD
S214084B2040EA020001F0004110EBD37041F10001A9
S214084B305EEA430E08BF20EAD37070BDC4F12005B4
S214084B4000FA05F24EEA020E20FA04F301FA05F21C
S214084B5043EA020321FA04F001F0004121FA04F2C4
S214084B6020EA020000EBD3705EEA430E08BF20EA94
S214084B70D37070BD94F0000F0FD101F000464000CE
S214084B8041EB010111F4801F08BF013CF7D041EA50
S214084B90060195F0000F18BF704703F00046520054
S214084BA043EB030313F4801F08BF013DF7D043EA25
S214084BB00603704794EA0C0F0CEA135518BF95EADB
S214084BC00C0F0CD050EA410618BF52EA4306D1D162
S214084BD081EA030101F000414FF0000070BD50EA81
S214084BE0410606BF1046194652EA430619D094EA0B
S214084BF00C0F02D150EA013613D195EA0C0F05D1F5
S214084C0052EA03361CBF104619460AD181EA030148
S214084C1001F0004141F0FE4141F470014FF0000000
S214084C2070BD41F0FE4141F4780170BD70B54FF09B
S214084C30FF0C4CF4E06C1CEA11541DBF1CEA13551B
S214084C4094EA0C0F95EA0C0F00F0A7F8A4EB0504FD
S214084C5081EA030E52EA03354FEA013100F08880F4
S214084C604FEA03334FF0805545EA131343EA1263BD
S214084C704FEA022245EA111545EA10654FEA002672
S214084C800EF000419D4208BF964244F1FD0404F52B
S214084C90407402D25B084FEA3202B61A65EB030587
S214084CA05B084FEA32024FF480104FF4002CB6EB44
S214084CB0020E75EB030E22BFB61A754640EA0C00C4
S214084CC05B084FEA3202B6EB020E75EB030E22BF04
S214084CD0B61A754640EA5C005B084FEA3202B6EB45
S214084CE0020E75EB030E22BFB61A754640EA9C0004
S214084CF05B084FEA3202B6EB020E75EB030E22BFD4
S214084D00B61A754640EADC0055EA060E18D04FEA91
S214084D10051545EA16754FEA06164FEAC30343EA31
S214084D2052734FEAC2025FEA1C1CC0D111F4801FFE
S214084D300BD141EA00014FF000004FF0004CB6E7F7
S214084D4011F4801F04BF01430020B4F1FD0C88BF96
S214084D50BCF5E06F3FF6AFAEB5EB030C04BFB6EBA1
S214084D60020C5FEA500C50F1000041EB045170BD94
S214084D700EF0004E4EEA113114EB5C04C2BFD4EBC1
S214084D800C0541EA045170BD41F480114FF0000E45
S214084D90013C90E645EA060E8DE60CEA135594EAC1
S214084DA00C0F08BF95EA0C0F3FF43BAF94EA0C0FC4
S214084DB00AD150EA01347FF434AF95EA0C0F7FF439
S214084DC025AF104619462CE795EA0C0F06D152EA8D
S214084DD003353FF4FDAE1046194622E750EA410671
S214084DE018BF52EA43067FF4C5AE50EA41047FF482
S214084DF00DAF52EA43057FF4EBAE12E74FF0FF3CE7
S214084E0006E000BF4FF0010C02E000BF4FF0010CB7
S214084E104DF804CD4FEA410C7FEA6C5C4FEA430C30
S214084E2018BF7FEA6C5C1BD001B050EA410C0CBF7F
S214084E3052EA430C91EA030F02BF90EA020F0020E1
S214084E40704710F1000F91EA030F58BF994208BF48
S214084E5090422CBFD8176FEAE37040F00100704705
S214084E604FEA410C7FEA6C5C02D150EA013C07D15C
S214084E704FEA430C7FEA6C5CD6D152EA033CD3D0A7
S214084E805DF8040B704700BF8446104662468C46A1
S214084E901946634600E000BF01B5FFF7B7FF0028D4
S214084EA048BF10F1000F01BD4DF808EDFFF7F4FFFD
S214084EB00CBF012000205DF808FB00BF4DF808ED88
S214084EC0FFF7EAFF34BF012000205DF808FB00BFAB
S214084ED04DF808EDFFF7E0FF94BF012000205DF8CD
S214084EE008FB00BF4DF808EDFFF7CEFF94BF012082
S214084EF000205DF808FB00BF4DF808EDFFF7C4FF7B
S214084F0034BF012000205DF808FB00BF4FEA4102CD
S214084F1012F5001215D211D56FF47873B3EB6252FE
S214084F2012D94FEAC12343F0004343EA505311F025
S214084F30004F23FA02F018BF404270474FF00000B7
S214084F40704750EA013005D111F0004008BF6FF0F5
S214084F50004070474FF00000704700BF4A0011D26B
S214084F6012F5001211D20DD56FF47873B3EB6252B6
S214084F700ED44FEAC12343F0004343EA505323FAC2
S214084F8002F070474FF00000704750EA013002D137
S214084F904FF0FF3070474FF000007047014B18681D
S214084FA0704700BFB005072070B50F4E0F4D761B33
S214084FB0B61007D0043D0024013455F8043F98473E
S214084FC0A642F9D10A4E0B4D03F0AEFA761BB61080
S214084FD008D0043D0024013455F8043F9847A642FB
S214084FE0F9D170BD70BD00BF34850800348508004F
S214084FF03C850800348508000FB410B5074B82B00E
S21408500004AC54F8042B186823468168019400F011
S214085010EDF902B0BDE8104004B07047B0050720AF
S214085020844641EA000313F0030349D1403A23D3E8
S2140850300B6803604B6843608B688360CB68C3600B
S2140850400B6903614B6943618B698361CB69C361F3
S2140850500B6A03624B6A43628B6A8362CB6AC362DB
S2140850600B6B03634B6B43638B6B8363CB6BC363C3
S21408507040304031403ADBD230320BD30B68036005
S2140850804B6843608B688360CB68C3601030103110
S214085090103AF3D20C3205D351F8043B40F8043BDF
S2140850A0043AF9D2043208D0D2071CBF11F8013BE3
S2140850B000F8013B01D30B8803806046704700BFA9
S2140850C0082A13D38B07B1D010F00303AED0C3F170
S2140850D00403D21ADB071CBF11F8013B00F8013B9A
S2140850E0A4D331F8023B20F8023B9FE7043AD9D311
S2140850F0013A11F8013B00F8013BF9D20B7803702E
S2140851004B7843708B78837060467047F0B484079A
S21408511043D0541E002A3ED0CDB2034603E0621E9A
S214085120002C38D0144603F8015B9A07F7D1032CF5
S2140851302AD9CDB245EA05250F2C45EA054515D9E5
S214085140A4F110073F0903F1100606EB07161A46E6
S214085150156055609560D5601032B242F8D104F0FB
S2140851600F040137032C03EB07130DD91E462246FE
S214085170043A032A46F8045BFAD8221F22F00302F0
S2140851800432134404F003042CB1C9B21C4403F8D7
S214085190011BA342FBD1F0BC704714460346C6E782
S2140851A000290CBF022200224FF4806300F000B8EA
S2140851B02DE9F0413C4D04462D68884616461F46A4
S2140851C015B1AB6B002B4FD0022E30D8002F2EDB3C
S2140851D02846214601F088F8A38900226260A26169
S2140851E01A0628D423F083039BB2022EA3812DD05F
S2140851F0B8F1000F3CD0012E13D09BB203F0080084
S2140852002A4A80B2EA63C4F80080C4F8108067614E
S21408521078B113F0030F18BF0027A7600020BDE879
S214085220F08143F001037A42A381A261E5E74FF0DB
S214085230FF30BDE8F0812846216901F0B5F9A38959
S214085240022E23F083039BB2A381D1D1002004F160
S214085250430243F0020300250121A381A5602260D2
S21408526022616161BDE8F081284601F059F8ABE794
S214085270002F08BF4FF48067384601F08BFC804645
S21408528028B1A38943F080039BB2A381B3E74FF408
S214085290806001F07FFC804618B9A3894FF0FF3084
S2140852A0D5E74FF48067ECE7B005072015630800DC
S2140852B020F0030110F00300C0F1000051F8043B91
S2140852C000F1040C4FEACC0C6FF000021CBF22FA67
S2140852D00CF213434FF0010C4CEA0C2C4CEA0C4C25
S2140852E0A3EB0C0222EA030212EACC1204BF51F81E
S2140852F0043B0430F4D013F0FF0F1FBF013013F443
S2140853007F4F013013F47F0F18BF0130704700BF7E
S21408531040EA01039B0770B42AD1032A28D90C4611
S2140853200346214654F8045BA5F1013626EA05062D
S21408533016F0803F05D1043A032A43F8045B214659
S214085340EFD89AB10C78013A1C7001333CB16AB1B7
S21408535011F8014F013A03F8014B002CF7D12AB196
S2140853601A44002103F8011B9342FBD170BC704716
S2140853700346E6E74B6E2DE9F0479C040E4680464A
S21408538091462AD59368126802F1080A1BB31AE9EF
S214085390A000BF0817D0043D002401E0A74210D0A3
S2140853A0404655F8041F324601F050F8431C04F1F5
S2140853B00104F3D10023C9F80830C9F80430BDE861
S2140853C0F087D9F80830A3EB8703C9F808300AF144
S2140853D0080A002BDBD10020ECE701F0B1F9002326
S2140853E0C9F80830C9F80430BDE8F0872DE9F04F51
S2140853F0B1B01C46029190460893069018B1836B8C
S214085400002B00F0E880029DAB899AB2900407D47E
S2140854106A6E43F4005322F40051AB819AB269666F
S214085420110740F1B780DDF808B0DBF81030002B24
S21408543000F0B08002F01A020A2A00F0B7800023B3
S2140854400DF180090A93159314930993CDF84C909F
S2140854504E4698F80030002B00F0C884252B00F044
S214085460C58408F1010201E0252B04D01378144600
S2140854700132002BF8D1C8EB040595B1149B159A98
S21408548001332A44072BC6F80080756015921493DA
S2140854907BDD002A40F0D5840998149228444E46AD
S2140854A009902378002B00F0ED8300214FF00002CE
S2140854B04FF0FF3C63788DF8472004918A4604F144
S2140854C001080846654608F10108A3F12002582A93
S2140854D000F2D982DFE812F0CB02D702D702D20256
S2140854E0D702D702D702D702D702D70282028F0284
S2140854F0D70284009302D7022B01960196019601E3
S214085500960196019601960196019601D702D70252
S214085510D702D702D702D702D702D702D702D702B6
S2140855203001D702D702D702D702D702D702D7024E
S214085530D702D702D7027B01D702D702D702D702F3
S214085540D702A401D702D702BF01D702D702D702D3
S214085550D702D702D702D702D702D702D702E4016A
S214085560FA01D702D702D7021602FA01D702D702E3
S2140855701B02D7022802890066027D02D7023A0279
S214085580D7021901D702D702AF020836099828446D
S214085590099086E70698029900F090FDB0B9029D3A
S2140855A0AA8902F01A020A2A7FF449AFDDF808B081
S2140855B0BBF90E30002BFFF642AF06985946424616
S2140855C0234600F03DFD31B0BDE8F08F4FF0FF30C8
S2140855D031B0BDE8F08F00F0A3FE14E74042089310
S2140855E04AF0040A98F800306DE71AF02003049091
S2140855F0AC4600F0F480DDF820B00BF1070323F08A
S214085600070303F108040894D3E9004500234FF084
S214085610000000218DF84700CDF814C00791BCF1B2
S214085620000FA8BF2AF0800A54EA050240F0AD80B1
S214085630BCF1000F40F0A980002B40F0C0831AF0A0
S214085640010F00F0BC83302330AF07F8413DC7EBAD
S21408565009040594DDF814B0079CE345B8BFE34693
S214085660CDF80CB01CB10BF1010BCDF80CB01AF04C
S2140856700205079505D0DDF80CB00BF1020BCDF846
S2140856800CB01AF084030B9340F01B82049DDDF8DF
S2140856900CB0CBEB0504002C40F31382102C40F31F
S2140856A08984BE4D159A2B46149825464FF0100B44
S2140856B06446B4461E4606E0831C0CF1080C0846F1
S2140856C0103D102D11DD411C1032072915928CE86B
S2140856D040081491F0DD002A40F0E681103D102DB8
S2140856E04FF001031046CC46EDDC31466646A4462C
S2140856F02C460D462244072B159235607460149389
S21408570000F36D830836591CDEE11AF0200F04906A
S214085710AC4600F08D80089DEB1D23F0070303F1CF
S214085720080BD3E90045CDF820B001236FE74AF00F
S214085730800A98F80030C6E64AF0100A1AF0200FD9
S2140857400490AC468DF8471000F0C880089CE11D10
S21408575021F00701D1E900230831089114461D46B7
S214085760002A73F1000BC0F2CE83BCF1000F9DF83F
S2140857704700A8BF2AF0800A54EA05020790CDF829
S21408578014C04FF001033FF453AF012B00F0198308
S214085790022B0DF17F0340F04C82DDF828B0194645
S2140857A004F00F0022091BF8000042EA05722B09D4
S2140857B0087052EA03000F4614461D4601F1FF31F1
S2140857C0EED1CDE90E23C7EB0903059342E74AF06D
S2140857D0100A1AF020030490AC467FF40CAF1AF0B7
S2140857E0100240F011831AF0400300F00D83DDF834
S2140857F020B01346BBF800400BF1040B0025CDF88B
S21408580020B004E7A3F13002002018F8013B00EBB3
S214085810800002EB4000A3F13002092AF5D954E6CD
S2140858204AF0100A1AF0200F0490AC467FF473AFC3
S2140858301AF0100F40F0EF821AF0400F00F0EB82DB
S214085840DDF820B00025BBF800400BF1040B01235F
S214085850CDF820B0DBE6AC46514D1AF0200F049088
S2140858608DF847100A9500F0F080089DEA1D22F092
S214085870070202F1080BCDF820B0D2E900451AF06D
S214085880010F00F0AA8254EA050B00F0A682302227
S2140858908DF849304AF0020A8DF848200223B6E609
S2140858A0089BDDF820B01B6801244FF000050BF1BB
S2140858B0040B049003948DF847508DF85830CDF8B3
S2140858C020B0059416AF4FF0000CD0E61AF0200F63
