S013000054657374536368656D61312E73726563EF
S214080000E8AD072049370800453708004537080097
S2140800104537080045370800453708000000000047
S214080020000000000000000000000000491B080057
S2140800304537080000000000C51B0800011C080022
S2140800404537080045370800453708004537080093
S2140800504537080045370800453708004537080083
S214080060453708004537080000000000B535080089
S214080070C9350800DD350800F13508000000000025
S21408008000000000453708004537080045370800D7
S2140800904537080045370800453708004537080043
S2140800A045370800000000004537080045370800B7
S2140800B04537080045370800453708004537080023
S2140800C04537080045370800453708004537080013
S2140800D04537080045370800453708004537080003
S2140800E045370800453708004537080045370800F3
S2140800F04537080010B5054C237833B9044B13B1BF
S2140801000448AFF300800123237010BDE8090720D8
S21408011000000000647C080008B5064B1BB10648C2
S2140801200649AFF300800648036813B1054B03B1D0
S214080130984708BD00000000647C0800EC0907200A
S214080140647C08000000000070B50C480C4B98470B
S2140801500C4C2023237078236370A3700A4E022069
S21408016021463246094DA847032021463246A8476D
S214080170042021463246A84770BD00BF987908007B
S214080180F1490800080A0720040A0720F5060800AF
S21408019008B5024B9847024B984708BD2906080041
S2140801A04901080010B582B0002424238DF80430D5
S2140801B078238DF805308DF8063001A80221094B02
S2140801C09847ADF800408DF8024068460221064B75
S2140801D098479DF8014005482146054B9847204614
S2140801E002B010BD75060800BD060800AC79080008
S2140801F0F149080008B5054B22221A705870782273
S2140802009A7018460249034B984708BD080A072003
S214080210040A07209D0708002DE9F0410C46904681
S21408022060B9002A0EDD8F18094E0A4D306821463F
S2140802302B6898470134BC42F8D106E04FF0FF30EF
S214080240BDE8F0810020BDE8F0814046BDE8F081B9
S2140802505C8D0720D88C0720F0B48CB007460E4675
S21408026001AC124D0FCD0FC40FCD0FC495E8070093
S21408027084E807006A46002352F8044FB6FBF4F4F5
S214080280B4FBF7F4B4F5807F03D901330B2BF3D115
S21408029004E00A2B05D844EA032004E04FF6FF7072
S2140802A001E04FF6FF700CB0F0BC7047C479080048
S2140802B070B506460C46086840B189680B4B9847E7
S2140802C005464FF6FF73984201D10EE00025606898
S2140802D040B1A168054B98474FF6FF73984204D083
S2140802E045EA00453560002070BD70BD590208001B
S2140802F070B40B688C8A4A6802F00F0214430D89A2
S2140803002C438A7A44EA42248A7D44EA0244CA7D17
S21408031044EA42440A7E44EA824400EB4312C2F8A6
S2140803200042CC68C2F804420C69C2F80C428A7DC6
S2140803303AB18C8B4A8B42EA044400EB4312C2F86B
S2140803401842856C4FF001129A40D2431540CE7F72
S2140803509E408C7F9C4044EA06442C438464446C4C
S214080360224091F821509D4091F820409C4044EA54
S21408037005442243426401229A4091F822401CB167
S214080380046A1443046203E0046A24EA020404626A
S21408039091F82440012C846E0CBF14439443846661
S2140803A091F82540012C846E0CBF44EA024224EAE8
S2140803B002428266032B0CD8C46EDB00FF229A40EA
S2140803C024EA020291F8231001FA03F31343C366E2
S2140803D00CE0043B046FDB00FF229A4024EA02028A
S2140803E091F8231001FA03F313430367002070BC47
S2140803F0704700BF10B40C680B69934206D3CA60F6
S21408040000EB4410C0F80822002001E04FF6FF7009
S2140804105DF8044B704700BF012303FA01F1416001
S214080420704700BF012303FA01F18160704700BFDF
S2140804300F4B994219D84900B2FBF1F2043AFF2A49
S21408044007D9002301335208FF2A03D9072BF9D10D
S21408045000E00023110289B21B0403F4E0230B43D7
S214080460D2B21A430261002070470120704700BFCD
S214080470801A060038B504460D464FF0FF338362EF
S214080480036A80230360036B08230360202303604A
S2140804900423036049682A68054B9847012814BF57
S2140804A0002001206B7A012B04BF4023236038BD4F
S2140804B0310408002DE9F0030446CB688E68002B4B
S2140804C049D0002242604868000200F4407040F4B8
S2140804D080500D7C2D0405F4FE0528436060E2601C
S2140804E04A685AB10878012AC4BF4D7845EA002000
S2140804F0022A04DD8A7842EA002000E00020E06054
S214080500012B04D1032222604FF0010C2BE00122BC
S21408051022604FF0000C26E0216A11F4807F1CD17F
S214080520551EE2B12A46012B05D1BCF1000F02D1B7
S214080530C4F80090C44611F0020F04D0226B327043
S214080540013B01363A46002BE6D1236A13F0010F29
S214080550FBD0236A14E0012012E0052010E00920F1
S2140805600EE005200CE0216A11F48070F9D143F6FC
S21408057097224FF002094FF0010843F69827D2E772
S214080580BDE8F003704700BF70B40346CA688868C1
S214080590002A3FD000245C600E7C360406F4FE0673
S2140805A04D682D0205F4407535435D60DC604C6887
S2140805B05CB10D78012CC4BF4E7846EA0525022C9E
S2140805C004DD897841EA052500E00025DD600BE0BA
S2140805D0196A11F4807F1FD111F0040FF8D010F8B3
S2140805E0011B5963013A07D0196A11F4807F15D1A7
S2140805F011F0040FF3D1EBE71A6A12F480700FD1EA
S21408060012F0040FF8D002221A601A6A12F0010FCC
S214080610FBD006E0012004E0052002E0052000E00B
S214080620052070BC704700BF00B585B00A4B029322
S2140806300A4B019300238DF80D301620084B984777
S214080640084801A9084B984710B90848084B984726
S21408065005B05DF804FB00BFA086010000BD0105DB
S214080660ED36080000C0084075040800F079080058
S214080670F149080070B504460D460B4821786278A3
S214080680A3780A4EB047022D14BF01210321084B58
S21408069000221A705A705A601D749C60D96005480A
S2140806A01946054B984770BD087A0800F1490800B6
S2140806B0DC8C072000C008408905080070B50229B0
S2140806C014BF05240324084B00221A705A705A6077
S2140806D019749860DC60054E1D46054C3046294660
S2140806E0A0470028FAD170BDF08C072000C008404B
S2140806F0B504080010B5144620220A70487002286F
S21408070002D150238B7008E0032802D150238B7047
S21408071003E0042804BF01238B7008460221034B1C
S214080720984720460221024B984710BD75060800D8
S214080730BD06080008B5222303700221014B98471E
S21408074008BD00BF7506080008B5212303700221FE
S214080750014B984708BD00BF7506080010B50C4643
S214080760242303700221034B984720460221024B9C
S214080770984710BD75060800BD06080010B50C465B
S214080780232303700221034B984720460221024B7D
S214080790984710BD75060800BD06080008B503781A
S2140807A0213B042B12D8DFE803F00306090C0F00E0
S2140807B0074B984708BD074B984708BD064B984710
S2140807C008BD064B984708BD054B984708BD00BFAF
S2140807D049070800350708007D0708005D07080078
S2140807E049010800F0B583B004460D46002301937E
S2140807F01F4B984207D11F461E4E38462946B0471B
S2140808000028FAD119E01C4B984209D11F461B4E06
S214080810384601A9B0470028FAD1019B2B7019E089
S214080820174B984209D11E46144C304601A9A047DA
S2140808300028FAD1019B2B7018E0124B9C4209D174
S2140808401E460E4C304601A9A0470028FAD1019B47
S2140808502B700BE00C4B9C4208D11E46074C3046CA
S21408086001A9A0470028FAD1019B2B7003B0F0BD60
S21408087000080E406510080000800940B10F080007
S21408088000C0094000000A4000400A4070B50C4607
S214080890214B984207D11E46204D30462146A84790
S2140808A00028FAD12BE01E4B984207D11E461D4D54
S2140808B030462146A8470028FAD122E01A4B98422B
S2140808C007D11E46174D30462146A8470028FAD1BC
S2140808D019E0164B984207D11E46124D304621465F
S2140808E0A8470028FAD110E0114B98420FD11E46AF
S2140808F00C4D30462146A8470028FAD109E00120C9
S21408090070BD012070BD012070BD012070BD0020A3
S21408091070BD012070BD00BF00080E4055100800CD
S214080920008009409D0F080000C0094000000A40EA
S21408093000400A4030B585B00820124DA847124C32
S214080940124B1C60124A134B1A60134A134B1A6058
S214080950134B01934FF4E13302934FF40063039370
S2140809600820A847204601A90E4B98470E4D2B682D
S214080970986800210D4CA0472B6858680021A047AE
S21408098005B030BDED36080000080E405C8D072027
S2140809908D080800588D0720E5070800D88C072022
S2140809A000BD01051D100800A8050720994B080082
S2140809B02DE9F84F06460F4614461D46DFF854A0A4
S2140809C0DDE90A0132463B46D04780468946DDE9DE
S2140809D00C0122462B46D04704460D46DFF838A0C1
S2140809E0DFF838B04046494642464B46D0470646AA
S2140809F00F462046294622462B46D04702460B4637
S214080A0030463946D847024B9847BDE8F88F00BFAE
S214080A10E13D080069400800D14308006D40080021
S214080A202DE9F04104460D4616461F46DFF8F481C8
S214080A30DDE9060122462B46C04704460D46DDE999
S214080A40080132463B46C04706460F46204629461A
S214080A5000220023DFF8A8C1E047A8B1304639468F
S214080A6000220023664CA047002840F0AA803046A3
S214080A70394600220023634CA047002800F0A580D2
S214080A8000200021BDE8F0813046394600220023C8
S214080A90DFF86CC1E04760B12046294600220023F3
S214080AA0584CA047002800F0948000205649BDE81E
S214080AB0F0812046294600220023DFF848C1E04797
S214080AC0B0B13046394600220023DFF838C1E04787
S214080AD0B0B12046294632463B464C4CA0474C4BC4
S214080AE0984743A3D3E900234A4CA047BDE8F081C2
S214080AF02046294600220023DFF808C1E047D0B187
S214080B003046394600220023DFF81CC1E04790B182
S214080B102046294632463B463C4CA0473C4B984725
S214080B2033A3D3E900233B4CA04700223A4B3B4C67
S214080B30A047BDE8F0812046294600220023DFF8BA
S214080B40E8C0E047D0B13046394600220023DFF837
S214080B50D8C0E047D0B12046294632463B462B4C03
S214080B60A0472B4B984722A3D3E90023294CA0473C
S214080B700022294B294CA047BDE8F081204629468B
S214080B8000220023DFF8A0C0E04738B330463946D5
S214080B9000220023DFF86CC0E04718B32046294639
S214080BA032463B46194CA047194B984710A3D3E941
S214080BB00023184CA0470022194B184CA047BDE844
S214080BC0F08100200021BDE8F08100201249BDE830
S214080BD0F08109A1D1E90001BDE8F08100200021DB
S214080BE0BDE8F08100200021BDE8F081AFF3008069
S214080BF0F8C1631ADCA54C400000000000E0704015
S214080C00A1480800F148080000805640254608001C
S214080C10893A0800D1430800008066406D40080005
S214080C200080764069400800B5480800AFF30080A9
S214080C302DE9F04784B0DDE90C45DDE90E89CDE9FC
S214080C400045CDE90289DFF88CA0D04706460F4656
S214080C50DDE91023CDE90023DDE91223CDE90223DF
S214080C602046294642464B46D04732463B46124C1B
S214080C70A04704460D460022104B114EB04738B127
S214080C802046294600220F4B0B4CA04704460D462B
S214080C902046294600220C4B0C4EB04738B1204659
S214080CA029460022074B0A4CA04704460D46204614
S214080CB0294604B0BDE8F087694008000080664011
S214080CC0F148080000807640008066C0B5480800F5
S214080CD06D400800210A080038B555204FF08051AD
S214080CE00B4B98470B4B04241C600B225A600022BF
S214080CF09A721A8141F64C511961DA60064D2846F7
S214080D001946064B984728462146054B984738BD4E
S214080D10AD3308002C8D072000400940F10208007A
S214080D201904080038B556204FF080510B4B9847E9
S214080D300B4B05241C600B225A6000229A721A81FB
S214080D4041F64C511961DA60064D28461946064B9D
S214080D50984728462146054B984738BDAD330800C6
S214080D60048D072000400940F10208001904080015
S214080D7030B585B024200D4B98470D4C20460421ED
S214080D800C4DA84720460521A8470B4B0193002386
S214080D9002930A4B0393204601A9094B9847094B2F
S214080DA09847094B984705B030BD00BFED36080098
S214080DB0004009402504080040420F0000BD010518
S214080DC0B1020800D90C0800250D080008B5B0F5D2
S214080DD0487F05D340F69802904238BF024601E0A5
S214080DE04FF4487202480349034B984708BD00BFB2
S214080DF0004009402C8D0720F503080008B5B0F51B
S214080E00487F05D340F69802904238BF024601E074
S214080E104FF4487202480349034B984708BD00BF81
S214080E2000400940048D0720F503080008B5064869
S214080E304FF020514FF48052044B984718B1044B9A
S214080E401A8801321A8008BD00120E40B93208000E
S214080E50548D072008B506484FF020514FF48042BD
S214080E60044B984718B1044B1A8801321A8008BDFB
S214080E7000100E40B9320800568D072070B582B0B3
S214080E800C201A4CA0470D20A047194D28464FF4B1
S214080E9080510122174EB047174C20464FF4804128
S214080EA00122B047154B009328460D214FF4805277
S214080EB07023134EB047134B009320460C214FF473
S214080EC080427023B04728464FF480510E4DA847FD
S214080ED020464FF48041A8470C4B4FF400521A6046
S214080EE04FF480521A6002B070BD00BFED3608009D
S214080EF000120E401133080000100E402D0E080098
S214080F0079350800550E08009D33080000E100E01A
S214080F100023024A1380024A13807047568D072022
S214080F20548D072070B582B0124B9847ADF806006E
S214080F30114D124E124C2B78012B03D10320B047CB
S214080F4002232B702378022B03D00E4B9847207071
S214080F5009E00D480D4B984701230D4A13702B7076
S214080F6000200C4B98470DF106004FF47A710A4B97
S214080F709847E0E7C12608002C010720F50108007D
S214080F800C0A0720A5010800207A0800F149080085
S214080F905C0A0720C12A080015290800436913F0CF
S214080FA0020F1DBFC1F30801C16100200120704770
S214080FB0436913F0010F05D08369C3F308030B6078
S214080FC000207047012070472DE9F0410E4615466F
S214080FD0013802280FD892B10024DFF83C800D4F64
S214080FE0D8F80000315D3B68984700280ADB0134D2
S214080FF0A542F5D10AE04FF0FF30BDE8F0810020A9
S214081000BDE8F0814FF0FF30BDE8F0812046BDE82E
S214081010F08100BF588D07205C8D072010B4AC23E4
S21408102003600A684B68B2FBF3F31B095C1E4FF6B5
S214081030FE7294420AD803628B68436040F2022329
S214081040C0F8203150230360002000E001205DF83E
S214081050044B7047436913F0020F1ABFC1610020A2
S21408106001207047436913F0010F1DBF83690B7099
S21408107000200120704700BF70B582B0054B984726
S21408108002AC24F8020D3226034D20463146A84706
S214081090FBE700BFC126080015290800000000006D
S2140810A02DE9F04F89B0844B1B68002BB4BF4FF076
S2140810B0FF320122814B1A60814B1D88814B1E88A6
S2140810C005EB06084FEA68087F4C4046A047CDE97E
S2140810D000017E4BC3E90001701BA04702460B4681
S2140810E07B49C1E900237B49D1E9004520462946CA
S2140810F0794EB04706460F46784BC3E90067204648
S214081100294600220023764CA047E0B130463946EF
S21408111000220023734CA047A8B1002200236D4983
S214081120C1E900236D49C1E9002300206E49086023
S2140811306E49C1E900231FFA88F8614BA3F80080BE
S214081140604BA3F80080634BD3E90001002200231C
S214081150644CA047E8B1614BD3E9000100220023A4
S2140811605F4CA047A8B1002200235A49C1E90023D2
S2140811705A49C1E9002300205B4908605B49C1E978
S21408118000234F4908884F4B1A88024452080A80A1
S2140811901A80DFF85891D9E90067CDE90267524D01
S2140811A0494C2868A047DFF88081DDE90223C0475C
S2140811B04F4B984728604F4BD3E90067CDE9046743
S2140811C0A04704460D464C4EDDE904014B4BD3E9D7
S2140811D00023B04702460B46494F20462946B847E3
S2140811E0CDE90601474BC3E900013C4BD3E900AB08
S2140811F0454BD3E90001DDE90423B04704460D4614
S21408120050465946DDE90223DFF8CCC0E0470246DF
S2140812100B4620462946B84704460D463B4BC3E9CD
S2140812200045DDE9060152465B46C04702460B46C6
S21408123020462946C047364BD3E90023B84704461C
S2140812400D46344BC3E90045C9E900ABDDE90001AA
S214081250314BD3E90023B04706460F4612A3D3E91D
S2140812600023DFF8C8C0E04738B93046394610A32F
S214081270D3E90023294EB04718B18222284B1A809A
S21408128002E0C822264B1A80204629460022254B13
S214081290134EB04700284BD00022224B1D49C1E907
S2140812A0002351E0AFF30080CDCCCCCCCCCCEC3FC7
S2140812B09A9999999999A93F580A072044010720AD
S2140812C0568D0720548D072005430800500A07202E
S2140812D0200A0720480A072069400800380A07201D
S2140812E0F1480800B5480800600A0720400A0720A9
S2140812F00549080050010720254608003801072040
S214081300D1430800680A072030010720300A072062
S21408131060010720100A0720D08D0720C94808005A
S21408132058010720008051406D400800DD4808003D
S214081330204629460022264B264CA04720B10022EC
S214081340234B2549C1E90023DFF8A8B0234EBBF894
S2140813500000B047DFF880A0214FDAE90023B8473D
S21408136004460D46DFF89090D9F80000B0470246CC
S2140813700B46DFF8888020462946C04712A3D3E9E3
S2140813800023B847174CA047174B9847BBF80000F0
S214081390B047DAE90023154DA84782468B46D9F8A8
S2140813A00000B04702460B4650465946C04706A3BB
S2140813B0D3E90023B847A0470D4B984709B0BDE8C6
S2140813C0F08F00BFAFF30080000000000070974069
S2140813D0008051C0B5480800100A072005430800D9
S2140813E06D40080055490800FD0D080069400800D2
S2140813F0CD0D08005801072044010720D1430800F6
S21408140010B4154C00220023C4E90023C4E90223C3
S214081410C4E9042300201149C4E90601C4E90C23E1
S21408142000200F49C4E90E01C4E9100100200D4947
S214081430C4E91201C4E9142305A1D1E90001C4E9ED
S2140814401601C4E91823C4E91A235DF8044B70474B
S2140814500000000000C07240608D0720000059C0E0
S21408146000005940000069400449D1E90023C1E959
S2140814700423D1E90223C1E906237047608D0720BB
S2140814802DE9F04389B01D481D4FB8471D4ED6E9D3
S2140814900401D6E90623D6E90045CDE90045D6E994
S2140814A00245CDE90245D6E90845CDE90445D6E921
S2140814B00A45CDE90645144CA047DFF85C90C847B6
S2140814C00146124B1860DFF854804046B847D6E904
S2140814D00001D6E90223D6E90845CDE90045D6E954
S2140814E00A45CDE902450A4CA047C8470146094BBC
S2140814F018604046B84709B0BDE8F083407A08004F
S214081500F1490800608D0720310C08002C0A0720D6
S214081510B1090800580A072005490800487A080053
S21408152010B5304B1B78012B0BD12F49D1E90C2372
S214081530C1E90823D1E90E23C1E90A232B4B9847B2
S21408154046E0022B15D12A4B98472749D1E90C23A8
S214081550C1E90023D1E90E23C1E90223D1E910230A
S214081560C1E90823D1E91223C1E90A231F4B98478A
S2140815702EE0032B15D11E4B98471B49D1E91023A3
S214081580C1E90023D1E91223C1E90223D1E91423D2
S214081590C1E90823D1E91623C1E90A23134B984762
S2140815A016E0042B14D1124B98470F49D1E914239F
S2140815B0C1E90023D1E91623C1E90223D1E918239A
S2140815C0C1E90823D1E91A23C1E90A23074B98473A
S2140815D0044C08482178084B984723780133237031
S2140815E010BD00BF40010720608D07208114080049
S2140815F0691408004C7A0800F149080010B54B4BEE
S2140816001B78012B0BD14A49D1E90C23C1E90823E1
S214081610D1E90E23C1E90A23464B98477DE0022B01
S21408162015D1454B98474249D1E90C23C1E9002317
S214081630D1E90E23C1E90223D1E91823C1E9082319
S214081640D1E91A23C1E90A233A4B984765E0032BE8
S21408165015D1394B98473649D1E91823C1E90023F3
S214081660D1E91A23C1E90223D1E91023C1E90823E5
S214081670D1E91223C1E90A232E4B98474DE0042BE3
S21408168015D12D4B98472A49D1E91023C1E90023E3
S214081690D1E91223C1E90223D1E91823C1E90823B5
S2140816A0D1E91A23C1E90A23224B984735E0052BCE
S2140816B015D1214B98471E49D1E91823C1E90023C3
S2140816C0D1E91A23C1E90223D1E91423C1E9082381
S2140816D0D1E91623C1E90A23164B98471DE0062BC5
S2140816E015D1154B98471249D1E91423C1E90023AF
S2140816F0D1E91623C1E90223D1E91823C1E9082351
S214081700D1E91A23C1E90A230A4B984705E00B4892
S2140817100B4B984707220B4B1A70044C0A48217843
S214081720074B984723780133237010BD40010720E4
S214081730608D072081140800691408005C7A080088
S214081740F1490800D88D07206C7A080000000000D0
S2140817502DE9F04F83B0944B9847ADF80600002467
S21408176000258FA7D7E900674FF0000A4FF0804B97
S2140817700DF1060064218D4B98478D4B1B78072B7F
S21408178000F26D81DFE813F0080016008F00B7003E
S2140817903C00FD001C00FC00864B98470222864B46
S2140817A01A70864B1B78042B40F259810722824B0D
S2140817B01A7054E1824B984702227F4B1A704EE10A
S2140817C0804B1B7853B1804B1868804B9847804BEA
S2140817D09847804B98470422774B1A707E4B1B78A5
S2140817E053B17E4B18687E4B984700227A4B1A7086
S2140817F00522714B1A7032E104226F4B1A702EE1E3
S2140818007848794B9847794B1B68794A106800FBEB
S21408181003F0784B984732463B46DFF828C2E04745
S21408182080468946744BC3E90089744BD3E90001A6
S21408183052465B46DFF810C2E04702460B46404673
S2140818404946DFF808C2E047002826D040F2DC50B8
S2140818506B4B984740F2DC506A4B98476A4BC3E993
S21408186000456A4BC3E90045644BC3E90045684B2D
S214081870C3E900450023674A1360674A1360C82116
S214081880664A1180594A1360654B98470122524BA5
S2140818901A700622484B1A70E1E0624B98470622F7
S2140818A0454B1A70DBE060484F4B984701225F4B68
S2140818B01A60584B1B68002B03DA4FF0FF315B4A5F
S2140818C011605A4A126802FB03F303EBD370401008
S2140818D0484B9847484BC3E9000140F2DC50484B58
S2140818E0984740F2DC50474B98474D4B98470322A1
S2140818F0314B1A70B3E04E483B4B98474D4B18880F
S2140819004D4B1B88184401303A4B98473A4BD3E95D
S2140819100023DFF83CC1E047B0B140F2DC50384B5A
S214081920984740F2DC50374B98473D4B9847002283
S214081930384B1A60304BC3E90045304BC3E90045C5
S21408194006221D4B1A708AE0DFF80891DFF8DC8063
S214081950D9F80030D8F8002002FB03F000F2DC507B
S214081960284B9847D9F80030D8F8002040F2DC50C9
S21408197002FB1300224B984703220F4B1A706EE0A7
S214081980FEE72E4B1B78002B66D02D48164B984743
S214081990124B18680D4B98470022074B1A705EE0EA
S2140819A0333333333333F73FC1260800152908008D
S2140819B0180A072021150800D88D0720400107209F
S2140819C0FD150800700A0720988C0720C12A080011
S2140819D06914080081140800280A07209C8C072030
S2140819E0BD250800847A0800F1490800580A07202F
S2140819F04401072005430800D08D0720500A072019
S214081A00FD0D0800CD0D0800100A0720200A072043
S214081A10380A07202C0A0720600A072058010720E2
S214081A20110F0800A11008008C7A0800DC8D07202A
S214081A309C7A0800568D0720548D07205C0A0720DC
S214081A40A47A0800254608006D400800C948080022
S214081A50DD480800480107200522034B1A70024B90
S214081A601A78024B1A7083E6D88D0720180A0720C2
S214081A7000F1080343604FF6FF720281C3600361FA
S214081A8000230360704700BF00230361704700BF50
S214081A9043685A684A6042688A605A689160596022
S214081AA041600861036801330360704710B40C880E
S214081AB04FF6FF739C4201D103690CE000F108035E
S214081AC0C268128892B2944205D35B685A68128834
S214081AD092B29442F9D25A684A6091608B60596013
S214081AE008610368013303605DF8044B704700BF64
S214081AF0436882689A60836842685A6003695A68CD
S214081B00824204BF82685A60002202611A68013A5B
S214081B101A601868704700BF03480068006880F3BA
S214081B20088862B600DF00BF08ED00E04FF080735B
S214081B3040F8043C40F8081C002340F80C3C40F8E9
S214081B40202C4038704700BF064B19680868B0E874
S214081B50F00F80F309884FF0000080F311884EF0EC
S214081B600D0E7047A08B07204FF08052014B1A606D
S214081B70704700BF04ED00E0EFF311804FF0A001BE
S214081B8081F311887047002008B5034B9847034B2C
S214081B901A6801321A6008BD791B08006801072018
S214081BA080F31188704700BF08B5044A1368013BE4
S214081BB0136013B90020024B984708BD6801072038
S214081BC0A11B0800EFF309800C4B1A6820E9F00FF8
S214081BD010602DE908404FF0A00080F3118800F04F
S214081BE027FF4FF0000080F31188BDE80840196809
S214081BF00868B0E8F00F80F309887047A08B0720C4
S214081C0008B54FF08052054B1A60054B9847054BB0
S214081C1098470020044B984708BD00BF04ED00E035
S214081C20791B0800E1260800A11B0800034A044B9C
S214081C301A600722043B1A60704700BF1F4801005D
S214081C4014E000E010B5094B1A6842F470021A60F6
S214081C501A6842F070421A60054B98470024054BF4
S214081C601C60054B9847204610BD00BF20ED00E0DD
S214081C702D1C080068010720191B080030B4134AF9
S214081C801368834201D21A46FAE7114654681519B2
S214081C90854203D168680444546010464268841834
S214081CA0A3420CD10A4C24689C4206D05B681A44AE
S214081CB042600B681B68036002E0036000E0036094
S214081CC0814218BF086030BC704700BF7C8A072076
S214081CD0788A072038B50446284B9847284B1B684F
S214081CE09BB9284A284B13600021516047F6F072CA
S214081CF09818234D286047F6F475595199505A603C
S214081D001860224B1A68103A1A60002C2DD004F17D
S214081D10100212F0070F1CBF22F007020832511EED
S214081D2047F6FE73994222D816490C6863689A42A9
S214081D3004D9236813B121461C46F7E7104B1B68E5
S214081D409C4216D00D68103523680B6063689B1A92
S214081D50202B04D9A018436062600D4B98470B4BA4
S214081D601A686168521A1A6004E0002502E0002525
S214081D7000E00025074B9847284638BDB1260800DE
S214081D80788A07207C8A0720780A07206C010720B3
S214081D907D1C08000D28080010B5044668B1074BDE
S214081DA09847074B196854F80C2C0A441A60A4F193
S214081DB01000044B9847044B984710BDB1260800FE
S214081DC06C0107207D1C08000D28080010B5044685
S214081DD0036C3BB903681BBB4068134B984700234A
S214081DE063601DE06AB980681A46104B9847A26877
S214081DF0236C1344A3606268934211D32368A360DC
S214081E000EE0C0681A46094B9847226C5242E368AF
S214081E101344E36021688B4202D263681A44E26086
S214081E20A36B0133A36310BDE92D0800194A080007
S214081E3038B5034605685DB1026CC4681444C460CE
S214081E404068844228BFDD600846D968014B984739
S214081E5038BD00BF194A0800F8B504461D4B984718
S214081E60A36C002B12DD636A83B104F124061A4DB5
S214081E701A4F01E0636A4BB13046A84700B1B8472D
S214081E80A36C013BA364A36C002BF3DC4FF0FF3379
S214081E90A364134B98470F4B9847636C002B12DDCF
S214081EA0236983B104F110060B4D0C4F01E023693A
S214081EB04BB13046A84700B1B847636C013B636432
S214081EC0636C002BF3DC4FF0FF336364044B9847D6
S214081ED0F8BD00BF891B0800FD2B0800352D08003B
S214081EE0A91B080038B50D46044618B9164B98477E
S214081EF000BFFDE7154B98472368226CE06B00FB94
S214081F0002F0191861600021A163A360821A1344C5
S214081F10E3604FF0FF336364A36455B923697BB16C
S214081F2004F110000A4B9847012809D1094B984735
S214081F3006E004F11000084DA84704F12400A8475D
S214081F40064B9847012038BD791B0800891B0800F6
S214081F50FD2B0800691B0800711A0800A91B080059
S214081F60F8B50D461746064688B150200E4B9847DA
S214081F70044660B105FB06F001300B4B984720601D
S214081F8040B92046094B984701E000BFFDE7084BDB
S214081F909847FAE7E663256420460121054B9847EB
S214081FA084F84D702046F8BDD51C0800991D080019
S214081FB0791B0800E51E08002DE9F04F85B08A4613
S214081FC09B46ADF80620044618B9384B984700BF1C
S214081FD0FDE709B9036C1BB90027354E354D03E0FC
S214081FE0324B984700BFFDE7B047A26BE36B9A42B7
S214081FF012D2204651465A462F4B9847636A3BB141
S21408200004F124002D4B9847012801D12C4B984702
S214082010284B9847012046E0BDF806301BB9254BEB
S214082020984700203FE01FB902A8264B984701278B
S214082030A847254B9847B047636CB3F1FF3F04BFEA
S21408204000236364A36CB3F1FF3F04BF0023A364BB
S214082050A84702A80DF106011C4B9847E8B9B047F7
S214082060D4F83890D4F83C80A847C1450FD104F17D
S2140820701000BDF80610164B98472046154B984793
S214082080154B98470028AFD10D4B9847ACE720462C
S214082090104B9847104B9847A6E720460D4B984795
S2140820A00D4B9847002005B0BDE8F08F791B080057
S2140820B0891B0800A91B0800CD1D0800FD2B080079
S2140820C0691B0800812C0800B1260800A92C080006
S2140820D0512B0800591E08000D2808002DE9F0416C
S2140820E00E4615469846044618B91C4B984700BF36
S2140820F0FDE729B9036C1BB1184B984700BFFDE7ED
S214082100164B98470746A26BE36B9A4218D22046AE
S21408211031464246124B9847A36CB3F1FF3F0AD1AB
S214082120636A7BB104F124000E4B984760B16DB129
S21408213001242C600BE0A36C0133A364012406E0A1
S214082140002404E0012402E0012400E001243846CB
S214082150054B98472046BDE8F08100BF791B08006C
S214082160CD1D0800FD2B0800A11B08002DE9F04F27
S21408217085B089469A46ADF80620044618B9464BF7
S214082180984700BFFDE709B9036C2BB90027434EF3
S214082190DFF838B1424D03E03F4B984700BFFDE7F4
S2140821A0B047A36B002B28D0E568204649463D4B30
S2140821B09847BAF1000F12D1A36B013BA3632368BB
S2140821C013B9394B98476060236993B104F110003E
S2140821D0364B984701280CD1354B984709E0E560FF
S2140821E0636A33B104F12400304B984708B1304B8A
S2140821F098472B4B984701204BE0BDF806301BB993
S214082200274B9847002044E017B902A8D84701276B
S214082210A847284B9847B047636CB3F1FF3F04BF05
S21408222000236364A36CB3F1FF3F04BF0023A364D9
S214082230A84702A80DF106011F4B984718BBB047E0
S214082240D4F83880A847B8F1000F16D1236823B908
S214082250B0476068194B9847A84704F12400BDF8B2
S2140822600610174B98472046164B9847164B984724
S214082270002895D10E4B984792E72046114B984771
S214082280114B98478CE720460E4B98470E4B9847BD
S214082290002005B0BDE8F08F791B0800891B0800F0
S2140822A0A91B0800311E0800412D0800FD2B080058
S2140822B0691B0800B1260800A92C08006D2D080027
S2140822C0512B0800591E08000D280800812C08000C
S2140822D038B504460D460D4B9847636CB3F1FF3F7F
S2140822E004BF00236364A36CB3F1FF3F04BF00235D
S2140822F0A364074B9847A36B23B904F12400294627
S214082300044B98472046044B984738BD891B08005D
S214082310A91B0800B52B0800591E080010B504466E
S2140823200F4B1B6898800F4B1B889BB2984207D2AE
S2140823300D4B18680A4B196804310C4B984710BDAA
S2140823400B4B1868064B19680431084B9847094B1D
S2140823501B889BB29C423CBF064B1C8010BD00BF2E
S214082360A08B0720BC8B0720C08B0720AD1A08005F
S2140823709C8A0720700107202DE9F84F0E4617465D
S2140823809A460A9DDDF83080814618B9624B984710
S21408239000BFFDE7092D03D95F4B984700BFFDE74F
S2140823A050205E4B98470446002800F0B180B8F1EC
S2140823B0000F40F0A980B800584B9847206318B91A
S2140823C02046574B9847A3E0A521BA00554B984797
S2140823D007F18047013F236B03EB870323F0070BC6
S2140823E004F13400314610224F4B9847002384F8F6
S2140823F04330092D34BF2E460926E662E664271DBB
S2140824003846DFF87081C04704F11800C0472461D9
S214082410C6F10A0626836462584649465246434B26
S2140824209847206010F0070F03D03B4B984700BF33
S214082430FDE70B9B03B11C603D4B98473D4B1A6864
S21408244001321A603C4B1B682BBB3B4B1C60394B5C
S2140824501B68012B29D1394E06F1C809DFF8E08040
S2140824603046C04714364E45FAD1DFF80C91484638
S214082470334EB047DFF804814046B0473148B0478E
S2140824803148B0473148B047314BC3F80090314B1C
S214082490C3F8008009E0304B1B6833B9264B1B682D
S2140824A0DB6A9D4224BF244B1C60E36A2B4A1268F1
S2140824B0934284BF294A1360294A1168616401312E
S2140824C01160284A1268934284BF264A136003EBB9
S2140824D083031A4800EB83003946234B9847234B5F
S2140824E098471D4B1B684BB1134B1B68DB6A9D4214
S2140824F007D91F4B98470120BDE8F88F0120BDE893
S214082500F88F0120BDE8F88FC0F8308040465BE7BA
S2140825104FF0FF30BDE8F88F791B0800D51C08007F
S214082520991D0800054B0800094D08002D1B0800DA
S214082530891B0800E08B0720A08B0720D48A072079
S214082540711A0800A48B0720A88A0720888A072003
S2140825509C8A0720C08B0720A08A0720E48B0720C8
S214082560C48B0720D08A0720911A0800A91B0800E8
S214082570691B0800891A0800C88B0720BC8A072030
S21408258008B518B90A4B984700BFFDE742690949DC
S2140825908A4208D1806A084B984206D0D0F10100DA
S2140825A038BF002008BD002008BD002008BD00BFB9
S2140825B0791B0800888A0720A48B072038B50446AC
S2140825C018B9164B984700BFFDE7154B1B6898428D
S2140825D023D0144B98472046134B984701281AD106
S2140825E0251D2846114B9847E36A114A12689342FC
S2140825F084BF0F4A136003EB83030E4800EB830087
S21408260029460D4B9847064B1B68E26ADB6A9A42D6
S21408261001D30A4B98470A4B984738BD791B0800E0
S214082620A08B0720891B080081250800F11A0800DE
S214082630D08A0720D48A0720911A0800691B080048
S214082640A91B080010B584B00023009301930293D9
S21408265003930F480F494FF480720F4CA047012888
S2140826600ED10E4B984701280AD10D4B98470122E8
S2140826700C4B1A6000220C4B1A800C4B984704E04F
S21408268018B9074B984700BFFDE704B010BD00BF58
S214082690AD290800C87A080079230800E52E080046
S2140826A0791B0800A08A0720BC8B0720451C080059
S2140826B0024B1A6801321A60704700BF9C8B0720CD
S2140826C010B5044B9847044B1C88A4B2034B984794
S2140826D0204610BD891B0800BC8B0720A91B0800D4
S2140826E02DE9F0413D4B1B68002B71D13C4B1A88F5
S2140826F0013292B21A801B889BB203BB394B1B6807
S2140827001B681BB1384B984700BFFDE7354B196867
S214082710364A106818601160354A11680131116030
S2140827201B681B6823B94FF6FF72324B1A8006E007
S2140827302C4B1B68DB68DB689A882E4B1A80284B64
S2140827401A8892B22B4B1B889BB29A4244D3254BCD
S2140827501B681B6853B1234B1B68DB68DC68A388BF
S2140827601F4A128892B2934214D90FE04FF6FF72AE
S214082770204B1A80BDE8F0811A4B1B68DB68DC68C2
S214082780A388174A128892B2934207D9194A138027
S214082790BDE8F081184E194FDFF86C80251D2846D5
S2140827A0B047A36A13B104F11800B047E36A3A6861
S2140827B0934288BF3B6003EB830008EB8000294602
S2140827C00F4B9847074B1B681B68002BD4D1CDE7E7
S2140827D00C4B1A6801321A60BDE8F0819C8B072002
S2140827E0BC8B07209C8A0720791B0800C08B072013
S2140827F0B88B072070010720F11A0800D08A072036
S214082800911A0800848A0720D48A07202DE9F843FD
S214082810314B1B681BB9314B984700BFFDE7304B5F
S21408282098472D4B1A68013A1A601B68002B48D146
S2140828302C4B1B68002B46D00025DFF8D4802A4F87
S2140828402A4E1DE0D8F80C30DC6804F11800B847AA
S21408285004F104094846B847E36A3268934288BFD9
S214082860336003EB8303224800EB83004946214B81
S2140828709847214B1B68E26ADB6A9A4228BF012503
S214082880D8F80030002BDDD11C4B1B6863B11B4BFE
S2140828901B687BB11A4D194CA8472368013B236077
S2140828A02368002BF8D105E0012D03D0154B1B68D3
S2140828B0012B0AD10022134B1A60134B98470124A8
S2140828C004E0002402E0002400E000240F4B9847B0
S2140828D02046BDE8F88300BF9C8B0720791B0800BC
S2140828E0891B0800E08B0720F11A0800D08A072009
S2140828F0D48A0720911A0800A08B0720848A07200C
S214082900E1260800DC8B0720691B0800A91B0800C5
S214082910A48B072038B50C46054618B91B4B9847B4
S21408292000BFFDE719B9194B984700BFFDE7184BDC
S21408293098472B881C44A4B2164A128892B293422F
S21408294008D9A3421ED9134B1B889BB22C809C42E5
S21408295010D907E0A34213D80E4B1B889BB29C42A3
S2140829600ED80FE00C4B186804300C4B98472046DE
S2140829700B4B98470B4B984730B90B4B984738BDCD
S2140829802C80EFE72C80F5E738BD00BF791B0800E0
S214082990B1260800BC8B0720A08B0720F11A080078
S2140829A01D2308000D280800691B080080B5154D72
S2140829B0154EDFF878801CE0144B9847144B1C68BB
S2140829C0144B9847ACB1144B9847114BDB68DC683E
S2140829D0201D124B9847124B1A68013A1A602B684A
S2140829E0013B2B600F4B9847206B0F4FB84720468C
S2140829F0B8472B68002BDFD13368012BF9D9C047BD
S214082A00F7E700BFA48A0720D48A0720B126080063
S214082A10A88A07200D280800891B0800F11A080054
S214082A20E08B0720A91B0800991D0800691B0800F1
S214082A3008B51D4B1B685BB91C4B1B6803EB83036F
S214082A409B001B4AD358CBB9184B1B6853B905E0F3
S214082A500122184B1A6008BD1A682AB9164B9847FF
S214082A6000BFFDE7114B12491A68013A1A601A6846
S214082A7002EB820251F82220002AEDD00B4B1B688D
S214082A8003EB83030A4A02EB83035A6852685A60C8
S214082A9003F108018A4204BF52685A605B68DA6824
S214082AA0064B1A6008BD00BF9C8B0720D08A0720FB
S214082AB0D48A0720DC8B0720791B0800A08B072008
S214082AC070B50446184B9847184B1B689C4203D0B1
S214082AD026462CB9264600E00026144B1C68FFE75D
S214082AE0251D2846124B9847A36A1BB104F1180007
S214082AF00F4B98470F4829460F4B98470F4B984758
S214082B008EB90F4B1B6813B10E4B984770BD094B17
S214082B101A680D4B1B689A4203D10022034B1A60B1
S214082B2070BD0A4B984770BD891B0800A08B07200C
S214082B30F11A0800888A0720911A0800A91B0800BD
S214082B40A08A0720691B0800E08B0720312A0800A6
S214082B5038B50C4618B90F4B984700BFFDE70E4D21
S214082B60296818310D4B9847286804300C4B98474D
S214082B704FF6FF739C4205D129680A4804310A4B70
S214082B80984738BD094B1888204480B2084B9847A8
S214082B9038BD00BF791B0800A08B0720AD1A0800B7
S214082BA0F11A0800888A0720911A0800BC8B0720AB
S214082BB01D23080038B50D4618B90A4B984700BFBC
S214082BC0FDE7094C21681831084B984720680430FF
S214082BD0074B9847074B1888284480B2064B9847F7
S214082BE038BD00BF791B0800A08B0720911A080083
S214082BF0F11A0800BC8B07201D23080038B5C368E7
S214082C00DC681CB9164B984700BFFDE704F11805A9
S214082C102846144B9847144B1B689BB9251D284615
S214082C20104B9847E36A114A1268934284BF0F4ACA
S214082C30136003EB83030E4800EB830029460D4B15
S214082C40984703E00C4829460A4B98470B4B1B68E5
S214082C50E06ADB6A984234BF0020012038BD00BF16
S214082C60791B0800F11A08009C8B0720D08A0720D9
S214082C70D48A0720911A0800A48B0720A08B072067
S214082C8008B518B9054B984700BFFDE7044A12680F
S214082C900260044A1288828008BD00BF791B0800BB
S214082CA0B88B0720BC8B072038B50D46044618B9E4
S214082CB01A4B984700BFFDE719B9184B984700BF4D
S214082CC0FDE7174B98472B884FF6FF7293421CD0A8
S214082CD0144A116822688A4205D0134A128892B2AA
S214082CE0A188914213D9104A1188A288891A89B2F4
S214082CF08B420ED90C49098889B2521A13442B8084
S214082D0020460A4B9847002404E0002402E00124E9
S214082D1000E00124064B9847204638BD791B08007A
S214082D20891B0800B88B0720BC8B0720812C08005D
S214082D30A91B08000122014B1A607047DC8B07208C
S214082D40014B1868704700BFA08B0720054B1B680F
S214082D5033B1054B1B68002B14BF022001207047B7
S214082D6000207047A08A07209C8B072038B50446A9
S214082D7000282ED0C36A174A1268D26A934228D20D
S214082D80144A1268D26AC2F10A02028303EB83036A
S214082D90114A02EB830342699A4216D1051D28465A
S214082DA00E4B98470B4B1B68DB6AE3620C4A1268AB
S214082DB0934284BF0A4A136003EB8303064800EB7A
S214082DC083002946074B984738BD024B1B68DB6AC9
S214082DD0C36238BDA08B0720D48A0720F11A0800E2
S214082DE0D08A0720911A080038B50446D0B1C26ABE
S214082DF0C36C9A4216D0051D28460B4B9847E36CC1
S214082E00E362C3F10A022283084A1268934284BF27
S214082E10064A136003EB8303054800EB8300294644
S214082E20044B984738BD00BFF11A0800D08A07201F
S214082E30D48A0720911A080010B5044681802061BC
S214082E4091420BD8D31A018B9BB2994211D90B4BDE
S214082E501868211D0A4B9847002010BD9A4201D2D7
S214082E60994208D2074B1868211D054B9847002041
S214082E7010BD012010BD012010BD00BF1C8C07200E
S214082E80AD1A0800E88B072070B50D4B98470D4B18
S214082E901B688BB90C4D28460C4EB0470C4C204688
S214082EA0B0470C4B1D600C4B1C6005200C21002203
S214082EB00A4B9847034B1860094B984770BD00BFEC
S214082EC0891B0800188C0720EC8B0720711A08004D
S214082ED0008C0720E88B07201C8C0720611F080041
S214082EE0A91B080010B584B00B4B98470B4B1B6802
S214082EF063B10923009300230193029303930848C0
S214082F0008494FF40072084CA04718B9074B984771
S214082F1000BFFDE704B010BD892E0800188C0720F6
S214082F2045300800D07A080079230800791B080085
S214082F3010B584B0104C2468D4B10191ADF80820BF
S214082F40039073B90D4B984701280B4B186801A9D5
S214082F5007BFBDF81820002300221346084CA047D8
S214082F6007E0204601A91A460023064CA04700E0C1
S214082F70002004B010BD00BF188C07204D2D080097
S214082F80B91F0800DD2008002DE9F04782B0814609
S214082F90244B98478046244B1B88834237D9234EB8
S214082FA0234F27E0DA68B2F800A01FFA8AFADB682F
S214082FB0DC68251D2846B847636A20469847E369B3
S214082FC0012B17D1238B53449BB2534506D9A380B4
S214082FD0246130682946174B98470BE00023009376
S214082FE0204619465246144CA04718B9134B984722
S214082FF000BFFDE733681A68002AD3D1104A116863
S2140830000A48016013600123C9F8003002E0002373
S214083010C9F80030044BA3F80080404602B0BDE86B
S214083020F08700BFC1260800148C0720E88B07200D
S214083030F11A0800AD1A0800312F0800791B08009D
S2140830401C8C07202DE9F04387B0514DDFF87081BE
S214083050504B1B681A68002A00F09080DB681E88B0
S214083060B6B24D4B984703A84C4B98470746039B68
S214083070002B32D1864225D8494B9847454B1B68CA
S214083080DB68DC68201DC047E369012B15D1218B5E
S2140830903144204689B23A463346424FB84701285B
S2140830A00BD1002300932046194632463E4EB047C1
S2140830B018B93E4B984700BFFDE7636A2046984715
S2140830C00DE00026F11B286889B2394B9847344B27
S2140830D0984720B9374B984701E0314B984702A8E4
S2140830E02E4B98470746344EDFF8B8903EE0059CCE
S2140830F01CB1616909B1201DC0470399022923D074
S214083100032930D0002931D1BDF81030218B19445D
S214083110204689B23A46C847012827D1636A20461E
S2140831209847E369012B21D1228BBDF810301A4449
S214083130002300932046194692B21B4CA047A8B914
S2140831401A4B984700BFFDE7BDF8103023831BB91C
S214083150164B984700BFFDE7F918204689B23A464D
S2140831603B46C84702E02046144B9847286803A900
S21408317000221346B0470028B9D169E7064B98479E
S21408318003A8064B98470746039B002B99D0A4E74D
S214083190188C0720E88B0720B1260800892F08001E
S2140831A00D280800392E0800312F0800791B080062
S2140831B0D1220800691B08006D210800991D080027
S2140831C0F11A080010B50E480E4B984700203E210D
S2140831D00D4B98470D4CA0470028FCD00C4B984741
S2140831E00C4A0D4B9A620D4CA0470028FCD01020C4
S2140831F00B4B98470B4B98470148024B984710BD16
S21408320000BD0105A500072069360800BD36080080
S214083210CD360800013F0D2000060E40DD360800BA
S21408322005360800F937080010B54FF400421B4B66
S2140832305A600B201A4CA0470C20A0470D20A04728
S2140832400E20A0473B204FF06051164CA047552053
S2140832504FF06051A04756204FF06051A0476820B5
S2140832601149A0475C201149A04711484FF4407106
S2140832704FF000620F4B984711204FF00061A047AF
S21408328012204FF00061A0472B204FF00061A047A6
S2140832902A204FF00061A04710BD00BF501A0E400C
S2140832A0ED360800AD330800790000280100002834
S2140832B0000E0E408134080021F00061B1F1405F35
S2140832C00CBF836BC36B13420CBF002001207047F2
S2140832D04264B1F1805F16D004D8C1B1B1F1006F75
S2140832E00AD013E0B1F1405F11D0B1F1605F0ED0A3
S2140832F0B1F1205F0AD17047036F016F0B4023EAD4
S2140833000203036702E0036F1343036742607047D4
S214083310416412F0010F14BF4166016612F00A0FED
S21408332014BF0162416212F0020F02D0C0F880108A
S21408333004E012F0080F18BFC0F88410416101605D
S214083340704700BF10B44164019C0CB1416600E0B0
S21408335001660BB1016500E041650AB1016300E052
S2140833604163016101605DF8044B704712F0100F6D
S21408337010D0C0F8B01012F0200F14BFC0F8D41048
S214083380C0F8D01012F0400F14BFC0F8C010C0F834
S214083390C4107047C0F8B410704700BFC36C01640F
S2140833A0704700BFC06C7047806C704770B582B0BD
S2140833B00D46440904F5001404F20774660201F089
S2140833C0F044B4F1205F30D006D8B4F1006F0AD0CC
S2140833D0B4F1805F18D049E0B4F1405F30D0B4F162
S2140833E0605F2DD042E000F01F0001248440304684
S2140833F04FF0006122461F4B984715F0010F14BF87
S21408340074663466012032E000F01F000124844010
S21408341030464FF080512246164B984715F0010F5C
S21408342014BF74663466012021E000F01F010124F1
S214083430304604FA01F12A460F4B9847204616E014
S21408344000F01F01012405F0605205EA040300930A
S214083450304604FA01F1B2F1605F14BF002201227F
S214083460C5F38003054DA847204600E0002002B0BB
S21408347070BD00BFD132080011330800453308007C
S214083480F0B583B007460E46154602F0F044B4F190
S214083490205F26D006D8B4F1006F0AD0B4F1805F5A
S2140834A013D034E0B4F1405F1FD0B4F1605F1CD095
S2140834B02DE04FF000613246164B984715F0010F85
S2140834C014BF7E663E66012022E04FF080513246E9
S2140834D0104B984715F0010F14BF7E663E66012014
S2140834E016E00D4B9847012012E005F0605205F0F3
S2140834F00103009338463146B2F1605F14BF0022DC
S2140835000122C5F38003054CA047012000E00020F7
S21408351003B0F0BDD1320800113308004533080067
S2140835202DE9F04104460E46104B984705462046BE
S2140835300F4B9847054017D00E4F07F10C046C3711
S21408354054F80C3CB3420AD154F8081C294206D059
S21408355023683046984754F8083C25EA0305BC42D9
S21408356002D01034002DEBD1BDE8F081A533080059
S214083570A9330800248C0720F8B50B4C2468062CC1
S21408358010D80A4F2601BD19B9516A60AB60069972
S214083590E960013404490C6011461A46044B984702
S2140835A00020F8BD0120F8BD208C0720248C0720B9
S2140835B06D33080008B502480B21024B984708BD32
S2140835C0000E0E402135080008B502480C21024BB3
S2140835D0984708BD00100E402135080008B5024877
S2140835E00D21024B984708BD00120E4021350800F1
S2140835F008B502480E21024B984708BD00140E4035
S21408360021350800174B1A6B22F070021043186316
S2140836109B6E13F0080F09D14FF40063114901E0BF
S214083620013B19D08A6E12F0080FF9D00D4B1A6BB1
S21408363022F0030242F002021A63986E10F00800A5
S2140836400CD14FF40063074901E0013B08D08A6EAD
S21408365012F0080FF9D07047012070470020704715
S2140836600120704700060E4038B111490B6A114A0E
S2140836701A40114B13430B6270470D4A136A23F422
S2140836805C1323F0030343F45C1343F001030902BD
S21408369089B20B431362936E13F0010FFBD0044AF2
S2140836A0136A43F09B7343F480331362704700BF7A
S2140836B000060E40FCFFC8FE02003701024B986E5B
S2140836C000F48030704700BF00060E404FF00052EE
S2140836D0014B9A62704700BF00060E40024B986E78
S2140836E000F00200704700BF00060E402C2820D8C5
S2140836F01F280DD8124B9A69012383401A4093421B
S21408370019D0012303FA00F00D4B1861002070470A
S2140837100B4BD3F808212038012383401A409342E4
S2140837200BD0012303FA00F0054BC3F80001002074
S214083730704701207047002070470020704700BF80
S21408374000060E40FEE700BF10B51E4B1E4A9A4202
S21408375003D01E4B1B4A9A4204D31D4B1D4A9A425D
S2140837600FD31AE01C4B1D4CE41A24F0030404344F
S2140837700023144814495A581A500433A342FAD15D
S214083780EBE7174B1749C91A21F003011A1D114414
S214083790002243F8042F8B42FBD1134A22F06043E1
S2140837A023F07F0311498B6002F16042B2F5801F57
S2140837B003D28A6842F000528A600D4B98470D4B38
S2140837C09847FEE700000720647C0800E409072005
S2140837D0E48D0720E809072004000720E7090720EA
S2140837E0E4090720DF8D07200000080000ED00E050
S2140837F0A1490800653908003E4B1B6B03F003031C
S214083800032B5FD8DFE803F0020E2B2B3A4B5B69DD
S21408381013F0800F14BF4FF400424FF4FA42374BB0
S2140838201A604FE0334B1B6A13F0807F03D0344A8C
S214083830324B1A6046E0334A304B1A602D4B1B6AEF
S21408384003F07003102B02D0202B04D03AE02E4A47
S2140838502A4B1A6036E02A4A284B1A6032E0254B73
S2140838601B6A13F0807F03D0254A244B1A6012E0A7
S214083870244A224B1A601F4B1B6A03F07003102B56
S21408388002D0202B04D006E01F4A1C4B1A6002E028
S2140838901B4A1A4B1A60174B1B6B03F00303022BC9
S2140838A00DD1144B986A996A144BC0F30A401A68EB
S2140838B000FB0222C9B2B2FBF1F21A6002E0134A18
S2140838C00E4B1A600B4B1B6B03F07003702B07D163
S2140838D00A4B1A680E49A1FB020252081A60704782
S2140838E0044B196B054BC1F302111A68CA401A60DB
S2140838F0704700BF00060E40101A0E4074010720DD
S214083900001BB70000093D0000127A00001C4E0E8E
S214083910ABAAAAAA094B1B6813B9094A074B1A602F
S214083920064B1B681A180749914204DB1046034ADF
S2140839301060184670474FF0FF307047948C072089
S214083940E8AD0720FC7F08204FF0FF30704700BF27
S2140839504FF400534B600020704700BF01207047AB
S2140839600020704710B584B02B4B98472B4B9847D0
S2140839702B4B98472B4B98472B4B98472B4B9847E6
S2140839802B4B98472B482C492C4CA0472C482D49A4
S2140839902D4AA047062300932C4B0193002302933D
S2140839A003932B482B494FF480722B4CA0470128D1
S2140839B002D02A48214B984704230093284B0193AA
S2140839C0002302930393274827494FF48072224C1A
S2140839D0A047012802D02548184B98470323009390
S2140839E0234B0193002302930393224822494FF462
S2140839F08072194CA047012802D020480F4B9847E0
S214083A001B4B18681E4CA047154B1868A0471D4B43
S214083A109847002004B010BDC531080029320800B8
S214083A20350908007D0E0800710D08009101080090
S214083A3001140800D87A0800E07A0800F14908005E
S214083A40F07A0800087B0800147B0800A08C072082
S214083A5051170800207B080079230800287B0800F7
S214083A60988C072079100800487B0800507B0800CF
S214083A709C8C0720250F0800747B0800787B0800BC
S214083A80C12A0800452608002DE9F04FB64B21F05C
S214083A9000469E4283B004460D4689460FDDB3496C
S214083AA08E4200F3B38000F0AE80B9F1000F40F309
S214083AB0EF8091A1D1E9000103B0BDE8F08FAC4BCF
S214083AC09E4200F3BD80A3F1DE739E4240F3A780BA
S214083AD04FF0FF3C22462B4620462946CDF804C028
S214083AE000F076FC02460B4682468B4600F070FCD9
S214083AF083A3D3E9002306460F4600F069FC82A399
S214083B00D3E9002300F0B2FA32463B4600F060FCE8
S214083B107FA3D3E9002300F0A9FA32463B4600F01B
S214083B2057FC7DA3D3E9002300F0A0FA32463B46B3
S214083B3000F04EFC7AA3D3E9002300F097FA324649
S214083B403B4600F045FC78A3D3E9002300F08EFA44
S214083B5052465B4600F03CFC75A3D3E90023824638
S214083B608B463046394600F033FC73A3D3E900236E
S214083B7000F07AFA32463B4600F02AFC70A3D3E9F6
S214083B80002300F071FA32463B4600F021FC6EA393
S214083B90D3E9002300F068FA32463B4600F018FCEA
S214083BA06BA3D3E9002300F05FFA32463B4600F0E9
S214083BB00FFCDDF804C00246BCF1FF3F0B466BD095
S214083BC0504659464FEACC0600F050FA22462B4695
S214083BD000F0FEFB674F684B37441E44D6E90023C7
S214083BE000F042FA22462B4600F03EFA02460B4602
S214083BF0D7E9000100F038FAB9F1000F0CDA01F144
S214083C000045294608E000283FF44FAF20462946DD
S214083C1022462B4600F02AFA03B0BDE8F08F4EA3E2
S214083C20D3E9002300F022FA0022544B00F060FE8D
S214083C3000283FF44DAF2046294603B0BDE8F08F74
S214083C4000F0CAF84E4B04469E420D4633DCA3F5F8
S214083C5050239E4200F3A58002460B4600F006FA63
S214083C600022464B00F000FA002206460F46204681
S214083C7029464FF0804300F0F9F902460B463046D5
S214083C80394600F0CFFC4FF0000C04460D4621E7FD
S214083C9033A1D1E90001BFE75046594600F0E6F9DE
S214083CA022462B4600F094FB02460B462046294641
S214083CB000F0DAF9B0E7334B9E4267DC0022324B5D
S214083CC000F0D2F9002206460F46204629462E4B1B
S214083CD000F07EFB0022294B00F0C8F902460B468E
S214083CE03046394600F09EFC4FF0020C04460D465E
S214083CF0F0E600BFAFF30080182D4454FB21F93FCF
S214083D0011DA22E33AAD903FEB0D76244B7BA93FC0
S214083D10513DD0A0660DB13F6E204CC5CD45B73F8E
S214083D20FF8300922449C23F0D5555555555D53F3A
S214083D302F6C6A2C44B4A2BF9AFDDE522DDEAD3F2E
S214083D406D9A74AFF2B0B33F711623FEC671BC3FCE
S214083D50C4EB98999999C93F9C7500883CE4377ECE
S214083D60182D4454FB21F9BFFFFF0F440000F07FD5
S214083D70FFFFDB3FB87B0800987B08000000F03F99
S214083D80FFFFF23FFF7F03400000F83F02460B4666
S214083D9000200F4900F046FC4FF0030C04460D4681
S214083DA098E600220B4B00F05FF9002206460F4605
S214083DB020462946074B00F059F902460B4630467E
S214083DC0394600F02FFC4FF0010C04460D4681E6FC
S214083DD00000F0BF0000F03F21F00041704700BF30
S214083DE02DE9F0478AB004460D4600F04FF8DFF894
S214083DF098A006469AF900300F4601330FD02046A1
S214083E00294600F003F950B14FF000084FF00009BA
S214083E1042464B462046294600F04CFD20B930461F
S214083E2039460AB0BDE8F08716499AF800600122BC
S214083E300023CDE90445CDE9024501910092089397
S214083E4066B9CDE90689684600F008F980B1089B8E
S214083E509BB9DDE906010AB0BDE8F0874046494649
S214083E6042464B4600F0DEFB022ECDE90601EAD1BB
S214083E7000F090FD21230360E9E700F08BFD089B26
S214083E800360E6E7D87B08007801072021F0004C9D
S214083E902DE9F8434FEA1C5CDFF86C814FEA0C5CAE
S214083EA0C44506460F460B46024600F08F8000299A
S214083EB06FDD0F1578D0A7F2FF37C3F31303F907A2
S214083EC043F4801360D4D10F4FF0000C01EB43038A
S214083ED07F105200654616204FF400116C189C425D
S214083EE04FEAD2764FEA420202DC1B1B65188C4466
S214083EF0013806EB43034FEA5101EFD180462026EE
S214083F004FF0004109E023D0D40F013E4FEA51019B
S214083F1004EB43034FEA42021ED0AB4201EB08040F
S214083F20F1DD04F00049B9F1004F04EB010809D0AF
S214083F30A9465B1B944288BF03F1FF33121B084453
S214083F404D46E1E7B8F1000FF2DB05F10109F0E7AD
S214083F509442E6D91D46D7E71A4304D0431C41D0FD
S214083F6000F00103184446084FEA6C031CF0010FE2
S214083F7003F17F5303F5001318BF46F0004603EB22
S214083F8007513046BDE8F883D10F01EB43035200D2
S214083F9099E721F00043034322D051BB0F46D30ACA
S214083FA0153F5205002BFAD013F480111DD15B0083
S214083FB0D80201F10101FAD5C1F10100C1F12004CE
S214083FC022FA04F407448A40234374E702460B4661
S214083FD000F0FEF932463B4600F048F8BDE8F883A4
S214083FE0BDE8F8830CF1010CBEE72024012000216F
S214083FF0E6E702460B4600F037F802460B4600F0A6
S21408400011FBBDE8F88300BF0000F07F31F00043E5
S21408401010B408D00F4AA3F5801494420AD8042096
S2140840205DF8044B704700280CBF022003205DF89B
S214084030044B7047B3F5801F01D20320F7E7064A02
S214084040934201D00020F2E7D0F1010038BF0020EB
S214084050EDE700BFFFFFDF7F0000F07F002070471E
S21408406081F0004102E000BF83F0004330B54FEA1C
S21408407041044FEA430594EA050F08BF90EA020F89
S2140840801FBF54EA000C55EA020C7FEA645C7FEA1C
S214084090655C00F0E2804FEA5454D4EB5555B8BF3F
S2140840A06D420CDD2C4480EA020281EA030382EAB0
S2140840B0000083EA010180EA020281EA0303362D42
S2140840C088BF30BD11F0004F4FEA01314FF4801C15
S2140840D04CEA113102D0404261EB410113F0004F27
S2140840E04FEA03334CEA133302D0524263EB4303DE
S2140840F094EA050F00F0A780A4F10104D5F1200E7C
S2140841000DDB02FA0EFC22FA05F2801841F10001D6
S21408411003FA0EF2801843FA05F359410EE0A5F1AA
S21408412020050EF1200E012A03FA0EFC28BF4CF0DB
S214084130020C43FA05F3C01851EBE37101F0004591
S21408414007D54FF0000EDCF1000C7EEB00006EEB9E
S2140841500101B1F5801F1BD3B1F5001F0CD3490828
S2140841605FEA30004FEA3C0C04F101044FEA44527F
S21408417012F5800F80F09A80BCF1004F08BF5FEA06
S214084180500C50F1000041EB045141EA050130BDE6
S2140841905FEA4C0C404141EB010111F4801FA4F189
S2140841A00104E9D191F0000F04BF01460020B1FADE
S2140841B081F308BF2033A3F10B03B3F120020CDA16
S2140841C00C3208DD02F1140CC2F10C0201FA0CF0F4
S2140841D021FA02F10CE002F11402D8BFC2F1200C59
S2140841E001FA02F120FA0CFCDCBF41EA0C0190400F
S2140841F0E41AA2BF01EB0451294330BD6FEA040458
S2140842001F3C1CDA0C340EDC04F11404C4F1200242
S21408421020FA04F001FA02F340EA030021FA04F354
S21408422045EA030130BDC4F10C04C4F1200220FAAB
S21408423002F001FA04F340EA0300294630BD21FAE9
S21408424004F0294630BD94F0000F83F4801306BFAF
S21408425081F480110134013D4EE77FEA645C18BFA3
S2140842607FEA655C29D094EA050F08BF90EA020F3A
S21408427005D054EA000C04BF1946104630BD91EA32
S214084280030F1EBF0021002030BD5FEA545C05D135
S2140842904000494128BF41F0004130BD14F5800474
S2140842A03CBF01F5801130BD01F0004545F0FE41E8
S2140842B041F470014FF0000030BD7FEA645C1ABF1D
S2140842C0194610467FEA655C1CBF0B46024650EA54
S2140842D0013406BF52EA033591EA030F41F4002180
S2140842E030BD00BF90F0000F04BF0021704730B506
S2140842F04FF4806404F132044FF000054FF00001DB
S21408430050E700BF90F0000F04BF0021704730B59B
S2140843104FF4806404F1320410F0004548BF404270
S2140843204FF000013EE700BF42004FEAE2014FEAC5
S21408433031014FEA02701FBF12F07F4393F07F4FA0
S21408434081F06051704792F0000F14BF93F07F4FD2
S214084350704730B54FF4607401F0004521F0004115
S21408436020E700BF50EA010208BF704730B54FF09B
S21408437000050AE050EA010208BF704730B511F0A0
S214084380004502D5404261EB41014FF4806404F1D8
S21408439032045FEA915C3FF4DCAE4FF003025FEA5A
S2140843A0DC0C18BF03325FEADC0C18BF033202EBE2
S2140843B0DC02C2F1200300FA03FC20FA02F001FA3C
S2140843C003FE40EA0E0021FA02F11444C1E600BFDB
S2140843D070B54FF0FF0C4CF4E06C1CEA11541DBF8E
S2140843E01CEA135594EA0C0F95EA0C0F00F0DEF859
S2140843F02C4481EA030621EA4C5123EA4C5350EA3E
S214084400013518BF52EA033541F4801143F480138E
S21408441038D0A0FB02CE4FF00005E1FB02E506F01F
S2140844200042E0FB03E54FF00006E1FB03569CF074
S214084430000F18BF4EF0010EA4F1FF04B6F5007F7A
S21408444064F5407404D25FEA4E0E6D4146EB0606EC
S21408445042EAC62141EA55514FEAC52040EA5E5075
S2140844604FEACE2EB4F1FD0C88BFBCF5E06F1ED81F
S214084470BEF1004F08BF5FEA500E50F1000041EB56
S214084480045170BD06F0004646EA010140EA020003
S21408449081EA0301B4EB5C04C2BFD4EB0C0541EA25
S2140844A0045170BD41F480114FF0000E013C00F33A
S2140844B0AB8014F1360FDEBF002001F0004170BD5E
S2140844C0C4F10004203C35DA0C341BDC04F1140477
S2140844D0C4F1200500FA05F320FA04F001FA05F203
S2140844E040EA020001F0004221F0004110EBD370D0
S2140844F021FA04F642EB06015EEA430E08BF20EAFC
S214084500D37070BDC4F10C04C4F1200500FA04F39E
S21408451020FA05F001FA04F240EA020001F0004130
S21408452010EBD37041F100015EEA430E08BF20EAA3
S214084530D37070BDC4F1200500FA05F24EEA020EEB
S21408454020FA04F301FA05F243EA020321FA04F01A
S21408455001F0004121FA04F220EA020000EBD370D1
S2140845605EEA430E08BF20EAD37070BD94F0000FD1
S2140845700FD101F00046400041EB010111F4801F05
S21408458008BF013CF7D041EA060195F0000F18BFB6
S214084590704703F00046520043EB030313F4801FF2
S2140845A008BF013DF7D043EA0603704794EA0C0FAC
S2140845B00CEA135518BF95EA0C0F0CD050EA4106C2
S2140845C018BF52EA4306D1D181EA030101F000413F
S2140845D04FF0000070BD50EA410606BF1046194667
S2140845E052EA430619D094EA0C0F02D150EA013673
S2140845F013D195EA0C0F05D152EA03361CBF1046B4
S21408460019460AD181EA030101F0004141F0FE4152
S21408461041F470014FF0000070BD41F0FE4141F4D6
S214084620780170BD70B54FF0FF0C4CF4E06C1CEAD6
S21408463011541DBF1CEA135594EA0C0F95EA0C0F8B
S21408464000F0A7F8A4EB050481EA030E52EA033546
S2140846504FEA013100F088804FEA03334FF0805567
S21408466045EA131343EA12634FEA022245EA111594
S21408467045EA10654FEA00260EF000419D4208BF45
S214084680964244F1FD0404F5407402D25B084FEAF2
S2140846903202B61A65EB03055B084FEA32024FF49E
S2140846A080104FF4002CB6EB020E75EB030E22BFFB
S2140846B0B61A754640EA0C005B084FEA3202B6EBBB
S2140846C0020E75EB030E22BFB61A754640EA5C006A
S2140846D05B084FEA3202B6EB020E75EB030E22BFFA
S2140846E0B61A754640EA9C005B084FEA3202B6EBFB
S2140846F0020E75EB030E22BFB61A754640EADC00BA
S21408470055EA060E18D04FEA051545EA16754FEA1B
S21408471006164FEAC30343EA52734FEAC2025FEA39
S2140847201C1CC0D111F4801F0BD141EA00014FF0C8
S21408473000004FF0004CB6E711F4801F04BF014399
S2140847400020B4F1FD0C88BFBCF5E06F3FF6AFAEB5
S214084750B5EB030C04BFB6EB020C5FEA500C50F145
S214084760000041EB045170BD0EF0004E4EEA1131C8
S21408477014EB5C04C2BFD4EB0C0541EA045170BDCF
S21408478041F480114FF0000E013C90E645EA060E13
S2140847908DE60CEA135594EA0C0F08BF95EA0C0F41
S2140847A03FF43BAF94EA0C0F0AD150EA01347FF489
S2140847B034AF95EA0C0F7FF425AF104619462CE760
S2140847C095EA0C0F06D152EA03353FF4FDAE1046C3
S2140847D0194622E750EA410618BF52EA43067FF414
S2140847E0C5AE50EA41047FF40DAF52EA43057FF4A4
S2140847F0EBAE12E74FF0FF3C06E000BF4FF0010CAF
S21408480002E000BF4FF0010C4DF804CD4FEA410C12
S2140848107FEA6C5C4FEA430C18BF7FEA6C5C1BD0DF
S21408482001B050EA410C0CBF52EA430C91EA030F60
S21408483002BF90EA020F0020704710F1000F91EABD
S214084840030F58BF994208BF90422CBFD8176FEA8B
S214084850E37040F0010070474FEA410C7FEA6C5C59
S21408486002D150EA013C07D14FEA430C7FEA6C5C60
S214084870D6D152EA033CD3D05DF8040B704700BF8C
S2140848808446104662468C461946634600E000BFDA
S21408489001B5FFF7B7FF002848BF10F1000F01BDAC
S2140848A04DF808EDFFF7F4FF0CBF012000205DF877
S2140848B008FB00BF4DF808EDFFF7EAFF34BF0120FC
S2140848C000205DF808FB00BF4DF808EDFFF7E0FF95
S2140848D094BF012000205DF808FB00BF4DF808EDE6
S2140848E0FFF7CEFF94BF012000205DF808FB00BF4D
S2140848F04DF808EDFFF7C4FF34BF012000205DF82F
S21408490008FB00BF4FEA410212F5001215D211D576
S2140849106FF47873B3EB625212D94FEAC12343F0AF
S214084920004343EA505311F0004F23FA02F018BF31
S214084930404270474FF00000704750EA013005D1FA
S21408494011F0004008BF6FF0004070474FF00000BD
S214084950704700BF4A0011D212F5001211D20DD5C9
S2140849606FF47873B3EB62520ED44FEAC12343F068
S214084970004343EA505323FA02F070474FF0000012
S214084980704750EA013002D14FF0FF3070474FF0C1
S21408499000007047014B1868704700BFA80507203D
S2140849A070B50F4E0F4D761BB61007D0043D002489
S2140849B0013455F8043F9847A642F9D10A4E0B4DE4
S2140849C003F03AF9761BB61008D0043D00240134EB
S2140849D055F8043F9847A642F9D170BD70BD00BF90
S2140849E0447C0800447C08004C7C0800447C080092
S2140849F00FB410B5074B82B004AC54F8042B1868F3
S214084A0023468168019400F0EDF902B0BDE8104035
S214084A1004B07047A8050720844641EA000313F04F
S214084A20030349D1403A23D30B6803604B684360BD
S214084A308B688360CB68C3600B6903614B6943610D
S214084A408B698361CB69C3610B6A03624B6A4362F5
S214084A508B6A8362CB6AC3620B6B03634B6B4363DD
S214084A608B6B8363CB6BC36340304031403ADBD2F9
S214084A7030320BD30B6803604B6843608B688360E7
S214084A80CB68C36010301031103AF3D20C3205D31D
S214084A9051F8043B40F8043B043AF9D2043208D0F3
S214084AA0D2071CBF11F8013B00F8013B01D30B8865
S214084AB003806046704700BF082A13D38B07B1D01F
S214084AC010F00303AED0C3F10403D21ADB071CBFF1
S214084AD011F8013B00F8013BA4D331F8023B20F85B
S214084AE0023B9FE7043AD9D3013A11F8013B00F894
S214084AF0013BF9D20B7803704B7843708B78837040
S214084B0060467047F0B4840743D0541E002A3ED04F
S214084B10CDB2034603E0621E002C38D0144603F8D4
S214084B20015B9A07F7D1032C2AD9CDB245EA0525A9
S214084B300F2C45EA054515D9A4F110073F0903F1DE
S214084B40100606EB07161A46156055609560D56080
S214084B501032B242F8D104F00F040137032C03EBED
S214084B6007130DD91E462246043A032A46F8045B64
S214084B70FAD8221F22F003020432134404F0030476
S214084B802CB1C9B21C4403F8011BA342FBD1F0BCEC
S214084B90704714460346C6E700290CBF02220022C7
S214084BA04FF4806300F000B82DE9F0413C4D044610
S214084BB02D68884616461F4615B1AB6B002B4FD09E
S214084BC0022E30D8002F2EDB2846214601F088F822
S214084BD0A38900226260A2611A0628D423F0830300
S214084BE09BB2022EA3812DD0B8F1000F3CD0012E27
S214084BF013D09BB203F008002A4A80B2EA63C4F8CE
S214084C000080C4F81080676178B113F0030F18BFEE
S214084C100027A7600020BDE8F08143F001037A4230
S214084C20A381A261E5E74FF0FF30BDE8F081284692
S214084C30216901F0B5F9A389022E23F083039BB2FC
S214084C40A381D1D1002004F1430243F002030025DA
S214084C500121A381A560226022616161BDE8F0811F
S214084C60284601F059F8ABE7002F08BF4FF48067D5
S214084C70384601F08BFC804628B1A38943F08003B0
S214084C809BB2A381B3E74FF4806001F07FFC8046B7
S214084C9018B9A3894FF0FF30D5E74FF48067ECE7E3
S214084CA0A80507200D5D080020F0030110F003009A
S214084CB0C0F1000051F8043B00F1040C4FEACC0C9C
S214084CC06FF000021CBF22FA0CF213434FF0010CDF
S214084CD04CEA0C2C4CEA0C4CA3EB0C0222EA03021E
S214084CE012EACC1204BF51F8043B0430F4D013F097
S214084CF0FF0F1FBF013013F47F4F013013F47F0FEF
S214084D0018BF0130704700BF40EA01039B0770B424
S214084D102AD1032A28D90C460346214654F8045BB0
S214084D20A5F1013626EA050616F0803F05D1043AB5
S214084D30032A43F8045B2146EFD89AB10C78013A67
S214084D401C7001333CB16AB111F8014F013A03F8FF
S214084D50014B002CF7D12AB11A44002103F8011B95
S214084D609342FBD170BC70470346E6E74B6E2DE9CD
S214084D70F0479C040E46804691462AD593681268EA
S214084D8002F1080A1BB31AE9A000BF0817D0043DB1
S214084D90002401E0A74210D0404655F8041F3246CA
S214084DA001F050F8431C04F10104F3D10023C9F8BC
S214084DB00830C9F80430BDE8F087D9F80830A3EB06
S214084DC08703C9F808300AF1080A002BDBD100204F
S214084DD0ECE701F0B1F90023C9F80830C9F8043047
S214084DE0BDE8F0872DE9F04FB1B01C460291904619
S214084DF00893069018B1836B002B00F0E880029D9C
S214084E00AB899AB2900407D46A6E43F4005322F42E
S214084E100051AB819AB26966110740F1B780DDF898
S214084E2008B0DBF81030002B00F0B08002F01A0251
S214084E300A2A00F0B78000230DF180090A9315931B
S214084E4014930993CDF84C904E4698F80030002BF2
S214084E5000F0C884252B00F0C58408F1010201E0A3
S214084E60252B04D0137814460132002BF8D1C8EB52
S214084E70040595B1149B159A01332A44072BC6F8E6
S214084E8000807560159214937BDD002A40F0D58467
S214084E900998149228444E4609902378002B00F06F
S214084EA0ED8300214FF000024FF0FF3C63788DF849
S214084EB0472004918A4604F101080846654608F129
S214084EC00108A3F12002582A00F2D982DFE812F07E
S214084ED0CB02D702D702D202D702D702D702D7020E
S214084EE0D702D70282028F02D70284009302D70223
S214084EF02B01960196019601960196019601960158
S214084F0096019601D702D702D702D702D702D70250
S214084F10D702D702D702D7023001D702D702D70264
S214084F20D702D702D702D702D702D702D7027B0109
S214084F30D702D702D702D702D702A401D702D702D0
S214084F40BF01D702D702D702D702D702D702D702A5
S214084F50D702D702D702E401FA01D702D702D7024E
S214084F601602FA01D702D7021B02D70228028900C6
S214084F7066027D02D7023A02D7021901D702D70283
S214084F80AF02083609982844099086E706980299D9
S214084F9000F090FDB0B9029DAA8902F01A020A2A0A
S214084FA07FF449AFDDF808B0BBF90E30002BFFF6EA
S214084FB042AF069859464246234600F03DFD31B0BA
S214084FC0BDE8F08F4FF0FF3031B0BDE8F08F00F04D
S214084FD0A3FE14E7404208934AF0040A98F8003003
S214084FE06DE71AF020030490AC4600F0F480DDF874
S214084FF020B00BF1070323F0070303F10804089415
S214085000D3E9004500234FF0000000218DF8470043
S214085010CDF814C00791BCF1000FA8BF2AF0800A8B
S21408502054EA050240F0AD80BCF1000F40F0A980BC
S214085030002B40F0C0831AF0010F00F0BC83302329
S21408504030AF07F8413DC7EB09040594DDF814B006
S214085050079CE345B8BFE346CDF80CB01CB10BF18E
S214085060010BCDF80CB01AF00205079505D0DDF84F
S2140850700CB00BF1020BCDF80CB01AF084030B93AE
S21408508040F01B82049DDDF80CB0CBEB0504002C29
S21408509040F31382102C40F38984BE4D159A2B4694
S2140850A0149825464FF0100B6446B4461E4606E094
S2140850B0831C0CF1080C0846103D102D11DD411C10
S2140850C01032072915928CE840081491F0DD002A62
S2140850D040F0E681103D102D4FF001031046CC46F7
S2140850E0EDDC31466646A4462C460D462244072B80
S2140850F0159235607460149300F36D830836591C56
S214085100DEE11AF0200F0490AC4600F08D80089D72
S214085110EB1D23F0070303F1080BD3E90045CDF890
S21408512020B001236FE74AF0800A98F80030C6E6F8
S2140851304AF0100A1AF0200F0490AC468DF8471073
S21408514000F0C880089CE11D21F00701D1E9002382
S2140851500831089114461D46002A73F1000BC0F268
S214085160CE83BCF1000F9DF84700A8BF2AF0800A3E
S21408517054EA05020790CDF814C04FF001033FF437
S21408518053AF012B00F01983022B0DF17F0340F07B
S2140851904C82DDF828B0194604F00F0022091BF8E7
S2140851A0000042EA05722B09087052EA03000F460F
S2140851B014461D4601F1FF31EED1CDE90E23C7EBAB
S2140851C00903059342E74AF0100A1AF020030490F0
S2140851D0AC467FF40CAF1AF0100240F011831AF0B8
S2140851E0400300F00D83DDF820B01346BBF80040FE
S2140851F00BF1040B0025CDF820B004E7A3F130022C
S214085200002018F8013B00EB800002EB4000A3F1F9
S2140852103002092AF5D954E64AF0100A1AF0200F87
S2140852200490AC467FF473AF1AF0100F40F0EF828C
S2140852301AF0400F00F0EB82DDF820B00025BBF82E
S21408524000400BF1040B0123CDF820B0DBE6AC469A
S214085250514D1AF0200F04908DF847100A9500F06B
S214085260F080089DEA1D22F0070202F1080BCDF82F
S21408527020B0D2E900451AF0010F00F0AA8254EADD
S214085280050B00F0A68230228DF849304AF0020A53
S2140852908DF848200223B6E6089BDDF820B01B6888
S2140852A001244FF000050BF1040B049003948DF8CD
S2140852B047508DF85830CDF820B0059416AF4FF00B
S2140852C0000CD0E61AF0200F0490AC468DF8471074
S2140852D07FF438AF1AF0100F40F0A7821AF0400F8C
S2140852E000F0A382DDF820B0BBF900400BF1040BF8
S2140852F0E51722462B46CDF820B02DE74AF0400A9F
S21408530098F80030DBE598F8003042466C2B03BF6F
S21408531008F101084AF0200A53784AF0100ACEE548
S2140853201AF0200F8DF8471000F0F782089C2168C5
S214085330099CE5172B46089D224604350895C1E9C1
S214085340002382E5089CAC4627684FF000050490C9
S2140853508DF847500434002F00F03283BCF1000F5C
S2140853603846C0F2078362460021CDF804C001F033
S214085370B1FBDDF804C0002800F03A83C01B9DF896
S21408538047506045A8BF60460590089407954FF0BB
S214085390000C5BE6287C0800E87B0800089BDDF824
S2140853A020B00490B2481C68302278230BF1040B16
S2140853B0AC468DF849304AF0020ACDF820B00025F0
S2140853C08DF848200A9002231DE64AF0200A98F82D
S2140853D0003074E5DDF820B0DBF800000BF10403BC
S2140853E00028FFF6F7AD089398F8003067E598F8B8
S2140853F000302B2163E598F8003008F101042A2BC9
S21408540000F00583A3F13002092A98BF002500F2B0
S214085410FA8214F8013B05EB850502EB4505A3F176
S2140854203002092AF5D945EAE575A04649E5904CC3
S2140854301AF0200F0490AC460A948DF847107FF4B3
S21408544010AF1AF0100F40F0EA811AF0400F00F083
S214085450E681DDF820B00025BBF800400BF1040B10
S214085460CDF820B007E798F8003000297FF427AD7C
S214085470202124E54AF0010A98F800301FE5049038
S2140854808DF84710002B00F0F98001254FF0000B2F
S21408549003958DF858308DF847B0059516AF0EE78A
S2140854A00698029913AAFFF761FC002840F0ED80E1
S2140854B01498159A431CCC46FEE5149B159A591C5D
S2140854C09DF8470068B101320DF14700012307290E
S2140854D01592149186E8090000F360810B46083699
S2140854E00131079C64B1023212A8022307291592DB
S2140854F0149186E8090000F357810B4608360131F7
S2140855000B9D802D00F00181059DC5EB0C04002C39
S2140855102FDD102C574D22DD30464FF0100B2E464F
S2140855202546069C06E003F1020C08300B46103DA3
S214085530102D10DD591C10320729159280E84008F6
S2140855401491F0DD002A63D1103D102D4FF0010CA8
S21408555013464846EEDC2C46614635460646224447
S2140855600729159235607460149100F3C1800836D7
S2140855700131059D07292A441592376075601491F4
S21408558040F3C180002A40F0308114924E461AF04B
S214085590040F00F08B80049DDDF80CB0CBEB0504FF
S2140855A0002C40F38380102C40F31E821499324D51
S2140855B01027DDF818A0DDF808B005E0881C0836C6
S2140855C01946103C102C10DD4B1C1032072B159278
S2140855D086E8A0001493F1DD002A7DD1103C102C3B
S2140855E04FF0010011464E46EEDC2244072815927D
S2140855F035607460149059DD002A4FD1099CDDF897
S2140856000CB0049DAB45ACBF5C44641909945EE0DD
S2140856102046029913AAFFF7A9FB002835D1149B48
S214085620159A03F1010C484681E7E00840EA457000
S21408563004F00702E908303250EA010B1F461A70D8
S21408564004460D4603F1FF33EFD11AF0010FCDE9FA
S2140856500C01394600F0B980302A3FF4F4AC1F46F6
S214085660C7EB09053023059501F8013CEEE400BFB9
S214085670FC7B0800187C0800287C0800159B23B1D2
S2140856800698029913AAFFF771FB029CA3895B068A
S2140856903FF598AC099831B0BDE8F08F06980299A6
S2140856A013AAFFF763FB0028EFD1159A099CDDF8CB
S2140856B00CB0049DAB45ACBF5C446419099432B188
S2140856C00698029913AAFFF751FB0028DDD100209F
S2140856D014904E46FFF7B9BB5046594613AAFFF733
S2140856E045FB0028D1D11499159A481C4E4668E700
S2140856F0002A40F0F780059C0123209721941594F2
S214085700224614934E46083641E7049DDDF80CB051
S214085710CBEB0504002C7FF7F7AE102CA64D40F314
S214085720708129464FF0100B25466446B4460E464F
S21408573006E0981C0CF1080C0B46103D102D0FDDEA
S214085740591C1032072915928CE840081491F0DD90
S214085750BAB9103D102D4FF001001346CC46EFDCC9
S21408576033466646A4462C461D462244072815920C
S21408577035607460149000F3AF800836411C034609
S214085780C2E60698029913AAFFF7F0FA00287FF4F3
S2140857907CAF149B159A581CCC46CEE7002A79D1C4
S2140857A019464E4613469CE6002A40F0848001219E
S2140857B013464E46A4E64F4648E4002D08BF0A2C7A
S2140857C046D2303430AF07F8414DC7EB090305938E
S2140857D03CE4022317E4002A40F0AF801346012178
S2140857E04E466DE64446FFF758BB0698029913AA3C
S2140857F0FFF7BCFA00287FF448AF159A4E46C6E66F
S214085800089D2C68043508950025FFF7FCBB089D05
S21408581001232C68043508950025FFF7F4BB089D7E
S2140858202C6804350895002525E5089D2C68043560
S2140858300895E51722462B468EE40698029913AA81
S214085840FFF794FA00287FF420AF4E46FFF79ABB7E
S2140858500DF17F0B03965E46E346204629460A224C
S214085860002301F0B9FD30323270204629460A225C
S214085870002301F0B1FD04460D4654EA05003746FC
S21408588006F1FF36E9D1C7EB0903DC46039E05930C
S214085890FFF7DCBB0698029913AACDF804C0FFF7F9
S2140858A065FADDF804C000287FF4EFAE149B159A5D
S2140858B0591C4E4615E60698029913AACDF804C058
S2140858C0FFF754FADDF804C000287FF4DEAE149B18
