S013000054657374536368656D61312E73726563EF
S214080000A0AD0720952E0800912E0800912E080016
S214080010912E0800912E0800912E0800000000007E
S214080020000000000000000000000000091408009E
S214080030912E08000000000085140800C11408006E
S214080040912E0800912E0800912E0800912E080087
S214080050912E0800912E0800912E0800912E080077
S214080060912E0800912E080000000000012D0800BF
S214080070152D0800292D08003D2D08000000000059
S21408008000000000912E0800912E0800912E08000E
S214080090912E0800912E0800912E0800912E080037
S2140800A0912E080000000000912E0800912E0800EE
S2140800B0912E0800912E0800912E0800912E080017
S2140800C0912E0800912E0800912E0800912E080007
S2140800D0912E0800912E0800912E0800912E0800F7
S2140800E0912E0800912E0800912E0800912E0800E7
S2140800F0912E080010B5054C237833B9044B13B17C
S2140801000448AFF300800123237010BDE0090720E0
S214080110000000002C72080008B5064B1BB1064804
S2140801200649AFF300800648036813B1054B03B1D0
S214080130984708BD000000002C720800E409072054
S2140801402C720800000000002DE9F0410C4690468D
S21408015060B9002A0EDD8F18094E0A4D3068214610
S2140801602B6898470134BC42F8D106E04FF0FF30C0
S214080170BDE8F0810020BDE8F0814046BDE8F0818A
S214080180108D0720B48C0720F0B48CB007460E46B6
S21408019001AC124D0FCD0FC40FCD0FC495E8070064
S2140801A084E807006A46002352F8044FB6FBF4F4C6
S2140801B0B4FBF7F4B4F5807F03D901330B2BF3D1E6
S2140801C004E00A2B05D844EA032004E04FF6FF7043
S2140801D001E04FF6FF700CB0F0BC70476070080086
S2140801E070B506460C46086840B189680B4B9847B8
S2140801F005464FF6FF73984201D10EE00025606869
S21408020040B1A168054B98474FF6FF73984204D053
S21408021045EA00453560002070BD70BD89010800BC
S21408022070B40B688C8A4A6802F00F0214430D8972
S2140802302C438A7A44EA42248A7D44EA0244CA7DE8
S21408024044EA42440A7E44EA824400EB4312C2F877
S2140802500042CC68C2F804420C69C2F80C428A7D97
S2140802603AB18C8B4A8B42EA044400EB4312C2F83C
S2140802701842856C4FF001129A40D2431540CE7F43
S2140802809E408C7F9C4044EA06442C438464446C1D
S214080290224091F821509D4091F820409C4044EA25
S2140802A005442243426401229A4091F822401CB138
S2140802B0046A1443046203E0046A24EA020404623B
S2140802C091F82440012C846E0CBF14439443846632
S2140802D091F82540012C846E0CBF44EA024224EAB9
S2140802E002428266032B0CD8C46EDB00FF229A40BB
S2140802F024EA020291F8231001FA03F31343C366B3
S2140803000CE0043B046FDB00FF229A4024EA02025A
S21408031091F8231001FA03F313430367002070BC17
S214080320704700BF10B40C680B69934206D3CA60C6
S21408033000EB4410C0F80822002001E04FF6FF70DA
S2140803405DF8044B704700BF012303FA01F14160D2
S214080350704700BF012303FA01F18160704700BFB0
S214080360F0B583B004460D46002301931F4B984210
S21408037007D11F461E4E38462946B0470028FAD1F0
S21408038019E01C4B984209D11F461B4E384601A956
S214080390B0470028FAD1019B2B7019E0174B9842FA
S2140803A009D11E46144C304601A9A0470028FAD1A8
S2140803B0019B2B7018E0124B9C4209D11E460E4C2E
S2140803C0304601A9A0470028FAD1019B2B700BE004
S2140803D00C4B9C4208D11E46074C304601A9A04744
S2140803E00028FAD1019B2B7003B0F0BD00080E4020
S2140803F06D0B080000800940B90A080000C00940D3
S21408040000000A4000400A4070B50C46214B98424E
S21408041007D11E46204D30462146A8470028FAD167
S2140804202BE01E4B984207D11E461D4D30462146EE
S214080430A8470028FAD122E01A4B984207D11E4650
S214080440174D30462146A8470028FAD119E0164B22
S214080450984207D11E46124D30462146A847002826
S214080460FAD110E0114B98420FD11E460C4D30467B
S2140804702146A8470028FAD109E0012070BD0120CE
S21408048070BD012070BD012070BD002070BD012028
S21408049070BD00BF00080E405D0B080000800940D4
S2140804A0A50A080000C0094000000A4000400A40AB
S2140804B030B585B00820124DA847124C124B1C6068
S2140804C0124A134B1A60134A134B1A60134B0193C4
S2140804D04FF4E13302934FF4006303930820A847D0
S2140804E0204601A90E4B98470E4D2B6898680021A8
S2140804F00D4CA0472B6858680021A04705B030BDB2
S214080500392E080000080E40108D07200904080040
S2140805100C8D072061030800B48C072000BD010578
S214080520250B0800A0050720614208002DE9F84FB2
S21408053006460F4614461D46DFF854A0DDE90A01B4
S21408054032463B46D04780468946DDE90C012246BE
S2140805502B46D04704460D46DFF838A0DFF838B0FB
S2140805604046494642464B46D04706460F46204632
S214080570294622462B46D04702460B463046394681
S214080580D847024B9847BDE8F88F00BFA934080043
S21408059031370800993A080035370800000000008F
S2140805A02DE9F04104460D4616461F46DFF8F4814D
S2140805B0DDE9060122462B46C04704460D46DDE91E
S2140805C0080132463B46C04706460F46204629469F
S2140805D000220023DFF8A8C1E047A8B13046394614
S2140805E000220023664CA047002840F0AA80304628
S2140805F0394600220023634CA047002800F0A58057
S21408060000200021BDE8F08130463946002200234C
S214080610DFF86CC1E04760B1204629460022002377
S214080620584CA047002800F0948000205649BDE8A2
S214080630F0812046294600220023DFF848C1E0471B
S214080640B0B13046394600220023DFF838C1E0470B
S214080650B0B12046294632463B464C4CA0474C4B48
S214080660984743A3D3E900234A4CA047BDE8F08146
S2140806702046294600220023DFF808C1E047D0B10B
S2140806803046394600220023DFF81CC1E04790B107
S2140806902046294632463B463C4CA0473C4B9847AA
S2140806A033A3D3E900233B4CA04700223A4B3B4CEC
S2140806B0A047BDE8F0812046294600220023DFF83F
S2140806C0E8C0E047D0B13046394600220023DFF8BC
S2140806D0D8C0E047D0B12046294632463B462B4C88
S2140806E0A0472B4B984722A3D3E90023294CA047C1
S2140806F00022294B294CA047BDE8F0812046294610
S21408070000220023DFF8A0C0E04738B33046394659
S21408071000220023DFF86CC0E04718B320462946BD
S21408072032463B46194CA047194B984710A3D3E9C5
S2140807300023184CA0470022194B184CA047BDE8C8
S214080740F08100200021BDE8F08100201249BDE8B4
S214080750F08109A1D1E90001BDE8F081002000215F
S214080760BDE8F08100200021BDE8F081AFF30080ED
S214080770F8C1631ADCA54C400000000000E0704099
S214080780693F0800B93F080000805640ED3C080065
S21408079051310800993A080000806640353708004D
S2140807A000807640313708007D3F0800AFF30080B0
S2140807B02DE9F04784B0DDE90C45DDE90E89CDE981
S2140807C00045CDE90289DFF88CA0D04706460F46DB
S2140807D0DDE91023CDE90023DDE91223CDE9022364
S2140807E02046294642464B46D04732463B46124CA0
S2140807F0A04704460D460022104B114EB04738B1AC
S2140808002046294600220F4B0B4CA04704460D46AF
S2140808102046294600220C4B0C4EB04738B12046DD
S21408082029460022074B0A4CA04704460D46204698
S214080830294604B0BDE8F0873137080000806640D6
S214080840B93F080000807640008066C07D3F0800FB
S21408085035370800A105080038B555204FF08051F7
S2140808600B4B98470B4B04241C600B225A60002243
S2140808709A721A8141F64C511961DA60064D28467B
S2140808801946064B984728462146054B984738BDD3
S214080890F92A0800E08C07200040094021020800D9
S2140808A04903080038B556204FF080510B4B98473F
S2140808B00B4B05241C600B225A6000229A721A8180
S2140808C041F64C511961DA60064D28461946064B22
S2140808D0984728462146054B984738BDF92A080008
S2140808E0B88C072000400940210208004903080088
S2140808F030B585B024200D4B98470D4C2046042172
S2140809000C4DA84720460521A8470B4B019300230A
S21408091002930A4B0393204601A9094B9847094BB3
S2140809209847094B984705B030BD00BF392E0800D8
S214080930004009405503080040420F0000BD01056D
S214080940E101080059080800A508080008B5B0F530
S214080950487F05D340F69802904238BF024601E029
S2140809604FF4487202480349034B984708BD00BF36
S21408097000400940E08C07202503080008B5B0F5BC
S214080980487F05D340F69802904238BF024601E0F9
S2140809904FF4487202480349034B984708BD00BF06
S2140809A000400940B88C07202503080008B506480B
S2140809B04FF020514FF48052044B984718B1044B1F
S2140809C01A8801321A8008BD00120E40052A08004F
S2140809D0088D072008B506484FF020514FF480428E
S2140809E0044B984718B1044B1A8801321A8008BD80
S2140809F000100E40052A08000A8D072070B582B040
S214080A000C201A4CA0470D20A047194D28464FF435
S214080A1080510122174EB047174C20464FF48041AC
S214080A200122B047154B009328460D214FF48052FB
S214080A307023134EB047134B009320460C214FF4F7
S214080A4080427023B04728464FF480510E4DA84781
S214080A5020464FF48041A8470C4B4FF400521A60CA
S214080A604FF480521A6002B070BD00BF392E0800DD
S214080A7000120E405D2A080000100E40AD0908005E
S214080A80C52C0800D5090800E92A080000E100E09E
S214080A900023024A1380024A138070470A8D0720F3
S214080AA0088D0720436913F0020F1DBFC1F3080124
S214080AB0C161002001207047436913F0010F05D07B
S214080AC08369C3F308030B60002070470120704752
S214080AD02DE9F0410E461546013802280FD892B186
S214080AE00024DFF83C800D4FD8F80000315D3B68E5
S214080AF0984700280ADB0134A542F5D10AE04FF0F2
S214080B00FF30BDE8F0810020BDE8F0814FF0FF30EF
S214080B10BDE8F0812046BDE8F08100BF0C8D0720B7
S214080B20108D072010B4AC2303600A684B68B2FB2C
S214080B30F3F31B095C1E4FF6FE7294420AD8036252
S214080B408B68436040F20223C0F8203150230360CC
S214080B50002000E001205DF8044B7047436913F05D
S214080B60020F1ABFC161002001207047436913F0C5
S214080B70010F1DBF83690B7000200120704700BF5E
S214080B802DE9F04F89B0844B1B68002BB4BF4FF09B
S214080B90FF320122814B1A60814B1D88814B1E88CB
S214080BA005EB06084FEA68087F4C4046A047CDE9A3
S214080BB000017E4BC3E90001701BA04702460B46A6
S214080BC07B49C1E900237B49D1E9004520462946EF
S214080BD0794EB04706460F46784BC3E9006720466D
S214080BE0294600220023764CA047E0B13046394615
S214080BF000220023734CA047A8B1002200236D49A9
S214080C00C1E900236D49C1E9002300206E49086048
S214080C106E49C1E900231FFA88F8614BA3F80080E3
S214080C20604BA3F80080634BD3E900010022002341
S214080C30644CA047E8B1614BD3E9000100220023C9
S214080C405F4CA047A8B1002200235A49C1E90023F7
S214080C505A49C1E9002300205B4908605B49C1E99D
S214080C6000234F4908884F4B1A88024452080A80C6
S214080C701A80DFF85891D9E90067CDE90267524D26
S214080C80494C2868A047DFF88081DDE90223C04781
S214080C904F4B984728604F4BD3E90067CDE9046768
S214080CA0A04704460D464C4EDDE904014B4BD3E9FC
S214080CB00023B04702460B46494F20462946B84708
S214080CC0CDE90601474BC3E900013C4BD3E900AB2D
S214080CD0454BD3E90001DDE90423B04704460D4639
S214080CE050465946DDE90223DFF8CCC0E047024605
S214080CF00B4620462946B84704460D463B4BC3E9F3
S214080D000045DDE9060152465B46C04702460B46EB
S214080D1020462946C047364BD3E90023B847044641
S214080D200D46344BC3E90045C9E900ABDDE90001CF
S214080D30314BD3E90023B04706460F4612A3D3E942
S214080D400023DFF8C8C0E04738B93046394610A354
S214080D50D3E90023294EB04718B18222284B1A80BF
S214080D6002E0C822264B1A80204629460022254B38
S214080D70134EB04700284BD00022224B1D49C1E92C
S214080D80002351E0AFF30080CDCCCCCCCCCCEC3FEC
S214080D909A9999999999A93F180A07204001072016
S214080DA00A8D0720088D0720CD390800380A072045
S214080DB0100A0720480A072031370800280A0720A3
S214080DC0B93F08007D3F0800500A0720300A072070
S214080DD0CD3F080048010720ED3C080038010720F1
S214080DE0993A0800580A072030010720200A0720E9
S214080DF058010720000A0720888D0720913F080021
S214080E00500107200080514035370800A53F0800EC
S214080E10204629460022264B264CA04720B1002211
S214080E20234B2549C1E90023DFF8A8B0234EBBF8B9
S214080E300000B047DFF880A0214FDAE90023B84762
S214080E4004460D46DFF89090D9F80000B0470246F1
S214080E500B46DFF8888020462946C04712A3D3E908
S214080E600023B847174CA047174B9847BBF8000015
S214080E70B047DAE90023154DA84782468B46D9F8CD
S214080E800000B04702460B4650465946C04706A3E0
S214080E90D3E90023B847A0470D4B984709B0BDE8EB
S214080EA0F08F00BFAFF3008000000000007097408E
S214080EB0008051C07D3F0800000A0720CD39080091
S214080EC0353708001D4008007D090800313708003E
S214080ED04D0908005001072040010720993A0800EC
S214080EE02DE9F04F8BB0644B9847ADF826000024E8
S214080EF000250DF126006421604B9847604B1B784F
S214080F00052B00F29181DFE813F0060026014E015A
S214080F10D5008C017A005B485B4B98475B4A1368A0
S214080F20013313600A2B0CD15949D1E90C23C1E9C6
S214080F300823D1E90E23C1E90A230522554B1A7066
S214080F4072E1142B1CD15249D1E90023C1E90423CC
S214080F50D1E90223C1E90623D1E90C23C1E900231C
S214080F60D1E90E23C1E90223D1E91023C1E90823F8
S214080F70D1E91223C1E90A230522464B1A7053E128
S214080F801E2B1CD14249D1E90023C1E90423D1E92B
S214080F900223C1E90623D1E91023C1E90023D1E9D8
S214080FA01223C1E90223D1E91423C1E90823D1E9B0
S214080FB01623C1E90A230522364B1A7034E1282B7A
S214080FC040F032813249D1E90023C1E90423D1E94E
S214080FD00223C1E90623D1E91423C1E90023D1E994
S214080FE01623C1E90223D1E91823C1E90823D1E968
S214080FF01A23C1E90A230522264B1A7014E126484B
S214081000214FB847224ED6E90401D6E90623D6E989
S21408101000ABCDE900ABD6E902ABCDE902ABD6E929
S21408102008ABCDE904ABD6E90AABCDE906ABDFF8E9
S21408103078C0E047DFF874B0D8470146174B186009
S214081040DFF86CA05046B847D6E90001D6E9022377
S214081050D6E90889CDE90089D6E90A89CDE9028961
S2140810600F4EB047D84701460E4B18605046B84753
S2140810700122084B1A70D7E0BD1E0800112108008F
S214081080080A07208C700800B9400800400A0720A4
S214081090188D0720908D0720947008001C0A0720DA
S2140810A02D050800180A0720B1070800CD3F0800DC
S2140810B09C7008006248634B9847634B1B68634AFA
S2140810C0106800FB03F0624B98475BA3D3E9002344
S2140810D0604EB04706460F465F4BC3E900675F4B56
S2140810E0D3E9000100224FF08043DFF8CCC1E04787
S2140810F002460B4630463946594EB047002824D09B
S21408110040F2DC50574B984740F2DC50564B984715
S214081110564BC3E90045564BC3E900454F4BC3E958
S2140811200045544BC3E900450026534B1E60534BFD
S2140811301E60C822524B1A80434B1E60514B98477C
S214081140514B1E70514B1E606EE0514B9847032260
S2140811504D4B1A7068E04F483A4B984701224E4B61
S2140811601A60454B1B68002B03DA4FF0FF314A4ADA
S2140811701160494A106800FB03F000EBD07040107D
S214081180334B9847344BC3E9000140F2DC50354BEB
S214081190984740F2DC50344B98473A4B984702221F
S2140811A0394B1A7040E03D48264B98473C4B188808
S2140811B03C4B1B8818440130254B9847264BD3E9EF
S2140811C00023394EB047B0B140F2DC50254B984763
S2140811D040F2DC50244B98472A4B98470022264B6F
S2140811E01A601D4BC3E900451C4BC3E900450322A2
S2140811F0254B1A7018E02D4F274E3B68326802FBC5
S21408120003F000F2DC50184B98473B68326840F20F
S214081210DC5002FB1300134B984702221A4B1A7035
S21408122002E02348074B9847174B1A78214B1A7049
S2140812305FE600BFAFF30080333333333333F73F13
S214081240A0700800B9400800180A072040010720C7
S214081250CD390800ED3C0800888D0720380A07209D
S214081260913F08007D0908004D090800000A07207C
S214081270100A0720280A07201C0A0720500A0720F9
S21408128050010720910A0800908D07200C0A0720B5
S214081290810B0800A8700800948D0720B870080015
S2140812A00A8D0720088D0720A53F0800440107205F
S2140812B0C0700800080A072035370800AFF300801A
S2140812C070B40646164900220023C1E90023C1E986
S2140812D00223C1E904230024124DC1E90645C1E9E9
S2140812E00C230024104DC1E90E45C1E91045002421
S2140812F00E4DC1E91245C1E9142307A5D5E90045F5
S214081300C1E91645C1E91823C1E91A23304670BC5D
S214081310704700BFAFF300800000000000C07240B6
S214081320188D0720000059C0000059400000694089
S21408133000F1080343604FF6FF720281C360036141
S21408134000230360704700BF00230361704700BF97
S21408135043685A684A6042688A605A689160596069
S21408136041600861036801330360704710B40C8855
S2140813704FF6FF739C4201D103690CE000F10803A5
S214081380C268128892B2944205D35B685A6812887B
S21408139092B29442F9D25A684A6091608B6059605A
S2140813A008610368013303605DF8044B704700BFAB
S2140813B0436882689A60836842685A6003695A6814
S2140813C0824204BF82685A60002202611A68013AA3
S2140813D01A601868704700BF03480068006880F302
S2140813E0088862B600DF00BF08ED00E04FF08073A3
S2140813F040F8043C40F8081C002340F80C3C40F831
S214081400202C4038704700BF064B19680868B0E8BB
S214081410F00F80F309884FF0000080F311884EF033
S2140814200D0E7047888B07204FF08052014B1A60CC
S214081430704700BF04ED00E0EFF311804FF0A00105
S21408144081F311887047002008B5034B9847034B73
S2140814501A6801321A6008BD3914080060010720AE
S21408146080F31188704700BF08B5044A1368013B2B
S214081470136013B90020024B984708BD6001072087
S21408148061140800EFF309800C4B1A6820E9F00F86
S21408149010602DE908404FF0A00080F3118800F096
S2140814A0C5FE4FF0000080F31188BDE808401968B3
S2140814B00868B0E8F00F80F309887047888B072023
S2140814C008B54FF08052054B1A60054B9847054BF8
S2140814D098470020044B984708BD00BF04ED00E07D
S2140814E039140800DD1E080061140800034A044B7E
S2140814F01A600722043B1A60704700BF1F480100A5
S21408150014E000E010B5094B1A6842F470021A603D
S2140815101A6842F070421A60054B98470024054B3B
S2140815201C60054B9847204610BD00BF20ED00E024
S214081530ED14080060010720D913080030B4134AD8
S2140815401368834201D21A46FAE7114654681519F9
S214081550854203D16868044454601046426884187B
S214081560A3420CD10A4C24689C4206D05B681A44F5
S21408157042600B681B68036002E0036000E00360DB
S214081580814218BF086030BC704700BF648A0720D5
S214081590608A072038B50446284B9847284B1B68AE
S2140815A09BB9284A284B13600021516047F6F07211
S2140815B09818234D286047F6F475595199505A6083
S2140815C01860224B1A68103A1A60002C2DD004F1C5
S2140815D0100212F0070F1CBF22F007020832511E35
S2140815E047F6FE73994222D816490C6863689A42F1
S2140815F004D9236813B121461C46F7E7104B1B682D
S2140816009C4216D00D68103523680B6063689B1AD9
S214081610202B04D9A018436062600D4B98470B4BEB
S2140816201A686168521A1A6004E0002502E000256C
S21408163000E00025074B9847284638BDAD1E080031
S214081640608A0720648A0720600A0720640107204A
S2140816503D1508000920080010B5044668B1074B78
S2140816609847074B196854F80C2C0A441A60A4F1DA
S2140816701000044B9847044B984710BDAD1E080051
S214081680640107203D1508000920080010B5044627
S214081690036C3BB903681BBB4068134B9847002391
S2140816A063601DE06AB980681A46104B9847A268BE
S2140816B0236C1344A3606268934211D32368A36023
S2140816C00EE0C0681A46094B9847226C5242E368F7
S2140816D01344E36021688B4202D263681A44E260CE
S2140816E0A36B0133A36310BD55250800E14008002D
S2140816F038B5034605685DB1026CC4681444C46016
S2140817004068844228BFDD600846D968014B984780
S21408171038BD00BFE1400800F8B504461D4B9847A1
S214081720A36C002B12DD636A83B104F124061A4DFC
S2140817301A4F01E0636A4BB13046A84700B1B84774
S214081740A36C013BA364A36C002BF3DC4FF0FF33C0
S214081750A364134B98470F4B9847636C002B12DD16
S214081760236983B104F110060B4D0C4F01E0236981
S2140817704BB13046A84700B1B847636C013B636479
S214081780636C002BF3DC4FF0FF336364044B98471D
S214081790F8BD00BF4914080069230800A124080002
S2140817A06914080038B50D46044618B9164B98470C
S2140817B000BFFDE7154B98472368226CE06B00FBDB
S2140817C002F0191861600021A163A360821A13440D
S2140817D0E3604FF0FF336364A36455B923697BB1B4
S2140817E004F110000A4B9847012809D1094B98477D
S2140817F006E004F11000084DA84704F12400A847A5
S214081800064B9847012038BD3914080049140800CB
S2140818106923080029140800311308006914080011
S214081820F8B50D461746064688B150200E4B984721
S214081830044660B105FB06F001300B4B9847206064
S21408184040B92046094B984701E000BFFDE7084B22
S2140818509847FAE7E663256420460121054B984732
S21408186084F84D702046F8BD9515080059160800EE
S21408187039140800A51708002DE9F04F85B08A46E8
S2140818809B46ADF80620044618B9384B984700BF63
S214081890FDE709B9036C1BB90027354E354D03E043
S2140818A0324B984700BFFDE7B047A26BE36B9A42FE
S2140818B012D2204651465A462F4B9847636A3BB188
S2140818C004F124002D4B9847012801D12C4B98474A
S2140818D0284B9847012046E0BDF806301BB9254B33
S2140818E0984700203FE01FB902A8264B98470127D3
S2140818F0A847254B9847B047636CB3F1FF3F04BF32
S21408190000236364A36CB3F1FF3F04BF0023A36402
S214081910A84702A80DF106011C4B9847E8B9B0473E
S214081920D4F83890D4F83C80A847C1450FD104F1C4
S2140819301000BDF80610164B98472046154B9847DA
S214081940154B98470028AFD10D4B9847ACE7204673
S214081950104B9847104B9847A6E720460D4B9847DC
S2140819600D4B9847002005B0BDE8F08F39140800E5
S21408197049140800691408008D1608006923080031
S21408198029140800ED230800AD1E080015240800D9
S214081990BD22080019170800092008002DE9F041A3
S2140819A00E4615469846044618B91C4B984700BF7D
S2140819B0FDE729B9036C1BB1184B984700BFFDE734
S2140819C0164B98470746A26BE36B9A4218D22046F6
S2140819D031464246124B9847A36CB3F1FF3F0AD1F3
S2140819E0636A7BB104F124000E4B984760B16DB171
S2140819F001242C600BE0A36C0133A364012406E0E9
S214081A00002404E0012402E0012400E00124384612
S214081A10054B98472046BDE8F08100BF39140800FA
S214081A208D16080069230800611408002DE9F04F98
S214081A3085B089469A46ADF80620044618B9464B3E
S214081A40984700BFFDE709B9036C2BB90027434E3A
S214081A50DFF838B1424D03E03F4B984700BFFDE73B
S214081A60B047A36B002B28D0E568204649463D4B77
S214081A709847BAF1000F12D1A36B013BA363236802
S214081A8013B9394B98476060236993B104F1100085
S214081A90364B984701280CD1354B984709E0E56046
S214081AA0636A33B104F12400304B984708B1304BD1
S214081AB098472B4B984701204BE0BDF806301BB9DA
S214081AC0274B9847002044E017B902A8D8470127B3
S214081AD0A847284B9847B047636CB3F1FF3F04BF4D
S214081AE000236364A36CB3F1FF3F04BF0023A36421
S214081AF0A84702A80DF106011F4B984718BBB04728
S214081B00D4F83880A847B8F1000F16D1236823B94F
S214081B10B0476068194B9847A84704F12400BDF8F9
S214081B200610174B98472046164B9847164B98476B
S214081B30002895D10E4B984792E72046114B9847B8
S214081B40114B98478CE720460E4B98470E4B984704
S214081B50002005B0BDE8F08F3914080049140800C5
S214081B6069140800F1160800AD2408006923080067
S214081B7029140800AD1E080015240800D9240800FA
S214081B80BD2208001917080009200800ED230800E0
S214081B9038B504460D460D4B9847636CB3F1FF3FC6
S214081BA004BF00236364A36CB3F1FF3F04BF0023A4
S214081BB0A364074B9847A36B23B904F1240029466E
S214081BC0044B98472046044B984738BD49140800EC
S214081BD069140800212308001917080010B50446E0
S214081BE00F4B1B6898800F4B1B889BB2984207D2F6
S214081BF00D4B18680A4B196804310C4B984710BDF2
S214081C000B4B1868064B19680431084B9847094B64
S214081C101B889BB29C423CBF064B1C8010BD00BF75
S214081C20888B0720A48B0720A88B07206D13080035
S214081C30848A0720680107202DE9F84F0E461746C4
S214081C409A460A9DDDF83080814618B9624B984757
S214081C5000BFFDE7092D03D95F4B984700BFFDE796
S214081C6050205E4B98470446002800F0B180B8F133
S214081C70000F40F0A980B800584B9847206318B961
S214081C802046574B9847A3E0A521BA00554B9847DE
S214081C9007F18047013F236B03EB870323F0070B0D
S214081CA004F13400314610224F4B9847002384F83D
S214081CB04330092D34BF2E460926E662E664271D02
S214081CC03846DFF87081C04704F11800C047246121
S214081CD0C6F10A0626836462584649465246434B6E
S214081CE09847206010F0070F03D03B4B984700BF7B
S214081CF0FDE70B9B03B11C603D4B98473D4B1A68AC
S214081D0001321A603C4B1B682BBB3B4B1C60394BA3
S214081D101B68012B29D1394E06F1C809DFF8E08087
S214081D203046C04714364E45FAD1DFF80C9148467F
S214081D30334EB047DFF804814046B0473148B047D5
S214081D403148B0473148B047314BC3F80090314B63
S214081D50C3F8008009E0304B1B6833B9264B1B6874
S214081D60DB6A9D4224BF244B1C60E36A2B4A126838
S214081D70934284BF294A1360294A11686164013175
S214081D801160284A1268934284BF264A136003EB00
S214081D9083031A4800EB83003946234B9847234BA6
S214081DA098471D4B1B684BB1134B1B68DB6A9D425B
S214081DB007D91F4B98470120BDE8F88F0120BDE8DA
S214081DC0F88F0120BDE8F88FC0F8308040465BE702
S214081DD04FF0FF30BDE8F88F391408009515080055
S214081DE059160800CD410800D1430800ED13080035
S214081DF049140800C88B0720888B0720BC8A072050
S214081E00311308008C8B0720908A0720708A0720D9
S214081E10848A0720A88B0720888A0720CC8B07206F
S214081E20AC8B0720B88A07205113080069140800ED
S214081E302914080049130800B08B0720A48A072035
S214081E4010B584B0002300930193029303930F48C0
S214081E500F494FF480720F4CA04701280ED10E4B45
S214081E60984701280AD10D4B984701220C4B1A6057
S214081E7000220C4B1A800C4B984704E018B9074B05
S214081E80984700BFFDE704B010BD00BFA9210800B1
S214081E90DC700800391C08005126080039140800B0
S214081EA0888A0720A48B072005150800024B1A68A5
S214081EB001321A60704700BF848B072010B5044BA8
S214081EC09847044B1C88A4B2034B9847204610BD7D
S214081ED049140800A48B0720691408002DE9F0416E
S214081EE03D4B1B68002B71D13C4B1A88013292B2CD
S214081EF01A801B889BB203BB394B1B681B681BB137
S214081F00384B984700BFFDE7354B1968364A1068C6
S214081F1018601160354A1168013111601B681B682A
S214081F2023B94FF6FF72324B1A8006E02C4B1B681B
S214081F30DB68DB689A882E4B1A80284B1A8892B280
S214081F402B4B1B889BB29A4244D3254B1B681B68B5
S214081F5053B1234B1B68DB68DC68A3881F4A1288CA
S214081F6092B2934214D90FE04FF6FF72204B1A80B4
S214081F70BDE8F0811A4B1B68DB68DC68A388174A43
S214081F80128892B2934207D9194A1380BDE8F081A5
S214081F90184E194FDFF86C80251D2846B047A36AEF
S214081FA013B104F11800B047E36A3A68934288BF51
S214081FB03B6003EB830008EB800029460F4B9847ED
S214081FC0074B1B681B68002BD4D1CDE70C4B1A684F
S214081FD001321A60BDE8F081848B0720A48B0720A5
S214081FE0848A072039140800A88B0720A08B0720AE
S214081FF068010720B1130800B88A072051130800A3
S2140820006C8A0720BC8A07202DE9F843314B1B68E9
S2140820101BB9314B984700BFFDE7304B98472D4B0F
S2140820201A68013A1A601B68002B48D12C4B1B68AB
S214082030002B46D00025DFF8D4802A4F2A4E1DE014
S214082040D8F80C30DC6804F11800B84704F1040925
S2140820504846B847E36A3268934288BF336003EB62
S2140820608303224800EB83004946214B9847214BBF
S2140820701B68E26ADB6A9A4228BF0125D8F8003056
S214082080002BDDD11C4B1B6863B11B4B1B687BB157
S2140820901A4D194CA8472368013B23602368002B78
S2140820A0F8D105E0012D03D0154B1B68012B0AD18A
S2140820B00022134B1A60134B9847012404E00024AF
S2140820C002E0002400E000240F4B98472046BDE8B5
S2140820D0F88300BF848B07203914080049140800C9
S2140820E0C88B0720B1130800B88A0720BC8A0720C7
S2140820F051130800888B07206C8A0720DD1E08000D
S214082100C48B072029140800691408008C8B072044
S21408211038B50C46054618B91B4B984700BFFDE76F
S21408212019B9194B984700BFFDE7184B98472B88F5
S2140821301C44A4B2164A128892B2934208D9A34203
S2140821401ED9134B1B889BB22C809C4210D907E0E3
S214082150A34213D80E4B1B889BB29C420ED80FE0A6
S2140821600C4B186804300C4B984720460B4B984786
S2140821700B4B984730B90B4B984738BD2C80EFE788
S2140821802C80F5E738BD00BF39140800AD1E0800DE
S214082190A48B0720888B0720B1130800DD1B0800D6
S2140821A0092008002914080080B5154D154EDFF8DB
S2140821B078801CE0144B9847144B1C68144B9847BF
S2140821C0ACB1144B9847114BDB68DC68201D124BEA
S2140821D09847124B1A68013A1A602B68013B2B6025
S2140821E00F4B9847206B0F4FB8472046B8472B68C9
S2140821F0002BDFD13368012BF9D9C047F7E700BFBA
S2140822008C8A0720BC8A0720AD1E0800908A072003
S2140822100920080049140800B1130800C88B0720D5
S21408222069140800591608002914080008B51D4B3B
S2140822301B685BB91C4B1B6803EB83039B001B4A9C
S214082240D358CBB9184B1B6853B905E00122184B75
S2140822501A6008BD1A682AB9164B984700BFFDE7EA
S214082260114B12491A68013A1A601A6802EB820280
S21408227051F82220002AEDD00B4B1B6803EB830392
S2140822800A4A02EB83035A6852685A6003F1080147
S2140822908A4204BF52685A605B68DA68064B1A605E
S2140822A008BD00BF848B0720B88A0720BC8A072091
S2140822B0C48B072039140800888B072038B50C46CD
S2140822C018B90F4B984700BFFDE70E4D296818311F
S2140822D00D4B9847286804300C4B98474FF6FF7309
S2140822E09C4205D129680A4804310A4B984738BDEC
S2140822F0094B1888204480B2084B984738BD00BF61
S21408230039140800888B07206D130800B1130800DD
S214082310708A072051130800A48B0720DD1B0800CD
S21408232038B50D4618B90A4B984700BFFDE7094C63
S21408233021681831084B984720680430074B98479F
S214082340074B1888284480B2064B984738BD00BF0C
S21408235039140800888B072051130800B1130800A9
S214082360A48B0720DD1B080038B5C368DC681CB9D9
S214082370164B984700BFFDE704F118052846144B8E
S2140823809847144B1B689BB9251D2846104B984741
S214082390E36A114A1268934284BF0F4A136003EB3C
S2140823A083030E4800EB830029460D4B984703E04D
S2140823B00C4829460A4B98470B4B1B68E06ADB6AB1
S2140823C0984234BF0020012038BD00BF39140800E9
S2140823D0B1130800848B0720B88A0720BC8A072018
S2140823E0511308008C8B0720888B072008B518B96E
S2140823F0054B984700BFFDE7044A12680260044A86
S2140824001288828008BD00BF39140800A08B0720F8
S214082410A48B072038B50D46044618B91A4B9847BA
S21408242000BFFDE719B9184B984700BFFDE7174BE3
S21408243098472B884FF6FF7293421CD0144A1168AF
S21408244022688A4205D0134A128892B2A18891421D
S21408245013D9104A1188A288891A89B28B420ED9D4
S2140824600C49098889B2521A13442B8020460A4B15
S2140824709847002404E0002402E0012400E0012438
S214082480064B9847204638BD3914080049140800FA
S214082490A08B0720A48B0720ED23080069140800EA
S2140824A00122014B1A607047C48B0720014B18683D
S2140824B0704700BF888B0720054B1B6833B1054B58
S2140824C01B68002B14BF02200120704700207047AD
S2140824D0888A0720848B072038B5044600282ED023
S2140824E0C36A174A1268D26A934228D2144A1268F4
S2140824F0D26AC2F10A02028303EB8303114A02EB93
S214082500830342699A4216D1051D28460E4B984702
S2140825100B4B1B68DB6AE3620C4A1268934284BF63
S2140825200A4A136003EB8303064800EB8300294638
S214082530074B984738BD024B1B68DB6AC36238BD39
S214082540888B0720BC8A0720B1130800B88A0720A2
S2140825505113080038B50446D0B1C26AC36C9A4213
S21408256016D0051D28460B4B9847E36CE362C3F16B
S2140825700A022283084A1268934284BF064A1360F6
S21408258003EB8303054800EB83002946044B984772
S21408259038BD00BFB1130800B88A0720BC8A0720D8
S2140825A05113080010B504468180206191420BD86B
S2140825B0D31A018B9BB2994211D90B4B1868211D6F
S2140825C00A4B9847002010BD9A4201D2994208D279
S2140825D0074B1868211D054B9847002010BD0120A1
S2140825E010BD012010BD00BF048C07206D13080025
S2140825F0D08B072070B50D4B98470D4B1B688BB9D1
S2140826000C4D28460C4EB0470C4C2046B0470C4B99
S2140826101D600C4B1C6005200C2100220A4B9847B5
S214082620034B1860094B984770BD00BF4914080053
S214082630008C0720D48B072031130800E88B07206E
S214082640D08B0720048C072021180800691408007E
S21408265010B584B00B4B98470B4B1B6863B1092326
S21408266000930023019302930393084808494FF404
S2140826700072084CA04718B9074B984700BFFDE7FB
S21408268004B010BDF5250800008C0720B127080007
S214082690E8700800391C08003914080010B584B022
S2140826A0104C2468D4B10191ADF80820039073B992
S2140826B00D4B984701280B4B186801A907BFBDF8B2
S2140826C01820002300221346084CA04707E020469F
S2140826D001A91A460023064CA04700E0002004B0D3
S2140826E010BD00BF008C0720B92408007918080020
S2140826F09D1908002DE9F04782B08146244B98477B
S2140827008046244B1B88834237D9234E234F27E025
S214082710DA68B2F800A01FFA8AFADB68DC68251DBA
S2140827202846B847636A20469847E369012B17D1BD
S214082730238B53449BB2534506D9A3802461306843
S2140827402946174B98470BE0002300932046194666
S2140827505246144CA04718B9134B984700BFFDE7DC
S21408276033681A68002AD3D1104A11680A480160EB
S21408277013600123C9F8003002E00023C9F80030CE
S214082780044BA3F80080404602B0BDE8F08700BFBF
S214082790BD1E0800FC8B0720D08B0720B11308004D
S2140827A06D1308009D26080039140800048C0720BD
S2140827B02DE9F04387B0514DDFF87081504B1B6808
S2140827C01A68002A00F09080DB681E88B6B24D4B67
S2140827D0984703A84C4B98470746039B002B32D1D3
S2140827E0864225D8494B9847454B1B68DB68DC680A
S2140827F0201DC047E369012B15D1218B31442046A3
S21408280089B23A463346424FB84701280BD10023CF
S21408281000932046194632463E4EB04718B93E4BFE
S214082820984700BFFDE7636A204698470DE00026F4
S214082830F11B286889B2394B9847344B984720B91A
S214082840374B984701E0314B984702A82E4B9847DC
S2140828500746344EDFF8B8903EE0059C1CB1616927
S21408286009B1201DC0470399022923D0032930D077
S214082870002931D1BDF81030218B1944204689B281
S2140828803A46C847012827D1636A20469847E3692D
S214082890012B21D1228BBDF810301A440023009357
S2140828A02046194692B21B4CA047A8B91A4B98471F
S2140828B000BFFDE7BDF8103023831BB9164B9847B9
S2140828C000BFFDE7F918204689B23A463B46C84796
S2140828D002E02046144B9847286803A900221346AE
S2140828E0B0470028B9D169E7064B984703A8064BB6
S2140828F098470746039B002B99D0A4E7008C07202F
S214082900D08B0720AD1E0800F52608000920080011
S214082910A52508009D26080039140800911B080004
S214082920291408002D1A080059160800B1130800C3
S21408293010B50E480E4B984700203E210D4B984781
S2140829400D4CA0470028FCD00C4B98470C4A0D4B62
S2140829509A620D4CA0470028FCD010200B4B9847D5
S2140829600B4B98470148024B984710BD00BD010520
S214082970A5000720B52D0800092E0800192E080006
S214082980013F0D2000060E40292E0800512D080094
S214082990452F080010B54FF40042134B5A600B2021
S2140829A0124CA0470C20A0470D20A0470E20A04799
S2140829B03B204FF060510E4CA04755204FF0605119
S2140829C0A04756204FF06051A04768200949A04705
S2140829D05C200949A04709484FF440714FF000624F
S2140829E0074B984710BD00BF501A0E40392E0800F6
S2140829F0F92A08007900002801000028000E0E4079
S214082A00CD2B080021F00061B1F1405F0CBF836B4D
S214082A10C36B13420CBF0020012070474264B1F11B
S214082A20805F16D004D8C1B1B1F1006F0AD013E0A8
S214082A30B1F1405F11D0B1F1605F0ED0B1F1205F07
S214082A400AD17047036F016F0B4023EA020303673E
S214082A5002E0036F1343036742607047416412F055
S214082A60010F14BF4166016612F00A0F14BF016217
S214082A70416212F0020F02D0C0F8801004E012F093
S214082A80080F18BFC0F8841041610160704700BF86
S214082A9010B44164019C0CB1416600E001660BB1BC
S214082AA0016500E041650AB1016300E04163016128
S214082AB001605DF8044B704712F0100F10D0C0F894
S214082AC0B01012F0200F14BFC0F8D410C0F8D01001
S214082AD012F0400F14BFC0F8C010C0F8C4107047FA
S214082AE0C0F8B410704700BFC36C0164704700BFDD
S214082AF0C06C7047806C704770B582B00D4644094C
S214082B0004F5001404F20774660201F0F044B4F108
S214082B10205F30D006D8B4F1006F0AD0B4F1805FD9
S214082B2018D049E0B4F1405F30D0B4F1605F2DD0E2
S214082B3042E000F01F000124844030464FF0006158
S214082B4022461F4B984715F0010F14BF746634666B
S214082B50012032E000F01F000124844030464FF088
S214082B6080512246164B984715F0010F14BF74661D
S214082B703466012021E000F01F010124304604FAE3
S214082B8001F12A460F4B9847204616E000F01F0131
S214082B90012405F0605205EA04030093304604FA5F
S214082BA001F1B2F1605F14BF00220122C5F3800371
S214082BB0054DA847204600E0002002B070BD00BFC3
S214082BC01D2A08005D2A0800912A0800F0B583B07F
S214082BD007460E46154602F0F044B4F1205F26D0AC
S214082BE006D8B4F1006F0AD0B4F1805F13D034E091
S214082BF0B4F1405F1FD0B4F1605F1CD02DE04FF0F9
S214082C0000613246164B984715F0010F14BF7E66D2
S214082C103E66012022E04FF080513246104B98471E
S214082C2015F0010F14BF7E663E66012016E00D4BB8
S214082C309847012012E005F0605205F00103009362
S214082C4038463146B2F1605F14BF00220122C5F350
S214082C508003054CA047012000E0002003B0F0BD2B
S214082C601D2A08005D2A0800912A08002DE9F0416F
S214082C7004460E46104B9847054620460F4B984785
S214082C80054017D00E4F07F10C046C3754F80C3C6F
S214082C90B3420AD154F8081C294206D023683046A5
S214082CA0984754F8083C25EA0305BC4202D010347D
S214082CB0002DEBD1BDE8F081F12A0800F52A0800BE
S214082CC00C8C0720F8B50B4C2468062C10D80A4F35
S214082CD02601BD19B9516A60AB600699E9600134EE
S214082CE004490C6011461A46044B98470020F8BD64
S214082CF00120F8BD088C07200C8C0720B92A08008C
S214082D0008B502480B21024B984708BD000E0E4036
S214082D106D2C080008B502480C21024B984708BDE0
S214082D2000100E406D2C080008B502480D21024B15
S214082D30984708BD00120E406D2C080008B50248DA
S214082D400E21024B984708BD00140E406D2C080053
S214082D50174B1A6B22F07002104318639B6E13F021
S214082D60080F09D14FF40063114901E0013B19D05F
S214082D708A6E12F0080FF9D00D4B1A6B22F0030278
S214082D8042F002021A63986E10F008000CD14FF455
S214082D900063074901E0013B08D08A6E12F0080F6D
S214082DA0F9D070470120704700207047012070470F
S214082DB000060E4038B111490B6A114A1A40114BE9
S214082DC013430B6270470D4A136A23F45C1323F00F
S214082DD0030343F45C1343F00103090289B20B436F
S214082DE01362936E13F0010FFBD0044A136A43F084
S214082DF09B7343F480331362704700BF00060E408F
S214082E00FCFFC8FE02003701024B986E00F48030C3
S214082E10704700BF00060E404FF00052014B9A6202
S214082E20704700BF00060E40024B986E00F0020086
S214082E30704700BF00060E402C2820D81F280DD843
S214082E40124B9A69012383401A40934219D00123F2
S214082E5003FA00F00D4B1861002070470B4BD3F8AF
S214082E6008212038012383401A4093420BD00123BF
S214082E7003FA00F0054BC3F8000100207047012054
S214082E807047002070470020704700BF00060E40BD
S214082E90FEE700BF10B51E4B1E4A9A4203D01E4BD3
S214082EA01B4A9A4204D31D4B1D4A9A420FD31AE076
S214082EB01C4B1D4CE41A24F0030404340023144865
S214082EC014495A581A500433A342FAD1EBE7174B61
S214082ED01749C91A21F003011A1D1144002243F8A4
S214082EE0042F8B42FBD1134A22F0604323F07F0362
S214082EF011498B6002F16042B2F5801F03D28A68DE
S214082F0042F000528A600D4B98470D4B9847FEE7F3
S214082F10000007202C720800DC0907209C8D07207B
S214082F20E009072004000720DF090720DC0907203E
S214082F30978D07200000080000ED00E069400800B3
S214082F40B13008003E4B1B6B03F00303032B5FD81E
S214082F50DFE803F0020E2B2B3A4B5B6913F0800F69
S214082F6014BF4FF400424FF4FA42374B1A604FE052
S214082F70334B1B6A13F0807F03D0344A324B1A60F7
S214082F8046E0334A304B1A602D4B1B6A03F0700339
S214082F90102B02D0202B04D03AE02E4A2A4B1A6077
S214082FA036E02A4A284B1A6032E0254B1B6A13F093
S214082FB0807F03D0254A244B1A6012E0244A224B0D
S214082FC01A601F4B1B6A03F07003102B02D0202BCD
S214082FD004D006E01F4A1C4B1A6002E01B4A1A4B34
S214082FE01A60174B1B6B03F00303022B0DD1144B0F
S214082FF0986A996A144BC0F30A401A6800FB0222C2
S214083000C9B2B2FBF1F21A6002E0134A0E4B1A601C
S2140830100B4B1B6B03F07003702B07D10A4B1A6817
S2140830200E49A1FB020252081A607047044B196B3E
S214083030054BC1F302111A68CA401A60704700BFF0
S21408304000060E40101A0E406C010720001BB70041
S21408305000093D0000127A00001C4E0EABAAAAAA70
S214083060094B1B6813B9094A074B1A60064B1B68BD
S2140830701A180749914204DB1046034A106018469E
S21408308070474FF0FF3070477C8C0720A0AD0720B4
S214083090FC7F08204FF0FF30704700BF4FF4005306
S2140830A04B600020704700BF012070470020704723
S2140830B010B5A0B0154B9847154B9847154B984731
S2140830C0154B9847154B984704A8154B984715482D
S2140830D01549164CA04716481649174AA04706230E
S2140830E000930023019302930393144814494FF462
S2140830F08072144CA047012802D013480B4B9847FF
S214083100124B9847002020B010BD00BF3129080098
S21408311095290800B1040800FD090800F108080010
S214083120C1120800F0700800F8700800B9400800DE
S21408313008710800207108002C710800E10E0800CC
S21408314038710800391C080040710800411E080044
S2140831502DE9F04FB64B21F000469E4283B0044658
S2140831600D4689460FDDB3498E4200F3B38000F062
S214083170AE80B9F1000F40F3EF8091A1D1E90001CC
S21408318003B0BDE8F08FAC4B9E4200F3BD80A3F1C0
S214083190DE739E4240F3A7804FF0FF3C22462B4644
S2140831A020462946CDF804C000F076FC02460B46B9
S2140831B082468B4600F070FC83A3D3E900230646BC
S2140831C00F4600F069FC82A3D3E9002300F0B2FAA8
S2140831D032463B4600F060FC7FA3D3E9002300F0AC
S2140831E0A9FA32463B4600F057FC7DA3D3E90023F4
S2140831F000F0A0FA32463B4600F04EFC7AA3D3E92C
S214083200002300F097FA32463B4600F045FC78A3C8
S214083210D3E9002300F08EFA52465B4600F03CFCE9
S21408322075A3D3E9002382468B463046394600F01C
S21408323033FC73A3D3E9002300F07AFA32463B4600
S21408324000F02AFC70A3D3E9002300F071FA324696
S2140832503B4600F021FC6EA3D3E9002300F068FA91
S21408326032463B4600F018FC6BA3D3E9002300F077
S2140832705FFA32463B4600F00FFCDDF804C0024613
S214083280BCF1FF3F0B466BD0504659464FEACC067A
S21408329000F050FA22462B4600F0FEFB674F684BBC
S2140832A037441E44D6E9002300F042FA22462B464D
S2140832B000F03EFA02460B46D7E9000100F038FA5D
S2140832C0B9F1000F0CDA01F10045294608E000289C
S2140832D03FF44FAF2046294622462B4600F02AFAEE
S2140832E003B0BDE8F08F4EA3D3E9002300F022FA1E
S2140832F00022544B00F060FE00283FF44DAF2046F5
S214083300294603B0BDE8F08F00F0CAF84E4B0446D5
S2140833109E420D4633DCA3F550239E4200F3A5805B
S21408332002460B4600F006FA0022464B00F000FA6A
S214083330002206460F46204629464FF0804300F0F6
S214083340F9F902460B463046394600F0CFFC4FF0F6
S214083350000C04460D4621E733A1D1E90001BFE77A
S2140833605046594600F0E6F922462B4600F094FBF4
S21408337002460B462046294600F0DAF9B0E7334BFA
S2140833809E4267DC0022324B00F0D2F90022064645
S2140833900F46204629462E4B00F07EFB0022294B7E
S2140833A000F0C8F902460B463046394600F09EFC47
S2140833B04FF0020C04460D46F0E600BFAFF300805F
S2140833C0182D4454FB21F93F11DA22E33AAD903F19
S2140833D0EB0D76244B7BA93F513DD0A0660DB13F3F
S2140833E06E204CC5CD45B73FFF8300922449C23FA7
S2140833F00D5555555555D53F2F6C6A2C44B4A2BF6C
S2140834009AFDDE522DDEAD3F6D9A74AFF2B0B33F33
S214083410711623FEC671BC3FC4EB98999999C93FAB
S2140834209C7500883CE4377E182D4454FB21F9BF70
S214083430FFFF0F440000F07FFFFFDB3F80710800AE
S214083440607108000000F03FFFFFF23FFF7F034077
S2140834500000F83F02460B4600200F4900F046FCE5
S2140834604FF0030C04460D4698E600220B4B00F07E
S2140834705FF9002206460F4620462946074B00F00D
S21408348059F902460B463046394600F02FFC4FF0F5
S214083490010C04460D4681E60000F0BF0000F03F30
S2140834A021F00041704700BF2DE9F0478AB0044676
S2140834B00D4600F04FF8DFF898A006469AF9003057
S2140834C00F4601330FD02046294600F003F950B1C5
S2140834D04FF000084FF0000942464B462046294662
S2140834E000F04CFD20B9304639460AB0BDE8F087F2
S2140834F016499AF8006001220023CDE90445CDE973
S214083500024501910092089366B9CDE90689684696
S21408351000F008F980B1089B9BB9DDE906010AB0FE
S214083520BDE8F0874046494642464B4600F0DEFB7B
S214083530022ECDE90601EAD100F090FD21230360B2
S214083540E9E700F08BFD089B0360E6E7A07108003A
S2140835507001072021F0004C2DE9F8434FEA1C5C67
S214083560DFF86C814FEA0C5CC44506460F460B46EE
S214083570024600F08F8000296FDD0F1578D0A7F27D
S214083580FF37C3F31303F90743F4801360D4D10F4E
S2140835904FF0000C01EB43037F10520065461620DF
S2140835A04FF400116C189C424FEAD2764FEA42025A
S2140835B002DC1B1B65188C44013806EB43034FEAF4
S2140835C05101EFD1804620264FF0004109E023D074
S2140835D0D40F013E4FEA510104EB43034FEA42027F
S2140835E01ED0AB4201EB0804F1DD04F00049B9F146
S2140835F0004F04EB010809D0A9465B1B944288BF1C
S21408360003F1FF33121B08444D46E1E7B8F1000FFB
S214083610F2DB05F10109F0E79442E6D91D46D7E743
S2140836201A4304D0431C41D000F00103184446084E
S2140836304FEA6C031CF0010F03F17F5303F50013E8
S21408364018BF46F0004603EB07513046BDE8F8833E
S214083650D10F01EB4303520099E721F000430343DF
S21408366022D051BB0F46D30A153F5205002BFAD07D
S21408367013F480111DD15B00D80201F10101FAD5BF
S214083680C1F10100C1F1200422FA04F407448A407B
S214083690234374E702460B4600F0FEF932463B46E3
S2140836A000F048F8BDE8F883BDE8F8830CF1010C93
S2140836B0BEE7202401200021E6E702460B4600F07C
S2140836C037F802460B4600F011FBBDE8F88300BF4A
S2140836D00000F07F31F0004310B408D00F4AA3F57D
S2140836E0801494420AD804205DF8044B70470028DA
S2140836F00CBF022003205DF8044B7047B3F5801F0B
S21408370001D20320F7E7064A934201D00020F2E7E9
S214083710D0F1010038BF0020EDE700BFFFFFDF7FD4
S2140837200000F07F0020704781F0004102E000BFF3
S21408373083F0004330B54FEA41044FEA430594EA64
S214083740050F08BF90EA020F1FBF54EA000C55EA9F
S214083750020C7FEA645C7FEA655C00F0E2804FEA70
S2140837605454D4EB5555B8BF6D420CDD2C4480EA52
S214083770020281EA030382EA000083EA010180EA82
S214083780020281EA0303362D88BF30BD11F0004FD0
S2140837904FEA01314FF4801C4CEA113102D0404206
S2140837A061EB410113F0004F4FEA03334CEA133341
S2140837B002D0524263EB430394EA050F00F0A78059
S2140837C0A4F10104D5F1200E0DDB02FA0EFC22FA54
S2140837D005F2801841F1000103FA0EF2801843FA48
S2140837E005F359410EE0A5F120050EF1200E012A39
S2140837F003FA0EFC28BF4CF0020C43FA05F3C01877
S21408380051EBE37101F0004507D54FF0000EDCF1EF
S214083810000C7EEB00006EEB0101B1F5801F1BD398
S214083820B1F5001F0CD349085FEA30004FEA3C0C9C
S21408383004F101044FEA445212F5800F80F09A8092
S214083840BCF1004F08BF5FEA500C50F1000041EB96
S214083850045141EA050130BD5FEA4C0C404141EB9A
S214083860010111F4801FA4F10104E9D191F0000FC1
S21408387004BF01460020B1FA81F308BF2033A3F144
S2140838800B03B3F120020CDA0C3208DD02F1140C3B
S214083890C2F10C0201FA0CF021FA02F10CE002F176
S2140838A01402D8BFC2F1200C01FA02F120FA0CFC6F
S2140838B0DCBF41EA0C019040E41AA2BF01EB0451B8
S2140838C0294330BD6FEA04041F3C1CDA0C340EDCB6
S2140838D004F11404C4F1200220FA04F001FA02F3F9
S2140838E040EA030021FA04F345EA030130BDC4F1B7
S2140838F00C04C4F1200220FA02F001FA04F340EAAC
S2140839000300294630BD21FA04F0294630BD94F05C
S214083910000F83F4801306BF81F480110134013D43
S2140839204EE77FEA645C18BF7FEA655C29D094EAB4
S214083930050F08BF90EA020F05D054EA000C04BF32
S2140839401946104630BD91EA030F1EBF002100201D
S21408395030BD5FEA545C05D14000494128BF41F0BC
S214083960004130BD14F580043CBF01F5801130BD20
S21408397001F0004545F0FE4141F470014FF00000AB
S21408398030BD7FEA645C1ABF194610467FEA655C5C
S2140839901CBF0B46024650EA013406BF52EA0335FE
S2140839A091EA030F41F4002130BD00BF90F0000FEC
S2140839B004BF0021704730B54FF4806404F1320428
S2140839C04FF000054FF0000150E700BF90F0000FE1
S2140839D004BF0021704730B54FF4806404F1320408
S2140839E010F0004548BF40424FF000013EE700BFD8
S2140839F042004FEAE2014FEA31014FEA02701FBF68
S214083A0012F07F4393F07F4F81F06051704792F039
S214083A10000F14BF93F07F4F704730B54FF46074B3
S214083A2001F0004521F0004120E700BF50EA0102FE
S214083A3008BF704730B54FF000050AE050EA0102AB
S214083A4008BF704730B511F0004502D5404261EB1B
S214083A5041014FF4806404F132045FEA915C3FF45C
S214083A60DCAE4FF003025FEADC0C18BF03325FEAF5
S214083A70DC0C18BF033202EBDC02C2F1200300FAAA
S214083A8003FC20FA02F001FA03FE40EA0E0021FACF
S214083A9002F11444C1E600BF70B54FF0FF0C4CF4B9
S214083AA0E06C1CEA11541DBF1CEA135594EA0C0F6F
S214083AB095EA0C0F00F0DEF82C4481EA030621EAAA
S214083AC04C5123EA4C5350EA013518BF52EA0335E5
S214083AD041F4801143F4801338D0A0FB02CE4FF097
S214083AE00005E1FB02E506F00042E0FB03E54FF0C7
S214083AF00006E1FB03569CF0000F18BF4EF0010EBF
S214083B00A4F1FF04B6F5007F64F5407404D25FEABA
S214083B104E0E6D4146EB060642EAC62141EA55516D
S214083B204FEAC52040EA5E504FEACE2EB4F1FD0CAF
S214083B3088BFBCF5E06F1ED8BEF1004F08BF5FEA2D
S214083B40500E50F1000041EB045170BD06F00046DF
S214083B5046EA010140EA020081EA0301B4EB5C048C
S214083B60C2BFD4EB0C0541EA045170BD41F4801184
S214083B704FF0000E013C00F3AB8014F1360FDEBFA9
S214083B80002001F0004170BDC4F10004203C35DA85
S214083B900C341BDC04F11404C4F1200500FA05F308
S214083BA020FA04F001FA05F240EA020001F00042A9
S214083BB021F0004110EBD37021FA04F642EB06011F
S214083BC05EEA430E08BF20EAD37070BDC4F10C0449
S214083BD0C4F1200500FA04F320FA05F001FA04F20D
S214083BE040EA020001F0004110EBD37041F10001F9
S214083BF05EEA430E08BF20EAD37070BDC4F1200504
S214083C0000FA05F24EEA020E20FA04F301FA05F26B
S214083C1043EA020321FA04F001F0004121FA04F213
S214083C2020EA020000EBD3705EEA430E08BF20EAE3
S214083C30D37070BD94F0000F0FD101F0004640001D
S214083C4041EB010111F4801F08BF013CF7D041EA9F
S214083C50060195F0000F18BF704703F000465200A3
S214083C6043EB030313F4801F08BF013DF7D043EA74
S214083C700603704794EA0C0F0CEA135518BF95EA2A
S214083C800C0F0CD050EA410618BF52EA4306D1D1B1
S214083C9081EA030101F000414FF0000070BD50EAD0
S214083CA0410606BF1046194652EA430619D094EA5A
S214083CB00C0F02D150EA013613D195EA0C0F05D144
S214083CC052EA03361CBF104619460AD181EA030198
S214083CD001F0004141F0FE4141F470014FF0000050
S214083CE070BD41F0FE4141F4780170BD70B54FF0EB
S214083CF0FF0C4CF4E06C1CEA11541DBF1CEA13556B
S214083D0094EA0C0F95EA0C0F00F0A7F8A4EB05044C
S214083D1081EA030E52EA03354FEA013100F0888043
S214083D204FEA03334FF0805545EA131343EA12630C
S214083D304FEA022245EA111545EA10654FEA0026C1
S214083D400EF000419D4208BF964244F1FD0404F57A
S214083D50407402D25B084FEA3202B61A65EB0305D6
S214083D605B084FEA32024FF480104FF4002CB6EB93
S214083D70020E75EB030E22BFB61A754640EA0C0013
S214083D805B084FEA3202B6EB020E75EB030E22BF53
S214083D90B61A754640EA5C005B084FEA3202B6EB94
S214083DA0020E75EB030E22BFB61A754640EA9C0053
S214083DB05B084FEA3202B6EB020E75EB030E22BF23
S214083DC0B61A754640EADC0055EA060E18D04FEAE1
S214083DD0051545EA16754FEA06164FEAC30343EA81
S214083DE052734FEAC2025FEA1C1CC0D111F4801F4E
S214083DF00BD141EA00014FF000004FF0004CB6E747
S214083E0011F4801F04BF01430020B4F1FD0C88BFE5
S214083E10BCF5E06F3FF6AFAEB5EB030C04BFB6EBF0
S214083E20020C5FEA500C50F1000041EB045170BDE3
S214083E300EF0004E4EEA113114EB5C04C2BFD4EB10
S214083E400C0541EA045170BD41F480114FF0000E94
S214083E50013C90E645EA060E8DE60CEA135594EA10
S214083E600C0F08BF95EA0C0F3FF43BAF94EA0C0F13
S214083E700AD150EA01347FF434AF95EA0C0F7FF488
S214083E8025AF104619462CE795EA0C0F06D152EADC
S214083E9003353FF4FDAE1046194622E750EA4106C0
S214083EA018BF52EA43067FF4C5AE50EA41047FF4D1
S214083EB00DAF52EA43057FF4EBAE12E74FF0FF3C36
S214083EC006E000BF4FF0010C02E000BF4FF0010C07
S214083ED04DF804CD4FEA410C7FEA6C5C4FEA430C80
S214083EE018BF7FEA6C5C1BD001B050EA410C0CBFCF
S214083EF052EA430C91EA030F02BF90EA020F002031
S214083F00704710F1000F91EA030F58BF994208BF97
S214083F1090422CBFD8176FEAE37040F00100704754
S214083F204FEA410C7FEA6C5C02D150EA013C07D1AB
S214083F304FEA430C7FEA6C5CD6D152EA033CD3D0F6
S214083F405DF8040B704700BF8446104662468C46F0
S214083F501946634600E000BF01B5FFF7B7FF002823
S214083F6048BF10F1000F01BD4DF808EDFFF7F4FF4C
S214083F700CBF012000205DF808FB00BF4DF808EDD7
S214083F80FFF7EAFF34BF012000205DF808FB00BFFA
S214083F904DF808EDFFF7E0FF94BF012000205DF81C
S214083FA008FB00BF4DF808EDFFF7CEFF94BF0120D1
S214083FB000205DF808FB00BF4DF808EDFFF7C4FFCA
S214083FC034BF012000205DF808FB00BF4FEA41021D
S214083FD012F5001215D211D56FF47873B3EB62524E
S214083FE012D94FEAC12343F0004343EA505311F075
S214083FF0004F23FA02F018BF404270474FF0000007
S214084000704750EA013005D111F0004008BF6FF044
S214084010004070474FF00000704700BF4A0011D2BA
S21408402012F5001211D20DD56FF47873B3EB625205
S2140840300ED44FEAC12343F0004343EA505323FA11
S21408404002F070474FF00000704750EA013002D186
S2140840504FF0FF3070474FF000007047014B18686C
S214084060704700BFA005072070B50F4E0F4D761B92
S214084070B61007D0043D0024013455F8043F98478D
S214084080A642F9D10A4E0B4D03F0BAF8761BB610C5
S21408409008D0043D0024013455F8043F9847A6424A
S2140840A0F9D170BD70BD00BF0C7208000C72080014
S2140840B0147208000C7208000FB410B5074B82B0D3
S2140840C004AC54F8042B186823468168019400F061
S2140840D0EDF902B0BDE8104004B07047A00507200F
S2140840E0844641EA000313F0030349D1403A23D338
S2140840F00B6803604B6843608B688360CB68C3605B
S2140841000B6903614B6943618B698361CB69C36142
S2140841100B6A03624B6A43628B6A8362CB6AC3622A
S2140841200B6B03634B6B43638B6B8363CB6BC36312
S21408413040304031403ADBD230320BD30B68036054
S2140841404B6843608B688360CB68C360103010315F
S214084150103AF3D20C3205D351F8043B40F8043B2E
S214084160043AF9D2043208D0D2071CBF11F8013B32
S21408417000F8013B01D30B8803806046704700BFF8
S214084180082A13D38B07B1D010F00303AED0C3F1BF
S2140841900403D21ADB071CBF11F8013B00F8013BE9
S2140841A0A4D331F8023B20F8023B9FE7043AD9D360
S2140841B0013A11F8013B00F8013BF9D20B7803707D
S2140841C04B7843708B78837060467047F0B48407EA
S2140841D043D0541E002A3ED0CDB2034603E0621EEA
S2140841E0002C38D0144603F8015B9A07F7D1032C45
S2140841F02AD9CDB245EA05250F2C45EA054515D935
S214084200A4F110073F0903F1100606EB07161A4635
S214084210156055609560D5601032B242F8D104F04A
S2140842200F040137032C03EB07130DD91E4622464D
S214084230043A032A46F8045BFAD8221F22F003023F
S2140842400432134404F003042CB1C9B21C4403F826
S214084250011BA342FBD1F0BC704714460346C6E7D1
S21408426000290CBF022200224FF4806300F000B839
S2140842702DE9F0413C4D04462D68884616461F46F3
S21408428015B1AB6B002B4FD0022E30D8002F2EDB8B
S2140842902846214601F088F8A38900226260A261B8
S2140842A01A0628D423F083039BB2022EA3812DD0AE
S2140842B0B8F1000F3CD0012E13D09BB203F00800D3
S2140842C02A4A80B2EA63C4F80080C4F8108067619E
S2140842D078B113F0030F18BF0027A7600020BDE8C9
S2140842E0F08143F001037A42A381A261E5E74FF02B
S2140842F0FF30BDE8F0812846216901F0B5F9A389A9
S214084300022E23F083039BB2A381D1D1002004F1AF
S214084310430243F0020300250121A381A560226021
S21408432022616161BDE8F081284601F059F8ABE7E3
S214084330002F08BF4FF48067384601F08BFC804694
S21408434028B1A38943F080039BB2A381B3E74FF457
S214084350806001F07FFC804618B9A3894FF0FF30D3
S214084360D5E74FF48067ECE7A0050720D55308008B
S21408437020F0030110F00300C0F1000051F8043BE0
S21408438000F1040C4FEACC0C6FF000021CBF22FAB6
S2140843900CF213434FF0010C4CEA0C2C4CEA0C4C74
S2140843A0A3EB0C0222EA030212EACC1204BF51F86D
S2140843B0043B0430F4D013F0FF0F1FBF013013F492
S2140843C07F4F013013F47F0F18BF0130704700BFCE
S2140843D040EA01039B0770B42AD1032A28D90C4661
S2140843E00346214654F8045BA5F1013626EA05067D
S2140843F016F0803F05D1043A032A43F8045B2146A9
S214084400EFD89AB10C78013A1C7001333CB16AB106
S21408441011F8014F013A03F8014B002CF7D12AB1E5
S2140844201A44002103F8011B9342FBD170BC704765
S2140844300346E6E74B6E2DE9F0479C040E46804699
S21408444091462AD59368126802F1080A1BB31AE93E
S214084450A000BF0817D0043D002401E0A74210D0F2
S214084460404655F8041F324601F050F8431C04F144
S2140844700104F3D10023C9F80830C9F80430BDE8B0
S214084480F087D9F80830A3EB8703C9F808300AF193
S214084490080A002BDBD10020ECE701F0B1F9002375
S2140844A0C9F80830C9F80430BDE8F0872DE9F04FA0
S2140844B0B1B01C46029190460893069018B1836BDB
S2140844C0002B00F0E880029DAB899AB2900407D4CE
S2140844D06A6E43F4005322F40051AB819AB26966BF
S2140844E0110740F1B780DDF808B0DBF81030002B74
S2140844F000F0B08002F01A020A2A00F0B780002303
S2140845000DF180090A93159314930993CDF84C90EE
S2140845104E4698F80030002B00F0C884252B00F093
S214084520C58408F1010201E0252B04D0137814464F
S2140845300132002BF8D1C8EB040595B1149B159AE7
S21408454001332A44072BC6F8008075601592149329
S2140845507BDD002A40F0D5840998149228444E46FC
S21408456009902378002B00F0ED8300214FF000021D
S2140845704FF0FF3C63788DF8472004918A4604F193
S21408458001080846654608F10108A3F12002582AE2
S21408459000F2D982DFE812F0CB02D702D702D202A5
S2140845A0D702D702D702D702D702D70282028F02D3
S2140845B0D70284009302D7022B0196019601960132
S2140845C0960196019601960196019601D702D702A2
S2140845D0D702D702D702D702D702D702D702D70206
S2140845E03001D702D702D702D702D702D702D7029E
S2140845F0D702D702D7027B01D702D702D702D70243
S214084600D702A401D702D702BF01D702D702D70222
S214084610D702D702D702D702D702D702D702E401B9
S214084620FA01D702D702D7021602FA01D702D70232
S2140846301B02D7022802890066027D02D7023A02C8
S214084640D7021901D702D702AF02083609982844BC
S214084650099086E70698029900F090FDB0B9029D89
S214084660AA8902F01A020A2A7FF449AFDDF808B0D0
S214084670BBF90E30002BFFF642AF06985946424665
S214084680234600F03DFD31B0BDE8F08F4FF0FF3017
S21408469031B0BDE8F08F00F0A3FE14E7404208935F
S2140846A04AF0040A98F800306DE71AF020030490E0
S2140846B0AC4600F0F480DDF820B00BF1070323F0D9
S2140846C0070303F108040894D3E9004500234FF0D4
S2140846D0000000218DF84700CDF814C00791BCF102
S2140846E0000FA8BF2AF0800A54EA050240F0AD8001
S2140846F0BCF1000F40F0A980002B40F0C0831AF0F0
S214084700010F00F0BC83302330AF07F8413DC7EBFC
S21408471009040594DDF814B0079CE345B8BFE346E2
S214084720CDF80CB01CB10BF1010BCDF80CB01AF09B
S2140847300205079505D0DDF80CB00BF1020BCDF895
S2140847400CB01AF084030B9340F01B82049DDDF82E
S2140847500CB0CBEB0504002C40F31382102C40F36E
S2140847608984BE4D159A2B46149825464FF0100B93
S2140847706446B4461E4606E0831C0CF1080C084640
S214084780103D102D11DD411C1032072915928CE8BA
S21408479040081491F0DD002A40F0E681103D102D07
S2140847A04FF001031046CC46EDDC31466646A4467B
S2140847B02C460D462244072B1592356074601493D8
S2140847C000F36D830836591CDEE11AF0200F0490BA
S2140847D0AC4600F08D80089DEB1D23F0070303F11F
S2140847E0080BD3E90045CDF820B001236FE74AF05F
S2140847F0800A98F80030C6E64AF0100A1AF0200F29
S2140848000490AC468DF8471000F0C880089CE11D5F
S21408481021F00701D1E900230831089114461D4606
S214084820002A73F1000BC0F2CE83BCF1000F9DF88E
S2140848304700A8BF2AF0800A54EA05020790CDF878
S21408484014C04FF001033FF453AF012B00F0198357
S214084850022B0DF17F0340F04C82DDF828B0194694
S21408486004F00F0022091BF8000042EA05722B0923
S214084870087052EA03000F4614461D4601F1FF3140
S214084880EED1CDE90E23C7EB0903059342E74AF0BC
S214084890100A1AF020030490AC467FF40CAF1AF006
S2140848A0100240F011831AF0400300F00D83DDF883
S2140848B020B01346BBF800400BF1040B0025CDF8DA
S2140848C020B004E7A3F13002002018F8013B00EB03
S2140848D0800002EB4000A3F13002092AF5D954E61D
S2140848E04AF0100A1AF0200F0490AC467FF473AF13
S2140848F01AF0100F40F0EF821AF0400F00F0EB822B
S214084900DDF820B00025BBF800400BF1040B0123AE
S214084910CDF820B0DBE6AC46514D1AF0200F0490D7
S2140849208DF847100A9500F0F080089DEA1D22F0E1
S214084930070202F1080BCDF820B0D2E900451AF0BC
S214084940010F00F0AA8254EA050B00F0A682302276
S2140849508DF849304AF0020A8DF848200223B6E658
S214084960089BDDF820B01B6801244FF000050BF10A
S214084970040B049003948DF847508DF85830CDF802
S21408498020B0059416AF4FF0000CD0E61AF0200FB2
S2140849900490AC468DF847107FF438AF1AF0100F25
S2140849A040F0A7821AF0400F00F0A382DDF820B08E
S2140849B0BBF900400BF1040BE51722462B46CDF851
S2140849C020B02DE74AF0400A98F80030DBE598F862
S2140849D0003042466C2B03BF08F101084AF0200A53
S2140849E053784AF0100ACEE51AF0200F8DF84710D3
S2140849F000F0F782089C2168099CE5172B46089D5D
S214084A00224604350895C1E9002382E5089CAC4691
S214084A1027684FF0000504908DF847500434002F9F
S214084A2000F03283BCF1000F3846C0F207836246B6
S214084A300021CDF804C001F0B1FBDDF804C0002861
S214084A4000F03A83C01B9DF847506045A8BF6046F3
S214084A500590089407954FF0000C5BE6F071080087
S214084A60B0710800089BDDF820B00490B2481C68B6
S214084A70302278230BF1040BAC468DF849304AF007
S214084A80020ACDF820B000258DF848200A900223A7
S214084A901DE64AF0200A98F8003074E5DDF820B0E4
S214084AA0DBF800000BF104030028FFF6F7AD0893C7
S214084AB098F8003067E598F800302B2163E598F8F9
S214084AC0003008F101042A2B00F00583A3F1300218
S214084AD0092A98BF002500F2FA8214F8013B05EB74
S214084AE0850502EB4505A3F13002092AF5D945EA02
S214084AF0E575A04649E5904C1AF0200F0490AC46A0
S214084B000A948DF847107FF410AF1AF0100F40F093
S214084B10EA811AF0400F00F0E681DDF820B00025A3
S214084B20BBF800400BF1040BCDF820B007E798F867
S214084B30003000297FF427AD202124E54AF0010A39
S214084B4098F800301FE504908DF84710002B00F009
S214084B50F98001254FF0000B03958DF858308DF835
S214084B6047B0059516AF0EE70698029913AAFFF701
S214084B7061FC002840F0ED801498159A431CCC463A
S214084B80FEE5149B159A591C9DF8470068B101323A
S214084B900DF14700012307291592149186E80900AC
S214084BA000F360810B4608360131079C64B1023277
S214084BB012A8022307291592149186E8090000F323
S214084BC057810B46083601310B9D802D00F0018178
S214084BD0059DC5EB0C04002C2FDD102C574D22DD4F
S214084BE030464FF0100B2E462546069C06E003F18D
S214084BF0020C08300B46103D102D10DD591C1032E3
S214084C000729159280E840081491F0DD002A63D140
S214084C10103D102D4FF0010C13464846EEDC2C468E
S214084C206146354606462244072915923560746063
S214084C30149100F3C18008360131059D07292A44DE
S214084C40159237607560149140F3C180002A40F0D1
S214084C50308114924E461AF0040F00F08B80049DA3
S214084C60DDF80CB0CBEB0504002C40F38380102C49
S214084C7040F31E821499324D1027DDF818A0DDF88F
S214084C8008B005E0881C08361946103C102C10DDC4
S214084C904B1C1032072B159286E8A0001493F1DD02
S214084CA0002A7DD1103C102C4FF0010011464E46CC
S214084CB0EEDC22440728159235607460149059DD9E
S214084CC0002A4FD1099CDDF80CB0049DAB45ACBF5B
S214084CD05C44641909945EE02046029913AAFFF71B
S214084CE0A9FB002835D1149B159A03F1010C4846F8
S214084CF081E7E00840EA457004F00702E908303228
S214084D0050EA010B1F461A7004460D4603F1FF339E
S214084D10EFD11AF0010FCDE90C01394600F0B98041
S214084D20302A3FF4F4AC1F46C7EB09053023059537
S214084D3001F8013CEEE400BFC4710800E071080009
S214084D40F0710800159B23B10698029913AAFFF77D
S214084D5071FB029CA3895B063FF598AC099831B0B5
S214084D60BDE8F08F0698029913AAFFF763FB0028A0
S214084D70EFD1159A099CDDF80CB0049DAB45ACBF85
S214084D805C446419099432B10698029913AAFFF78D
S214084D9051FB0028DDD1002014904E46FFF7B9BB22
S214084DA05046594613AAFFF745FB0028D1D1149957
S214084DB0159A481C4E4668E7002A40F0F780059C7E
S214084DC00123209721941594224614934E460836BC
S214084DD041E7049DDDF80CB0CBEB0504002C7FF70B
S214084DE0F7AE102CA64D40F3708129464FF0100BF5
S214084DF025466446B4460E4606E0981C0CF1080C98
S214084E000B46103D102D0FDD591C10320729159240
S214084E108CE840081491F0DDBAB9103D102D4FF01B
S214084E2001001346CC46EFDC33466646A4462C46BD
S214084E301D4622440728159235607460149000F3C6
S214084E40AF800836411C0346C2E60698029913AAA4
S214084E50FFF7F0FA00287FF47CAF149B159A581CCD
S214084E60CC46CEE7002A79D119464E4613469CE62C
S214084E70002A40F08480012113464E46A4E64F4699
S214084E8048E4002D08BF0A2C46D2303430AF07F865
S214084E90414DC7EB090305933CE4022317E4002AB7
S214084EA040F0AF80134601214E466DE64446FFF7B4
S214084EB058BB0698029913AAFFF7BCFA00287FF495
S214084EC048AF159A4E46C6E6089D2C6804350895E0
S214084ED00025FFF7FCBB089D01232C6804350895C0
S214084EE00025FFF7F4BB089D2C68043508950025B7
S214084EF025E5089D2C6804350895E51722462B46B7
S214084F008EE40698029913AAFFF794FA00287FF40D
S214084F1020AF4E46FFF79ABB0DF17F0B03965E4611
S214084F20E346204629460A22002301F0B9FD30321E
S214084F303270204629460A22002301F0B1FD0446B5
S214084F400D4654EA0500374606F1FF36E9D1C7EBA9
S214084F500903DC46039E0593FFF7DCBB0698029917
S214084F6013AACDF804C0FFF765FADDF804C00028D8
S214084F707FF4EFAE149B159A591C4E4615E6069814
S214084F80029913AACDF804C0FFF754FADDF804C056
S214084F9000287FF4DEAE149B159A591C4E4613E67D
S214084FA0002A56D1012113464E4611E60698029964
S214084FB013AAFFF73FFA00287FF4CBAE1499159A88
S214084FC001314E4639E64FF02D0B644265EB450538
S214084FD08DF847B0CDF81CB0CDF814C00123FFF704
S214084FE07EBB1AF0100F1DD11AF0400F58D0089D3E
S214084FF0DDF824B02B6804350895A3F800B0FFF751
S21408500088BA0698029913AACDF804C0FFF712FAD0
S214085010DDF804C000287FF49CAE149B159A591C32
S2140850204E46B1E5DDF820B0099CDBF800300BF100
S214085030040BCDF820B01C60FFF76BBA0894FFF796
S21408504097F99DF84740059007944FF0000CFFF736
S21408505061BB0698029913AACDF804C0FFF7EAF9CF
S214085060DDF804C000287FF474AE149B159A591C0A
S2140850704E46ADE5149B159A0133024DFFF79ABBD1
S214085080E0710800F0710800BCF1060F34BF6346F3
S2140850900623089423EAE37405930394164F72E4F0
S2140850A0089C099D2368043408941D60FFF731BAEC
S2140850B01498124D0130FCE59DF84750CDF814C001
S2140850C0079508948446FFF725BB0846B1E6A04630
S2140850D00025FFF75ABADDF820B098F80130DBF85B
S2140850E000500BF10402002D0892A046BFF64BAA0A
S2140850F04FF0FF35FFF747BAD8710800F07108007F
S2140851002DE9F0474F6EADF58D6D88461997D8F89E
S2140851101C70B1F80CA0B1F80E900797D8F8247058
S2140851201AAC4FF480652AF0020A002669460094F5
S214085130049402950595ADF80CA0ADF80E90099765
S21408514006960546FFF7B2F9041E07DB28466946A9
S21408515000F02AF9B04218BF4FF0FF34BDF80C3003
S2140851605B0605D5B8F80C3043F04003A8F80C30B9
S21408517020460DF58D6DBDE8F08700BF2F4B70B546
S214085180064618680C4610B1826B002A36D0A589E8
S214085190ABB219070CD52269AAB113F001011ED0CB
S2140851A0636900215B42A361A160F2B1002070BD73
S2140851B0DA063AD55B0724D4226945F00803A381AA
S2140851C09BB2002AE9D103F42071B1F5007FE4D040
S2140851D03046214600F0CEFCA3892269DDE7980711
S2140851E058BF6169A160002AE0D1A3891A06DDD5F7
S2140851F043F04003A3814FF0FF3070BD00F0F0F895
S214085200C5E7216B49B104F14003994203D0304603
S21408521000F02AFAA58900232363226925F02405CD
S2140852200021ADB222606160C7E745F0400509235A
S21408523033604FF0FF30A58170BD00BFA005072082
S214085240024B13B1024800F005B870470000000092
S214085250DD540800014600200246034601F024BB40
S2140852608B892DE9F0419AB20D46110780463CD449
S2140852706A6843F40063002AAB8159DDAC6A002CE7
S2140852804BD09BB203F48052002192B2D8F800604B
S214085290C8F80010002A4FD02A6D5F0705D5696840
S2140852A02B6B521A0BB1EB6BD21A4046E9690023F6
S2140852B0A047441C4AD0AB892A6923F400639BB2F2
S2140852C000212A60DA04AB8169604CD4296BC8F8DF
S2140852D0006011B305F14003994202D0404600F041
S2140852E0C3F900202863BDE8F0812E69AEB19107A6
S2140852F02C680CBF6B6900232E60A41BAB600AE009
S214085300324623466F6A4046E969B8470028C0EB2C
S2140853100404064404DD002CF2DC0020BDE8F0811D
S214085320AB894FF0FF3043F04003AB81BDE8F08116
S214085330EA6B002AA2DCF0E701234046E969A047A9
S214085340431C02461ED0AB89AC6AA6E7D8F80030E4
S2140853505BB9AA89296922F4006292B26B60D30409
S214085360AA812960B2D52865B0E71D2B01D0162B77
S21408537013D1A9892B6921F400610022A9812B6029
S2140853806A60A3E7D8F80030002BDCD01D2B01D0CC
S214085390162BC5D1C8F80060BFE7AB8943F04003B9
S2140853A0AB81BDE8F08100BF10B5044682B008B1F5
S2140853B0836B53B1B1F90C0008B902B010BD204692
S2140853C002B0BDE81040FFF74BBF019100F008F8A7
S2140853D00199EFE7014900F09FBB00BFF569080097
S2140853E02DE9F04F846B83B00746002C65D17D68A5
S2140853F033480423032107F53B72F863C7F8E41221
S214085400C7F8E822C7F8E04205F15C00AB812C60DB
S2140854106C60AC606C66EC812C616C61AC6121469A
S2140854200822FEF7D3FEDFF89CB0BE68DFF898A027
S214085430DFF89890DFF8988001230922ED61C5F817
S21408544020B0C5F824A0C5F82890C5F82C802146B9
S214085450F381B28134607460B460746634617461D8
S214085460B461082206F15C000193FEF7AFFEFD6802
S21408547012200222F661C6F820B0C6F824A0C6F8A4
S2140854802890C6F82C802146A881EA812C606C609A
S214085490AC606C662C616C61AC6105F15C0008223E
S2140854A0FEF794FE019BED61C5F820B0C5F824A070
S2140854B0C5F82890C5F82C80BB6303B0BDE8F08F0C
S2140854C0D5530800E96608000D6708004567080018
S2140854D065670800704700BF704700BF38B5094DBC
S2140854E0094C641BA41018BF05EB840505D0013CC5
S2140854F055F8043D9847002CF9D1BDE8384001F02E
S21408550089BE00BF20720800247208002DE9F04109
S21408551093890F46990482B01446804606D4526E84
S21408552043F4005342F40052A381626600F01CFB69
S21408553001283ED03A46404601A904F15C0301F032
S21408554069F9421C06462DD000283AD09DF804106A
S214085550002509E0236819702368013323600135A4
S214085560B5422ED201ABE95CA368013B002BA360D1
S214085570F0DAA269934206DB236819702368197863
S21408558001330A29EAD14046224601F0EFF8B0F185
S214085590FF33584258410028E1D04FF0FF3002B0A0
S2140855A0BDE8F081A38943F04003A38102B0BDE8BB
S2140855B0F0817B1EFE2BBDD8F9B206468DF8041086
S2140855C0C6E7384602B0BDE8F08100BFF8B5234DFF
S2140855D00F46044600F092FEAB685E6826F00306A7
S2140855E0F11B01F6EF7121F47F6121F00F01A1F59F
S2140855F08057B7F5805F07DB2046002101F062F888
S214085600AB683344984204D0204600F079FE002068
S214085610F8BD2046794201F055F801300DD0104B00
S214085620AA681968F61B46F001062046C91B56608C
S214085630196000F065FE0120F8BD2046002101F043
S21408564041F8AB68C21A0F2ADEDD064D04492D68FC
S21408565042F00102401B5A600860D5E7C8050720DB
S2140856608C8C0720D40907202DE9F0410D46064604
S214085670002955D000F042FE55F8041CDFF870C12A
S214085680A5F1080421F00103E218DCF808005768C1
S214085690904227F0030768D011F00101576032D016
S2140856A00021D0194068C00706D43B4490680029FA
S2140856B04DD0D268C260906043F001026260E35049
S2140856C0E1B9B3F5007F2DD35A0A042A69D8980998
S2140856D0383041000CEB810CDCF808204449624560
S2140856E065D0516821F003018B4202D29268944536
S2140856F0F7D1D368E360A2609C60D4603046BDE80A
S214085700F04100F0FDBD55F8085C0CF10808641B74
S214085710A0682B44404542D0E568C560A860C0E74D
S214085720BDE8F081DB089A1001209040DCF80410F0
S2140857300CEBC3039A680143A260E360CCF804103C
S21408574030469C60D460BDE8F04100F0D9BD294DD4
S214085750A842AED143F00102CCF81440CCF8104071
S214085760E060A0606260E350C8E71F44CB0707D438
S21408577055F8081C641AE368A2680F44D3609A6058
S2140857801D4B47F001021B6862609F42CCF8084038
S214085790B4D31A4B30461968FFF718FFAEE7012155
S2140857A07FE7142A0BD802F15B00410092E78010CD
S2140857B00125854048681346284348609AE7542AD6
S2140857C003D8180B6E30410084E7B2F5AA7F03D8D9
S2140857D0D80B773041007DE740F254518A4203D80F
S2140857E0980C7C30410075E7FC217E2072E700BFEC
S2140857F0C8050720D0050720D0090720888C072071
S2140858002DE9F04F936883B0164681460C462BB3B5
S2140858108B89190726D5226922B303F0020292B2B1
S2140858203568002A2CD04FF0000ADFF8E8B2D046D8
S214085830D84534BF43465B4652464846B8F1000F43
S2140858404FD0E169676AB847002856DDB3688244D6
S2140858501B1AC0EB0808B360002BE9D1002003B080
S214085860BDE8F08F48462146FFF788FC002840F040
S2140858704881A389356803F0020292B2002AD2D181
S21408588013F0010A42D1D046B8F1000F23D09A058A
S214085890A76876D5B845C0F0A48013F4906F40F09A
S2140858A0B2802068BB4651465A4600F0C1FCA26842
S2140858B02168D21B01EB0B03A26023604246B36843
S2140858C092449B1AC2EB0808B360002BC6D0A38983
