:0200000280007C
:10000000982B0720A9120800A5120800A5120800C5
:10001000A5120800A5120800A512080000000000A3
:10002000000000000000000000000000A512080011
:10003000A512080000000000A5120800A512080083
:10004000A5120800A5120800A5120800A5120800B4
:10005000A5120800A5120800A5120800A5120800A4
:10006000A5120800A51208000000000025100800D5
:10007000391008004D100800611008000000000051
:1000800000000000D1040800A5060800A512080021
:10009000A5120800A5120800A5120800A512080064
:1000A000A512080000000000A5120800A512080013
:1000B000A5120800A5120800A5120800A512080044
:1000C000A5120800A5120800A5120800A512080034
:1000D000A5120800A5120800A5120800A512080024
:1000E000A5120800A5120800A5120800A512080014
:1000F000A512080010B5054C237833B9044B13B191
:100100000448AFF300800123237010BD9C09072031
:1001100000000000E42F080008B5064B1BB106489C
:100120000649AFF300800648036813B1054B03B1DD
:10013000984708BD00000000E42F0800A009072030
:10014000E42F08000000000080B5124B9847124BC6
:100150009847124B9847124B9847124B98471248B2
:10016000124DA8471248A847124FB847124C2068B2
:100170006168124EB047DFF848804046A847B8474C
:10018000A068E168B0474046A847B8472069616960
:10019000B047FEE70D000720510D08003D0508009F
:1001A000FD050800950C0800001BB70001000720A2
:1001B000808D5B00050908003C0107202908080024
:1001C0000087930310B40B782D2B03D101314FF02E
:1001D000FF3207E00131303B4FF47A7202FB03F348
:1001E000036001220B782D2B03D101314FF0FF3238
:1001F00005E00131303B642404FB03F303600B781A
:100200002D2B03D101314FF0FF3205E00131303B9E
:1002100003EB83035B0003600B782D2B1ABF303B8D
:1002200003604FF0FF32036802FB03F202605DF8E7
:10023000044B70472DE9F0411C491D4B1A780A7098
:100240005A784A709A788A70DA78CA70194E1A7990
:1002500032705A7972709A79B270DA79F270164DFA
:100260001A7A2A705A7A6A709A7AAA70DA7AEA70D6
:10027000124C1A7B22705A7B62709A7BA270DB7BD5
:10028000E370DFF8508040460D4FB8470D483146C7
:10029000B8470D482946B8470C482146B847D8F812
:1002A00000000B4B9847BDE8F08100BF340B0720DE
:1002B000240B0720380B0720200B07201C0B0720DE
:1002C000C5010800BC090720C0090720C409072090
:1002D0000D1C0800B809072008B5024B1868024B2E
:1002E000984708BDBC0907200D1C08002DE9F04FF8
:1002F00083B005469046002A47D04E1C254F264C19
:10030000DFF8A8A0DFF894B006F1FF3900230193CD
:10031000224B9D4206D158464946214B984700281A
:10032000F9D119E01F4B9D4209D19946484601A9D0
:10033000A0470028FAD1019B06F8013C17E01A4BB0
:100340009D4209D19946484601A9A0470028FAD103
:10035000019B06F8013C14E0554508D1504601A91F
:10036000A0470028FAD1019B06F8013C09E0BD42F4
:1003700007D1384601A9A0470028FAD1019B06F809
:10038000013C0136B8F10108BED1002003B0BDE840
:10039000F08F00BF00400A40B904080000080E407A
:1003A000B10308000080094000C0094000000A4075
:1003B000436913F0010F1DBF83690B7000200120FA
:1003C000704700BF10B40B0193420DD91AE0416889
:1003D00041F40021416042EA03430362002020E02F
:1003E00001201EE001201CE0D20002EB5302B2FB10
:1003F000F3F3DA0803F00703541E4FF6FE718C4244
:10040000E9D9EDE7C900D30003EB5103B3FBF1F3E6
:10041000DA0803F00703541E4FF6FE718C42D6D95A
:10042000E0E75DF8044B7047084BC0F8E430002368
:1004300043604362836288230360242303604FF494
:10044000807303604FF400230360704700415355ED
:1004500070B505460C4616460F4B984700210F4BCA
:1004600019609CB12846216832460D4B98470346D7
:1004700070B9A16862680A4321690A43E0680243CF
:1004800006490A6069680A436A6002E0012300E0E5
:100490000123184670BD00BF29040800C8090720C1
:1004A000C503080040230360704700BF10230360AA
:1004B000704700BF81607047436913F0010F05D09A
:1004C0008369C3F308030B60002070470120704765
:1004D00000B583B013480DF107010122124B984774
:1004E00072B6BFF35F8F0022104B1A70104B1A7850
:1004F00001321A700F4B1B789DF807100E4AD15429
:100500009B2B03D100220B4B1A7002E00133094AE6
:1005100013700122054B1A70BFF35F8F62B603B0F0
:100520005DF804FB00800940ED020800540107203B
:10053000690A0720680A0720CC09072030B587B070
:100540000E4C20460E4DA8474FF416530093C0237F
:1005500001934FF40063029300230393049312204A
:10056000A84720466946074A074B98472046074B4D
:1005700098472046064B984707B030BD00C0094059
:100580007510080000BD010551040800A50408000D
:10059000AD04080008B508484FF020514FF48052D0
:1005A000064B984730B1064B1A8801321A80012257
:1005B000044B1A7008BD00BF00120E40C90D0800A0
:1005C0006E0A07203901072008B508484FF020516E
:1005D0004FF48042064B984730B1064B1A880132DF
:1005E0001A800122044B1A7008BD00BF00100E4093
:1005F000C90D08006C0A07203801072070B582B0C9
:100600000C201D4CA0470D20A0471C4D28464FF440
:10061000805101221A4EB0471A4C20464FF48041B7
:100620000122B047184B009328460D214FF4805209
:100630004023164EB047164B009320460C214FF432
:1006400080424023B04728464FF48051114DA847BF
:1006500020464FF48041A8470F4B4FF400521A60D8
:100660004FF480521A604FF480221A600B48012127
:100670000B4B984702B070BD7510080000120E4079
:10068000210E080000100E4095050800E90F080033
:10069000C9050800AD0E080000E100E000C00940F7
:1006A000B5040800094B1A6842F010021A600848A5
:1006B00001784A1CD2B202709869064B58540F2A2E
:1006C00002D90022024B1A70704700BF00C00940D7
:1006D0006A0A0720240B07200023024A1380024ADB
:1006E000138070476C0A07206E0A072038B5121A6B
:1006F0005B1A03FB03F302FB0235044C2846A047B8
:10070000034B9847034B984738BD00BF0D1C0800AA
:10071000E91608000D22080038B55B1A101A04D13A
:10072000002BB4BFB420002038BD2BB90028D4BFA3
:100730004FF487705A2038BD002824DD002B0FDDD0
:100740002B4D90FBF3F0A8472A4B98472A4CA04723
:10075000A84725A3D3E90023284DA847A04738BDC3
:10076000002B39DA224D90FBF3F0A847214B984734
:10077000214CA047A8471CA3D3E900231F4DA8473D
:10078000A047B43038BD002828DA002B10DA184D05
:1007900090FBF3F0A847174B9847174CA047A84782
:1007A00011A3D3E90023154DA847A047B43038BDA5
:1007B000002B15DD0E4D90FBF3F0A8470D4B98472D
:1007C0000D4CA047A84708A3D3E900230B4DA84729
:1007D000A04700F5B47038BD002038BD002038BDFA
:1007E000002038BDAFF30080F8C1631ADCA54C408F
:1007F0000D1C0800911308000D220800D91C0800E8
:10080000F8B517461E46074CA04705463846314600
:10081000069A079BA047401BB428C8BFA0F5B47038
:10082000F8BD00BF190708002DE9F04782B08146E6
:100830008A46264B186859684A465346244CA047B6
:10084000244B984704460D460022234B234EB047C5
:10085000002837D0224F1D4E386879683268736897
:10086000CDF80090CDF804A0DFF890C0E0478221D9
:100870001C4B9847DFF8888020462946C047012155
:10088000194B984719481A4B984733683B6073686F
:100890007B60184B9847C0473060174B9847C0475C
:1008A0000146706030684A465346094CA047094BE0
:1008B000984704460D460022074BDFF820C0E0476A
:1008C0000028C9D102B0BDE8F08700BF400B072067
:1008D000ED0608000D1C080000004440E52108005A
:1008E0003C0B0720590B080059090800808D5B005C
:1008F0000100072035020800D9020800010808009D
:100900000D220800F8B50C4DA8470C4F0C4CA04721
:1009100038600C4EB047A0477860322001210A4B66
:1009200098470A480A4B9847A8470A4DA0472860AD
:10093000B047A0476860F8BD350208003C0B0720AF
:100940000D220800D902080059090800808D5B00BB
:1009500001000720400B07202DE9F04F87B06A4BBC
:10096000984761A3D3E90023684CA047684B984798
:1009700083464FF4E160674CA047674B98474FF4BC
:10098000E160A04758460021644B9847002800F0DA
:100990009E800022059200220023CDE902234FF021
:1009A0000009A24641F27070D0475D4B1B78002BC6
:1009B00000F086805B4B1B78002B00F081805A4C46
:1009C00020885A4D2B8818444010594B98470146AF
:1009D0004846584B9847814641F27070D047288866
:1009E0002388DFF82481C01AC04704460D4640F62C
:1009F000B830D047484B984740F6B830D0474E4FB4
:100A00000020002122462B46B847CDE90001059879
:100A1000C0474A4EDDE90223B047494B984705904D
:100A200040F6B830D04740F6B830D04740F6B8303E
:100A3000D0470598C047DFF81C812DA3D3E90023D8
:100A4000C04702460B46DDE90001B04704460D46AB
:100A5000DDE90001DDE90223B84727A3D3E900233C
:100A6000C04702460B4620462946B0470022354B78
:100A7000C04704460D4640F6B830D04720462946C8
:100A80001FA3D3E90023B0472F4EB0472F4B984701
:100A90001BA1D1E9000122462B46B847B0472C4B99
:100AA000984740F6B830D04700231D4A13701D4ABE
:100AB000137040F6B830D047DDE90023CDE90223BA
:100AC00058464946154B984700287FF46BAF40F2D3
:100AD000DC501E4B984740F2DC501D4B984707B046
:100AE000BDE8F08FAFF3008014AE47E17A14F63F13
:100AF0007147DC1177C4DD3FF6285C8FC2F5E03F1B
:100B00000000000000909A400D1C08002D1F0800F6
:100B10009D22080001000720D90608001D260800B4
:100B200038010720390107206C0A07206E0A0720C8
:100B3000B12408004923080071190800751908003C
:100B40000D2208000000FC3F5D220800210D080076
:100B5000F10C0800D91C08002DE9F04704460F46A7
:100B600040F2DC50204B984740F2DC501F4B984736
:100B7000002CBABF64424FF0FF384FF0010804EB7D
:100B8000D47464101A4B984700221A4E1A4DDFF89D
:100B90005C9017E0934218DBC0EB010A0AEB8A0A6B
:100BA00007EB0A0008FB00F000F2DC50C847C7EB77
:100BB0000A0008FB00F000F2DC500B4B984732882B
:100BC0002B881A443088298843189C42E2DC40F282
:100BD000DC50054B984740F2DC50044B9847044BDF
:100BE0009847BDE8F08700BF210D0800F10C080010
:100BF000D90608006C0A07206E0A072038B5552070
:100C00004FF080510B4B98470B4B04241C600B2278
:100C10005A6000229A721A8141F64C511961DA60C9
:100C2000064D28461946064B984728462146054B4F
:100C3000984738BDBD0E08006C0B072000400940E6
:100C4000651108008D12080038B556204FF080510C
:100C50000B4B98470B4B05241C600B225A6000225B
:100C60009A721A8141F64C511961DA60064D284694
:100C70001946064B984728462146054B984738BDEC
:100C8000BD0E0800440B0720004009406511080014
:100C90008D12080030B585B024200D4B98470D4CBF
:100CA000204604210C4DA84720460521A8470B4BA0
:100CB0000193002302930A4B0393204601A9094B99
:100CC0009847094B9847094B984705B030BD00BF7E
:100CD00075100800004009409912080040420F00BA
:100CE00000BD010525110800FD0B0800490C080096
:100CF00008B5B0F5487F05D340F69802904238BF5A
:100D0000024601E04FF4487202480349034B9847FA
:100D100008BD00BF004009406C0B072069120800A5
:100D200008B5B0F5487F05D340F69802904238BF29
:100D3000024601E04FF4487202480349034B9847CA
:100D400008BD00BF00400940440B0720691208009D
:100D500010B54FF40042164B5A600B20154CA047BB
:100D60000C20A0470D20A0470E20A0473B204FF0AD
:100D70006051114CA04755204FF06051A0475620BC
:100D80004FF06051A04768200C49A0475C200C49F7
:100D9000A0470C4B4FF440521A665A655A62C3F88A
:100DA0008020196F21F4405119675A6010BD00BFAF
:100DB000501A0E4075100800BD0E0800790000287A
:100DC00001000028000E0E4021F00061B1F1405FEB
:100DD0000CBF836BC36B13420CBF00200120704714
:100DE0004264B1F1805F16D004D8C1B1B1F1006F97
:100DF0000AD013E0B1F1405F11D0B1F1605F0ED0C5
:100E0000B1F1205F0AD17047036F016F0B4023EAF5
:100E10000203036702E0036F1343036742607047F6
:100E2000416412F0010F14BF4166016612F00A0F0F
:100E300014BF0162416212F0020F02D0C0F88010AC
:100E400004E012F0080F18BFC0F88410416101607F
:100E5000704700BF10B44164019C0CB1416600E0D2
:100E600001660BB1016500E041650AB1016300E074
:100E70004163016101605DF8044B704712F0100F8F
:100E800010D0C0F8B01012F0200F14BFC0F8D4106A
:100E9000C0F8D01012F0400F14BFC0F8C010C0F856
:100EA000C4107047C0F8B410704700BFC36C016431
:100EB000704700BFC06C7047806C704770B582B0DF
:100EC0000D46440904F5001404F20774660201F0AB
:100ED000F044B4F1205F30D006D8B4F1006F0AD0EE
:100EE000B4F1805F18D049E0B4F1405F30D0B4F184
:100EF000605F2DD042E000F01F00012484403046A6
:100F00004FF0006122461F4B984715F0010F14BFA8
:100F100074663466012032E000F01F000124844032
:100F200030464FF080512246164B984715F0010F7E
:100F300014BF74663466012021E000F01F01012413
:100F4000304604FA01F12A460F4B9847204616E036
:100F500000F01F01012405F0605205EA040300932C
:100F6000304604FA01F1B2F1605F14BF00220122A1
:100F7000C5F38003054DA847204600E0002002B0DD
:100F800070BD00BFE10D0800210E0800550E0800DD
:100F90002DE9F04104460E46104B98470546204681
:100FA0000F4B9847054017D00E4F07F10C046C37D4
:100FB00054F80C3CB3420AD154F8081C294206D01C
:100FC00023683046984754F8083C25EA0305BC429C
:100FD00002D01034002DEBD1BDE8F081B50E080031
:100FE000B90E0800740A0720F8B50B4C2468062CCB
:100FF00010D80A4F2601BD19B9516A60AB60069935
:10100000E960013404490C6011461A46044B9847C4
:101010000020F8BD0120F8BD700A0720740A0720DF
:101020007D0E080008B502480B21024B984708BD09
:10103000000E0E40910F080008B502480C21024B2B
:10104000984708BD00100E40910F080008B50248EF
:101050000D21024B984708BD00120E40910F080069
:1010600008B502480E21024B984708BD00140E40F7
:10107000910F08002C2820D81F280DD8124B9A69F0
:10108000012383401A40934219D0012303FA00F050
:101090000D4B1861002070470B4BD3F80821203806
:1010A000012383401A4093420BD0012303FA00F03E
:1010B000054BC3F800010020704701207047002055
:1010C00070470020704700BF00060E40F0B48CB09F
:1010D00007460E4601AC124D0FCD0FC40FCD0FC405
:1010E00095E8070084E807006A46002352F8044F99
:1010F000B6FBF4F4B4FBF7F4B4F5807F03D9013305
:101100000B2BF3D104E00A2B05D844EA032004E0BA
:101110004FF6FF7001E04FF6FF700CB0F0BC704767
:10112000402F080070B506460C46086840B1896833
:101130000B4B984705464FF6FF73984201D10EE0DE
:101140000025606840B1A168054B98474FF6FF73D2
:10115000984204D045EA00453560002070BD70BD5E
:10116000CD10080070B40B688C8A4A6802F00F0238
:1011700014430D892C438A7A44EA42248A7D44EA46
:101180000244CA7D44EA42440A7E44EA824400EBB7
:101190004312C2F80042CC68C2F804420C69C2F89B
:1011A0000C428A7D3AB18C8B4A8B42EA044400EBB4
:1011B0004312C2F81842856C4FF001129A40D24394
:1011C0001540CE7F9E408C7F9C4044EA06442C43D1
:1011D0008464446C224091F821509D4091F8204055
:1011E0009C4044EA05442243426401229A4091F81B
:1011F00022401CB1046A1443046203E0046A24EA36
:101200000204046291F82440012C846E0CBF144344
:101210009443846691F82540012C846E0CBF44EA07
:10122000024224EA02428266032B0CD8C46EDB0021
:10123000FF229A4024EA020291F8231001FA03F3F4
:101240001343C3660CE0043B046FDB00FF229A40AB
:1012500024EA020291F8231001FA03F3134303670F
:10126000002070BC704700BF10B40C680B6993423B
:1012700006D3CA6000EB4410C0F80822002001E049
:101280004FF6FF705DF8044B704700BF012303FA6F
:1012900001F14160704700BF012303FA01F1816051
:1012A000704700BFFEE700BF10B51E4B1E4A9A42B2
:1012B00003D01E4B1B4A9A4204D31D4B1D4A9A422F
:1012C0000FD31AE01C4B1D4CE41A24F00304043421
:1012D0000023144814495A581A500433A342FAD12F
:1012E000EBE7174B1749C91A21F003011A1D1144E6
:1012F000002243F8042F8B42FBD1134A22F06043B3
:1013000023F07F0311498B6002F16042B2F5801F28
:1013100003D28A6842F000528A600D4B98470D4B09
:101320009847FEE700000720E42F08009C090720EB
:10133000980B07209C090720040007209F0907201D
:1013400098090720930B07200000080000ED00E03B
:101350005126080049010800094B1B6813B9094AC6
:10136000074B1A60064B1B681A180749914204DBA9
:101370001046034A1060184670474FF0FF30704720
:10138000E40A0720982B0720FC7F082000000000BB
:101390002DE9F04FB64B21F000469E4283B0044643
:1013A0000D4689460FDDB3498E4200F3B38000F04D
:1013B000AE80B9F1000F40F3EF8091A1D1E90001B7
:1013C00003B0BDE8F08FAC4B9E4200F3BD80A3F1AB
:1013D000DE739E4240F3A7804FF0FF3C22462B462F
:1013E00020462946CDF804C000F076FC02460B46A4
:1013F00082468B4600F070FC83A3D3E900230646A7
:101400000F4600F069FC82A3D3E9002300F0B2FA92
:1014100032463B4600F060FC7FA3D3E9002300F096
:10142000A9FA32463B4600F057FC7DA3D3E90023DE
:1014300000F0A0FA32463B4600F04EFC7AA3D3E916
:10144000002300F097FA32463B4600F045FC78A3B3
:10145000D3E9002300F08EFA52465B4600F03CFCD4
:1014600075A3D3E9002382468B463046394600F007
:1014700033FC73A3D3E9002300F07AFA32463B46EB
:1014800000F02AFC70A3D3E9002300F071FA324681
:101490003B4600F021FC6EA3D3E9002300F068FA7C
:1014A00032463B4600F018FC6BA3D3E9002300F062
:1014B0005FFA32463B4600F00FFCDDF804C00246FE
:1014C000BCF1FF3F0B466BD0504659464FEACC0665
:1014D00000F050FA22462B4600F0FEFB674F684BA7
:1014E00037441E44D6E9002300F042FA22462B4638
:1014F00000F03EFA02460B46D7E9000100F038FA48
:10150000B9F1000F0CDA01F10045294608E0002886
:101510003FF44FAF2046294622462B4600F02AFAD8
:1015200003B0BDE8F08F4EA3D3E9002300F022FA08
:101530000022544B00F060FE00283FF44DAF2046DF
:10154000294603B0BDE8F08F00F0CAF84E4B0446C0
:101550009E420D4633DCA3F550239E4200F3A58046
:1015600002460B4600F006FA0022464B00F000FA55
:10157000002206460F46204629464FF0804300F0E1
:10158000F9F902460B463046394600F0CFFC4FF0E1
:10159000000C04460D4621E733A1D1E90001BFE765
:1015A0005046594600F0E6F922462B4600F094FBDF
:1015B00002460B462046294600F0DAF9B0E7334BE5
:1015C0009E4267DC0022324B00F0D2F90022064630
:1015D0000F46204629462E4B00F07EFB0022294B69
:1015E00000F0C8F902460B463046394600F09EFC32
:1015F0004FF0020C04460D46F0E600BFAFF300804A
:10160000182D4454FB21F93F11DA22E33AAD903F03
:10161000EB0D76244B7BA93F513DD0A0660DB13F29
:101620006E204CC5CD45B73FFF8300922449C23F91
:101630000D5555555555D53F2F6C6A2C44B4A2BF56
:101640009AFDDE522DDEAD3F6D9A74AFF2B0B33F1E
:10165000711623FEC671BC3FC4EB98999999C93F96
:101660009C7500883CE4377E182D4454FB21F9BF5B
:10167000FFFF0F440000F07FFFFFDB3F902F0800CB
:10168000702F08000000F03FFFFFF23FFF7F034094
:101690000000F83F02460B4600200F4900F046FCD0
:1016A0004FF0030C04460D4698E600220B4B00F069
:1016B0005FF9002206460F4620462946074B00F0F8
:1016C00059F902460B463046394600F02FFC4FF0E0
:1016D000010C04460D4681E60000F0BF0000F03F1B
:1016E00021F00041704700BF2DE9F0478AB0044661
:1016F0000D4600F04FF8DFF898A006469AF9003042
:101700000F4601330FD02046294600F003F950B1AF
:101710004FF000084FF0000942464B46204629464C
:1017200000F04CFD20B9304639460AB0BDE8F087DC
:1017300016499AF8006001220023CDE90445CDE95D
:10174000024501910092089366B9CDE90689684681
:1017500000F008F980B1089B9BB9DDE906010AB0E9
:10176000BDE8F0874046494642464B4600F0DEFB66
:10177000022ECDE90601EAD100F064FF21230360C7
:10178000E9E700F05FFF089B0360E6E7B02F080081
:101790005C01072021F0004C2DE9F8434FEA1C5C66
:1017A000DFF86C814FEA0C5CC44506460F460B46D9
:1017B000024600F08F8000296FDD0F1578D0A7F268
:1017C000FF37C3F31303F90743F4801360D4D10F39
:1017D0004FF0000C01EB43037F10520065461620CA
:1017E0004FF400116C189C424FEAD2764FEA420245
:1017F00002DC1B1B65188C44013806EB43034FEADF
:101800005101EFD1804620264FF0004109E023D05E
:10181000D40F013E4FEA510104EB43034FEA420269
:101820001ED0AB4201EB0804F1DD04F00049B9F130
:10183000004F04EB010809D0A9465B1B944288BF06
:1018400003F1FF33121B08444D46E1E7B8F1000FE6
:10185000F2DB05F10109F0E79442E6D91D46D7E72E
:101860001A4304D0431C41D000F001031844460839
:101870004FEA6C031CF0010F03F17F5303F50013D3
:1018800018BF46F0004603EB07513046BDE8F88329
:10189000D10F01EB4303520099E721F000430343CA
:1018A00022D051BB0F46D30A153F5205002BFAD068
:1018B00013F480111DD15B00D80201F10101FAD5AA
:1018C000C1F10100C1F1200422FA04F407448A4066
:1018D000234374E702460B4600F0FEF932463B46CE
:1018E00000F048F8BDE8F883BDE8F8830CF1010C7E
:1018F000BEE7202401200021E6E702460B4600F067
:1019000037F802460B4600F011FBBDE8F88300BF34
:101910000000F07F31F0004310B408D00F4AA3F567
:10192000801494420AD804205DF8044B70470028C4
:101930000CBF022003205DF8044B7047B3F5801FF5
:1019400001D20320F7E7064A934201D00020F2E7D4
:10195000D0F1010038BF0020EDE700BFFFFFDF7FBF
:101960000000F07F0020704781F0004102E000BFDE
:1019700083F0004330B54FEA41044FEA430594EA4F
:10198000050F08BF90EA020F1FBF54EA000C55EA8A
:10199000020C7FEA645C7FEA655C00F0E2804FEA5B
:1019A0005454D4EB5555B8BF6D420CDD2C4480EA3D
:1019B000020281EA030382EA000083EA010180EA6D
:1019C000020281EA0303362D88BF30BD11F0004FBB
:1019D0004FEA01314FF4801C4CEA113102D04042F1
:1019E00061EB410113F0004F4FEA03334CEA13332C
:1019F00002D0524263EB430394EA050F00F0A78044
:101A0000A4F10104D5F1200E0DDB02FA0EFC22FA3E
:101A100005F2801841F1000103FA0EF2801843FA32
:101A200005F359410EE0A5F120050EF1200E012A23
:101A300003FA0EFC28BF4CF0020C43FA05F3C01861
:101A400051EBE37101F0004507D54FF0000EDCF1DA
:101A5000000C7EEB00006EEB0101B1F5801F1BD383
:101A6000B1F5001F0CD349085FEA30004FEA3C0C87
:101A700004F101044FEA445212F5800F80F09A807D
:101A8000BCF1004F08BF5FEA500C50F1000041EB81
:101A9000045141EA050130BD5FEA4C0C404141EB85
:101AA000010111F4801FA4F10104E9D191F0000FAC
:101AB00004BF01460020B1FA81F308BF2033A3F12F
:101AC0000B03B3F120020CDA0C3208DD02F1140C26
:101AD000C2F10C0201FA0CF021FA02F10CE002F161
:101AE0001402D8BFC2F1200C01FA02F120FA0CFC5A
:101AF000DCBF41EA0C019040E41AA2BF01EB0451A3
:101B0000294330BD6FEA04041F3C1CDA0C340EDCA0
:101B100004F11404C4F1200220FA04F001FA02F3E3
:101B200040EA030021FA04F345EA030130BDC4F1A1
:101B30000C04C4F1200220FA02F001FA04F340EA96
:101B40000300294630BD21FA04F0294630BD94F047
:101B5000000F83F4801306BF81F480110134013D2E
:101B60004EE77FEA645C18BF7FEA655C29D094EA9F
:101B7000050F08BF90EA020F05D054EA000C04BF1D
:101B80001946104630BD91EA030F1EBF0021002008
:101B900030BD5FEA545C05D14000494128BF41F0A7
:101BA000004130BD14F580043CBF01F5801130BD0B
:101BB00001F0004545F0FE4141F470014FF0000096
:101BC00030BD7FEA645C1ABF194610467FEA655C47
:101BD0001CBF0B46024650EA013406BF52EA0335E9
:101BE00091EA030F41F4002130BD00BF90F0000FD7
:101BF00004BF0021704730B54FF4806404F1320413
:101C00004FF000054FF0000150E700BF90F0000FCB
:101C100004BF0021704730B54FF4806404F13204F2
:101C200010F0004548BF40424FF000013EE700BFC2
:101C300042004FEAE2014FEA31014FEA02701FBF52
:101C400012F07F4393F07F4F81F06051704792F024
:101C5000000F14BF93F07F4F704730B54FF460749E
:101C600001F0004521F0004120E700BF50EA0102E9
:101C700008BF704730B54FF000050AE050EA010296
:101C800008BF704730B511F0004502D5404261EB06
:101C900041014FF4806404F132045FEA915C3FF447
:101CA000DCAE4FF003025FEADC0C18BF03325FEAE0
:101CB000DC0C18BF033202EBDC02C2F1200300FA95
:101CC00003FC20FA02F001FA03FE40EA0E0021FABA
:101CD00002F11444C1E600BF70B54FF0FF0C4CF4A4
:101CE000E06C1CEA11541DBF1CEA135594EA0C0F5A
:101CF00095EA0C0F00F0DEF82C4481EA030621EA95
:101D00004C5123EA4C5350EA013518BF52EA0335CF
:101D100041F4801143F4801338D0A0FB02CE4FF081
:101D20000005E1FB02E506F00042E0FB03E54FF0B1
:101D30000006E1FB03569CF0000F18BF4EF0010EA9
:101D4000A4F1FF04B6F5007F64F5407404D25FEAA5
:101D50004E0E6D4146EB060642EAC62141EA555158
:101D60004FEAC52040EA5E504FEACE2EB4F1FD0C9A
:101D700088BFBCF5E06F1ED8BEF1004F08BF5FEA18
:101D8000500E50F1000041EB045170BD06F00046CA
:101D900046EA010140EA020081EA0301B4EB5C0477
:101DA000C2BFD4EB0C0541EA045170BD41F480116F
:101DB0004FF0000E013C00F3AB8014F1360FDEBF94
:101DC000002001F0004170BDC4F10004203C35DA70
:101DD0000C341BDC04F11404C4F1200500FA05F3F3
:101DE00020FA04F001FA05F240EA020001F0004294
:101DF00021F0004110EBD37021FA04F642EB06010A
:101E00005EEA430E08BF20EAD37070BDC4F10C0433
:101E1000C4F1200500FA04F320FA05F001FA04F2F7
:101E200040EA020001F0004110EBD37041F10001E3
:101E30005EEA430E08BF20EAD37070BDC4F12005EE
:101E400000FA05F24EEA020E20FA04F301FA05F256
:101E500043EA020321FA04F001F0004121FA04F2FE
:101E600020EA020000EBD3705EEA430E08BF20EACE
:101E7000D37070BD94F0000F0FD101F00046400008
:101E800041EB010111F4801F08BF013CF7D041EA8A
:101E9000060195F0000F18BF704703F0004652008E
:101EA00043EB030313F4801F08BF013DF7D043EA5F
:101EB0000603704794EA0C0F0CEA135518BF95EA15
:101EC0000C0F0CD050EA410618BF52EA4306D1D19C
:101ED00081EA030101F000414FF0000070BD50EABB
:101EE000410606BF1046194652EA430619D094EA45
:101EF0000C0F02D150EA013613D195EA0C0F05D12F
:101F000052EA03361CBF104619460AD181EA030182
:101F100001F0004141F0FE4141F470014FF000003A
:101F200070BD41F0FE4141F4780170BD70B54FF0D5
:101F3000FF0C4CF4E06C1CEA11541DBF1CEA135555
:101F400094EA0C0F95EA0C0F00F0A7F8A4EB050437
:101F500081EA030E52EA03354FEA013100F088802E
:101F60004FEA03334FF0805545EA131343EA1263F7
:101F70004FEA022245EA111545EA10654FEA0026AC
:101F80000EF000419D4208BF964244F1FD0404F565
:101F9000407402D25B084FEA3202B61A65EB0305C1
:101FA0005B084FEA32024FF480104FF4002CB6EB7E
:101FB000020E75EB030E22BFB61A754640EA0C00FE
:101FC0005B084FEA3202B6EB020E75EB030E22BF3E
:101FD000B61A754640EA5C005B084FEA3202B6EB7F
:101FE000020E75EB030E22BFB61A754640EA9C003E
:101FF0005B084FEA3202B6EB020E75EB030E22BF0E
:10200000B61A754640EADC0055EA060E18D04FEACB
:10201000051545EA16754FEA06164FEAC30343EA6B
:1020200052734FEAC2025FEA1C1CC0D111F4801F38
:102030000BD141EA00014FF000004FF0004CB6E731
:1020400011F4801F04BF01430020B4F1FD0C88BFD0
:10205000BCF5E06F3FF6AFAEB5EB030C04BFB6EBDB
:10206000020C5FEA500C50F1000041EB045170BDCE
:102070000EF0004E4EEA113114EB5C04C2BFD4EBFB
:102080000C0541EA045170BD41F480114FF0000E7F
:10209000013C90E645EA060E8DE60CEA135594EAFB
:1020A0000C0F08BF95EA0C0F3FF43BAF94EA0C0FFE
:1020B0000AD150EA01347FF434AF95EA0C0F7FF473
:1020C00025AF104619462CE795EA0C0F06D152EAC7
:1020D00003353FF4FDAE1046194622E750EA4106AB
:1020E00018BF52EA43067FF4C5AE50EA41047FF4BC
:1020F0000DAF52EA43057FF4EBAE12E74FF0FF3C21
:1021000006E000BF4FF0010C02E000BF4FF0010CF1
:102110004DF804CD4FEA410C7FEA6C5C4FEA430C6A
:1021200018BF7FEA6C5C1BD001B050EA410C0CBFB9
:1021300052EA430C91EA030F02BF90EA020F00201B
:10214000704710F1000F91EA030F58BF994208BF82
:1021500090422CBFD8176FEAE37040F0010070473F
:102160004FEA410C7FEA6C5C02D150EA013C07D196
:102170004FEA430C7FEA6C5CD6D152EA033CD3D0E1
:102180005DF8040B704700BF8446104662468C46DB
:102190001946634600E000BF01B5FFF7B7FF00280E
:1021A00048BF10F1000F01BD4DF808EDFFF7F4FF37
:1021B0000CBF012000205DF808FB00BF4DF808EDC2
:1021C000FFF7EAFF34BF012000205DF808FB00BFE5
:1021D0004DF808EDFFF7E0FF94BF012000205DF807
:1021E00008FB00BF4DF808EDFFF7CEFF94BF0120BC
:1021F00000205DF808FB00BF4DF808EDFFF7C4FFB5
:1022000034BF012000205DF808FB00BF4FEA410207
:1022100012F5001215D211D56FF47873B3EB625238
:1022200012D94FEAC12343F0004343EA505311F05F
:10223000004F23FA02F018BF404270474FF00000F1
:10224000704750EA013005D111F0004008BF6FF02F
:10225000004070474FF00000704700BF4A0011D2A5
:1022600012F5001211D20DD56FF47873B3EB6252F0
:102270000ED44FEAC12343F0004343EA505323FAFC
:1022800002F070474FF00000704750EA013002D171
:102290004FF0FF3070474FF0000070474FEA4102A7
:1022A000B2F1E04324BFB3F5001CDCF1FE5C0DD9B4
:1022B00001F0004C4FEAC0024CEA5070B2F1004FFE
:1022C00040EB830008BF20F00100704711F0804F01
:1022D00021D113F13872BCBF01F00040704741F4C6
:1022E00080114FEA5252C2F11802C2F1200C10FACA
:1022F0000CF320FA02F018BF40F001004FEAC123AE
:102300004FEAD32303FA0CFC40EA0C0023FA02F351
:102310004FEA4303CCE77FEA625307D150EA013327
:102320001EBF4FF0FE4040F44000704701F00040F7
:1023300040F0FE4040F40000704700BF80F00040D5
:1023400002E000BF81F0004142001FBF5FEA41038D
:1023500092EA030F7FEA226C7FEA236C6AD04FEA8D
:102360001262D2EB1363C1BFD218414048404140D2
:10237000B8BF5B42192B88BF704710F0004F40F484
:10238000000020F07F4018BF404211F0004F41F4A0
:10239000000121F07F4118BF494292EA030F3FD06C
:1023A000A2F1010241FA03FC10EB0C00C3F120037F
:1023B00001FA03F100F0004302D5494260EB40000E
:1023C000B0F5000F13D3B0F1807F06D340084FEA79
:1023D000310102F10102FE2A51D2B1F1004F40EB6E
:1023E000C25008BF20F0010040EA030070474900D6
:1023F00040EB000010F4000FA2F10102EDD1B0FAA1
:1024000080FCACF1080CB2EB0C0200FA0CF0AABF95
:1024100000EBC25052421843BCBFD0401843704733
:1024200092F0000F81F4000106BF80F40000013239
:10243000013BB5E74FEA41037FEA226C18BF7FEA10
:10244000236C21D092EA030F04D092F0000F08BF52
:102450000846704790EA010F1CBF0020704712F039
:102460007F4F04D1400028BF40F00040704712F178
:1024700000723CBF00F50000704700F0004343F0DD
:10248000FE4040F4000070477FEA226216BF084613
:102490007FEA23630146420206BF5FEA412390EAD6
:1024A000010F40F4800070474FF0000304E000BFCC
:1024B00010F0004348BF40425FEA000C08BF70477D
:1024C00043F0964301464FF000001CE050EA010241
:1024D00008BF70474FF000030AE000BF50EA010256
:1024E00008BF704711F0004302D5404261EB410143
:1024F0005FEA010C02BF84460146002043F0B64368
:1025000008BFA3F18053A3F50003BCFA8CF2083A8C
:10251000A3EBC25310DB01FA02FC634400FA02FC95
:10252000C2F12002BCF1004F20FA02F243EB02009C
:1025300008BF20F00100704702F1200201FA02FCFE
:10254000C2F1200250EA4C0021FA02F243EB0200F1
:1025500008BF20EADC7070474FF0FF3C06E000BF88
:102560004FF0010C02E000BF4FF0010C4DF804CD1C
:102570004FEA40024FEA41037FEA226C18BF7FEA2C
:10258000236C11D001B052EA530C18BF90EA010F2E
:1025900058BFB2EB030088BFC81738BF6FEAE170BD
:1025A00018BF40F0010070477FEA226C02D15FEA59
:1025B000402C05D17FEA236CE4D15FEA412CE1D0C5
:1025C0005DF8040B704700BF844608466146FFE78C
:1025D0000FB5FFF7C9FF002848BF10F1000F0FBD6E
:1025E0004DF808EDFFF7F4FF0CBF012000205DF867
:1025F00008FB00BF4DF808EDFFF7EAFF34BF0120EC
:1026000000205DF808FB00BF4DF808EDFFF7E0FF84
:1026100094BF012000205DF808FB00BF4DF808EDD5
:10262000FFF7D2FF94BF012000205DF808FB00BF38
:102630004DF808EDFFF7C8FF34BF012000205DF81A
:1026400008FB00BF014B1868704700BF88050720D2
:1026500070B50F4E0F4D761BB61007D0043D002409
:10266000013455F8043F9847A642F9D10A4E0B4D64
:1026700000F0A6FC761BB61008D0043D00240134FF
:1026800055F8043F9847A642F9D170BD70BD00BF10
:10269000CC2F0800CC2F0800D42F0800CC2F080026
:1026A000024B13B1024800F005B87047000000006B
:1026B000C1260800014600200246034600F0ECBB9C
:1026C00038B5094D094C641BA41018BF05EB8405EF
:1026D00005D0013C55F8043D9847002CF9D1BDE8E0
:1026E000384000F077BC00BFE02F0800E42F08005E
:1026F000F8B5234D0F46044600F0B8FBAB685E68A2
:1027000026F00306F11B01F6EF7121F47F6121F041
:102710000F01A1F58057B7F5805F07DB2046002148
:1027200000F0A8FBAB683344984204D0204600F088
:102730009FFB0020F8BD2046794200F09BFB013052
:102740000DD0104BAA681968F61B46F0010620460A
:10275000C91B5660196000F08BFB0120F8BD2046B4
:10276000002100F087FBAB68C21A0F2ADEDD064DA0
:1027700004492D6842F00102401B5A600860D5E709
:102780008C050720F40A0720980907202DE9F0415D
:102790000D460646002955D000F068FB55F8041C8C
:1027A000DFF870C1A5F1080421F00103E218DCF89C
:1027B00008005768904227F0030768D011F0010124
:1027C000576032D00021D0194068C00706D43B447E
:1027D000906800294DD0D268C260906043F0010239
:1027E0006260E350E1B9B3F5007F2DD35A0A042AA1
:1027F00069D89809383041000CEB810CDCF80820CE
:102800004449624565D0516821F003018B4202D2F0
:1028100092689445F7D1D368E360A2609C60D4606D
:102820003046BDE8F04100F023BB55F8085C0CF1E0
:102830000808641BA0682B44404542D0E568C56089
:10284000A860C0E7BDE8F081DB089A100120904045
:10285000DCF804100CEBC3039A680143A260E36048
:10286000CCF8041030469C60D460BDE8F04100F024
:10287000FFBA294DA842AED143F00102CCF8144072
:10288000CCF81040E060A0606260E350C8E71F44ED
:10289000CB0707D455F8081C641AE368A2680F44F4
:1028A000D3609A601D4B47F001021B6862609F4233
:1028B000CCF80840B4D31A4B30461968FFF718FF1C
:1028C000AEE701217FE7142A0BD802F15B0041003B
:1028D00092E78010012585404868134628434860E8
:1028E0009AE7542A03D8180B6E30410084E7B2F5FA
:1028F000AA7F03D8D80B773041007DE740F25451CE
:102900008A4203D8980C7C30410075E7FC217E2078
:1029100072E700BF8C050720940507209409072063
:10292000F00A0720024B0146186800F003B800BF08
:10293000880507202DE9F04F01F10B05162D83B016
:10294000064627D935F0070527D4A94225D83046B1
:1029500000F08CFAB5F5FC7F26D2C14F4FEAD50CBA
:1029600007EBCC03DC689C4200F0D2816368E2682C
:1029700023F0030323445868A16840F00105CA60AE
:10298000304691605D6000F073FA0834204603B071
:10299000BDE8F08F1025A942D9D900240C23204688
:1029A000336003B0BDE8F08F5FEA552C00F08980FA
:1029B000BCF1040F00F260814FEA951C0CF1380C59
:1029C0004FEA4C01A64F07EB8101CC68A14205D12B
:1029D0000CE0002B79DAE468A14207D0626822F0AB
:1029E0000302531B0F2BF4DD0CF1FF3C0CF1010C27
:1029F0009B4B3C6903F1080E744500F07E816168D1
:102A000021F003014A1B0F2A00F36481002AC3F856
:102A100014E0C3F810E069DAB1F5007F80F03A8184
:102A2000C9088A104FF0010808FA02F803EBC10147
:102A30005A68886848EA0202A060E1605A608C60C7
:102A4000C4604FEAAC030120984090425BD8024238
:102A500006D12CF0030C400002420CF1040CFAD019
:102A600007EBCC084446E146E3689C4207D146E1C7
:102A7000002A80F25781DB689C4200F0408159684F
:102A800021F003014A1B0F2AF2DD1C4654F808CF3F
:102A9000D96845F0010942F001081D44C3F80490CB
:102AA0003046CCF80C10C1F808C07D613D61C5F816
:102AB0000CE0C5F808E0C5F80480AA5000F0D8F989
:102AC00064E77E214FF03F0C7CE722445068E368C6
:102AD000A16840F00105CB6030469960556000F078
:102AE000C7F90834204603B0BDE8F08F21444B6895
:102AF000304643F001034B6000F0BAF90834204639
:102B000003B0BDE8F08FBC68636823F00309A945F2
:102B100004D3C5EB09030F2B00F39180514B524AAC
:102B20001968136805EB010A013304EB090B00F087
:102B300061810AF5805A0AF10F0A2AF47F6A2AF0A5
:102B40000F0A30465146019200F094F9B0F1FF3F70
:102B50008046019A00F00181834500F2FB80DFF896
:102B600014C1C345DCF800305344CCF8003000F009
:102B70004A8112683C4901321BBFCBEB080B5B4416
:102B8000C1F80080CCF8003018F0070300F0148181
:102B9000C3F10802C3F5805390440833C244CAF31A
:102BA0000B0ACAEB030A51463046CDF804C000F0C8
:102BB00061F9431CDDF804C000F03581C8EB000268
:102BC000524442F00102DCF80030BC425344C7F8E2
:102BD0000880CCF80030C8F80420DFF898A015D0A1
:102BE000B9F10F0F40F2EB806168A9F10C0222F0FD
:102BF000070201F0010142EA010E0520A1180F2A87
:102C0000C4F804E04860886000F21181174ABC688B
:102C100011688B4288BF1360154A11688B4288BFC8
:102C20001360626822F003029542C5EB020301D8EB
:102C30000F2B04DC304600F01BF90024A6E645F01B
:102C4000010243F00103254462603046BD606B60C1
:102C500000F00EF90834204603B0BDE8F08F00BF45
:102C60008C050720F00A072098090720EC0A0720A6
:102C7000E80A0720F40A0720BCF1140F61D9BCF15F
:102C8000540F00F28F804FEA153C0CF16E0C4FEAA6
:102C90004C0197E64B0A042B58D9142B00F2AD8057
:102CA00003F15B02500007EB80008368DFF8B88116
:102CB000834200F08A805A6822F00302914202D2D5
:102CC0009B689842F7D1D9687A68E160A3608C600C
:102CD000DC60B6E645F0010742F00101254467607B
:102CE00030465D611D61C5F80CE0C5F808E069601B
:102CF000AA50083400F0BCF848E65A68A1E609F189
:102D0000010919F0030F04F108047FF4ADAE2DE0C2
:102D100004F108036469A34208BF0CF1020C3FF4FC
:102D200067AE23E6194448681C4654F8082FDB6850
:102D300040F001054D603046D3609A6000F098F88D
:102D400024E60CF15B0C4FEA4C013BE68A09383271
:102D50005000A8E7BC423FF402AFBC68626822F0B2
:102D6000030261E7D8F8008098457AD11CF0030F80
:102D7000A8F108030CF1FF3CF4D17B6823EA0003BF
:102D80007B60400098423FF6BEAE00283FF4BBAEE9
:102D90000342CC467FF464AE400003420CF1040CC5
:102DA000FAD05DE6BCF5AA7F19D84FEAD53C0CF104
:102DB000770C4FEA4C0105E64FF48053EEE6012311
:102DC000C8F80430444600222EE7921001209040BB
:102DD000D8F8042019460243C8F8042075E740F2E9
:102DE00054539C451BD84FEA954C0CF17C0C4FEA90
:102DF0004C01E7E50AF1100AA3E6542B1FD80A0B91
:102E00006E3250004FE7CBF30B0100297FF4B1AED7
:102E10000AEB0901BA6841F001015160F6E6FC21B4
:102E20004FF07E0CCEE501224FF0000ACBE604F114
:102E300008013046FFF7AAFCDAF80030E6E6B3F501
:102E4000AA7F03D8CA0B773250002CE740F25452C5
:102E5000934203D88A0C7C32500024E7FC207E2267
:102E600021E77B688DE700BF8C050720704700BF16
:102E7000704700BF38B5074C00230546084623605D
:102E8000FEF76AFA431C00D038BD2368002BFBD044
:102E90002B6038BD940B0720F0B5274C85B0266811
:102EA0000746D6F84841002C40D065681F2D1EDD2E
:102EB000224818B94FF0FF3005B0F0BD4FF4C8708C
:102EC000039102920193FFF72DFD03990446029AA4
:102ED000019B0028EED0D6F84851002025606060A4
:102EE0000546C6F84841C4F88801C4F88C013FB9CA
:102EF0006B1C00200235636044F8251005B0F0BD5E
:102F00000126AE4004EB8500C0F88820D4F8882163
:102F1000022F42EA0602C4F88821C0F80831E7D13E
:102F2000D4F88C311E43C4F88C61E1E706F5A67431
:102F3000C6F84841B9E700BFBC2F080025290800A2
:102F40000100000002000000040000000800000072
:102F50001000000020000000400000008000000081
:102F6000000100000002000000040000000000005A
:102F7000E2652F227F2B7A3C075C143326A6813C26
:102F8000BDCBF07A8807703C075C143326A6913CD1
:102F90004FBB610567ACDD3F182D4454FB21E93F71
:102FA0009BF681D20B73EF3F182D4454FB21F93F60
:102FB000737172740000000043000000600107207C
:102FC000F8B500BFF8BC08BC9E467047A1260800B3
:102FD00019010800F8B500BFF8BC08BC9E46704750
:042FE000F5000800F0
:102FE400BFF35F8F0138FBD1704700BF4FF480639C
:102FF400204A136002F5007213601F4B1B6A13F022
:10300400807F07D11D4A1C4B1A621A46936E13F037
:10301400010FFBD01A4A184B1A621A46936E13F426
:10302400803FFBD0144B1A6B22F0030242F00102E2
:103034001A631A46936E13F0080FFBD0114A0E4B15
:103044009A621A46936E13F0020FFBD011220A4BB8
:103054001A631A46936E13F0080FFBD01222064B24
:103064001A631A46936E13F0080FFBD0064A074BF7
:103074001A607047000A0E4000060E400908370027
:1030840009083701013F0D2000BD01055801072043
:103094001B4B984206D800231A4A136002F50072AB
:1030A40013607047184B984207D84FF48073154A41
:1030B400136002F5007213607047144B984207D8EE
:1030C4004FF400730F4A136002F5007213607047E7
:1030D4000F4B984207D84FF440730A4A136002F525
:1030E4000072136070470B4B984294BF4FF4806397
:1030F4004FF4A063034A136002F500721360704733
:10310400BFEA2101000A0E407FF0FA02FF8FD003CC
:10311400FFB3C4047F4A5D05010100001B000000E9
:103124002E000000170000007E010000D8010000FE
:10313400170000000100000000093D00010000002C
:10314400000000004C040720B40407201C050720DD
:10315400000000000000000000000000000000006B
:10316400000000000000000000000000000000005B
:1031740000000000B82F080000000000000000005C
:10318400000000000000000000000000000000003B
:10319400000000000000000000000000000000002B
:1031A400000000000000000000000000000000001B
:1031B400000000000000000000000000000000000B
:1031C40000000000000000000000000000000000FB
:1031D40000000000000000000000000000000000EB
:1031E40000000000000000000100000000000000DA
:1031F4000E33CDAB34126DE6ECDE05000B0000009F
:1032040000000000000000000000000000000000BA
:1032140000000000000000000000000000000000AA
:10322400000000000000000000000000000000009A
:10323400000000000000000000000000000000008A
:1035640000000000000000006001072000000000CF
:10357400000000008C0507208C0507209405072017
:10358400940507209C0507209C050720A405072017
:10359400A4050720AC050720AC050720B4050720C7
:1035A400B4050720BC050720BC050720C405072077
:1035B400C4050720CC050720CC050720D405072027
:1035C400D4050720DC050720DC050720E4050720D7
:1035D400E4050720EC050720EC050720F405072087
:1035E400F4050720FC050720FC0507200406072036
:1035F400040607200C0607200C06072014060720E3
:10360400140607201C0607201C0607202406072092
:10361400240607202C0607202C0607203406072042
:10362400340607203C0607203C06072044060720F2
:10363400440607204C0607204C06072054060720A2
:10364400540607205C0607205C0607206406072052
:10365400640607206C0607206C0607207406072002
:10366400740607207C0607207C06072084060720B2
:10367400840607208C0607208C0607209406072062
:10368400940607209C0607209C060720A406072012
:10369400A4060720AC060720AC060720B4060720C2
:1036A400B4060720BC060720BC060720C406072072
:1036B400C4060720CC060720CC060720D406072022
:1036C400D4060720DC060720DC060720E4060720D2
:1036D400E4060720EC060720EC060720F406072082
:1036E400F4060720FC060720FC0607200407072031
:1036F400040707200C0707200C07072014070720DE
:10370400140707201C0707201C070720240707208D
:10371400240707202C0707202C070720340707203D
:10372400340707203C0707203C07072044070720ED
:10373400440707204C0707204C070720540707209D
:10374400540707205C0707205C070720640707204D
:10375400640707206C0707206C07072074070720FD
:10376400740707207C0707207C07072084070720AD
:10377400840707208C0707208C070720940707205D
:10378400940707209C0707209C070720A40707200D
:10379400A4070720AC070720AC070720B4070720BD
:1037A400B4070720BC070720BC070720C40707206D
:1037B400C4070720CC070720CC070720D40707201D
:1037C400D4070720DC070720DC070720E4070720CD
:1037D400E4070720EC070720EC070720F40707207D
:1037E400F4070720FC070720FC070720040807202C
:1037F400040807200C0807200C08072014080720D9
:10380400140807201C0807201C0807202408072088
:10381400240807202C0807202C0807203408072038
:10382400340807203C0807203C08072044080720E8
:10383400440807204C0807204C0807205408072098
:10384400540807205C0807205C0807206408072048
:10385400640807206C0807206C08072074080720F8
:10386400740807207C0807207C08072084080720A8
:10387400840807208C0807208C0807209408072058
:10388400940807209C0807209C080720A408072008
:10389400A4080720AC080720AC080720B4080720B8
:1038A400B4080720BC080720BC080720C408072068
:1038B400C4080720CC080720CC080720D408072018
:1038C400D4080720DC080720DC080720E4080720C8
:1038D400E4080720EC080720EC080720F408072078
:1038E400F4080720FC080720FC0807200409072027
:1038F400040907200C0907200C09072014090720D4
:10390400140907201C0907201C0907202409072083
:10391400240907202C0907202C0907203409072033
:10392400340907203C0907203C09072044090720E3
:10393400440907204C0907204C0907205409072093
:10394400540907205C0907205C0907206409072043
:10395400640907206C0907206C09072074090720F3
:10396400740907207C0907207C09072084090720A3
:0C3974008409072000000200FFFFFFFF95
:04000003800012A9BE
:00000001FF
